:040000006DEF3EF072
:107CC200F2901200300ED36E000E9B6E120076EC14
:107CD2003EF063EC3EF0120000EE11F0070EEE6A89
:107CE200E806FDE10001FBEF3EF0000E8D6E000E96
:107CF2008C6E000E896E800E8A6E000E8B6E070EE1
:107D0200966ED00E926E000E936E946895687E68A1
:107D12001F0E7F6E000E7C6EF18E12000350041057
:107D2200D8B496EF3EF098EF3EF0BCEF3EF0010E75
:107D3200056EA0EF3EF0D89003360436052A04AE55
:107D4200A5EF3EF0A7EF3EF09CEF3EF00350015C42
:107D520004500258D8A0B0EF3EF0B2EF3EF0B6EFBA
:107D62003EF00350015E0450025AD89004320332AE
:107D7200052EA7EF3EF001C001F002C002F0120092
:107D8200000E0B6E000E0A6E08500910D8B4CCEF2C
:107D92003EF0CEEF3EF0F6EF3EF0010E0C6ED6EF67
:107DA2003EF0D890083609360C2A09AEDBEF3EF0D9
:107DB200DDEF3EF0D2EF3EF0D8900A360B36085097
:107DC200065C09500758D8A0E9EF3EF0EBEF3EF011
:107DD200F0EF3EF00850065E0950075A0A80D8902C
:107DE200093208320C2EDDEF3EF00AC006F00BC05D
:107DF20007F0120068EC3EF061EC3EF0898AEDEF8C
:107E02003FF083B007EF3FF009EF3FF021EF3FF083
:107E12000D0E0E6EAF0E0D6EB60EE82EFED70D2EA7
:107E2200FCD70E2EFAD700F000F083A01BEF3FF034
:107E32001DEF3FF016EF3FF0114A122A3FEF3FF0DD
:107E420083B226EF3FF028EF3FF03FEF3FF00D0EF9
:107E52000E6EAF0E0D6EB60EE82EFED70D2EFCD7AF
:107E62000E2EFAD700F000F083A23AEF3FF03CEF7B
:107E72003FF035EF3FF01106D8A01206000E046E57
:107E8200640E036E11C001F012C002F08FEC3EF0DE
:107E920001C00FF002C010F00FC001F010C002F0DC
:107EA200000E046E0A0E036E8FEC3EF00138F00BEA
:107EB200176E8ACF13F00F0E1316135017108A6E17
:107EC2008980899289948996030E0E6E8A0E0D6EB0
:107ED200560EE82EFED70D2EFCD70E2EFAD7000E28
:107EE200046E640E036E11C001F012C002F08FEC3A
:107EF2003EF001C006F002C007F0000E096E0A0E45
:107F0200086EC1EC3EF00638F00B166E8ACF13F005
:107F12000F0E1316135016108A6E89908982899457
:107F22008996030E0E6E8A0E0D6E560EE82EFED741
:107F32000D2EFCD70E2EFAD7030E046EE80E036E3A
:107F420011C001F012C002F08FEC3EF001C006F049
:107F520002C007F0000E096E640E086EC1EC3EF01E
:107F62000638F00B156E8ACF13F00F0E131613504E
:107F720015108A6E8990899289848996030E0E6EF5
:107F82008A0E0D6E560EE82EFED70D2EFCD70E2E43
:107F9200FAD711C006F012C007F0030E096EE80E00
:107FA200086EC1EC3EF00638F00B146E8ACF13F067
:107FB2000F0E1316135014108A6E899089928994A9
:107FC2008986030E0E6E8A0E0D6E560EE82EFED7B1
:107FD2000D2EFCD70E2EFAD7100E115C270E12585A
:107FE200D8A0F6EF3FF0F8EF3FF002EF3FF0000EBF
:0E7FF200126E000E116EEDEF3FF000EF00F08A
:020000040020DA
:08000000FFFFFFFFFFFFFFFF00
:020000040030CA
:0E000000FF021F1EFF8B81FF0FC00FE00F409D
:00000001FF
