:0400000058EF00F0C5
:100008003682FACF24F0FBCF25F0D9CF26F0DACF0D
:1000180027F0F2AC12EF00F014EF00F04EEF00F012
:100028009DA819EF00F01BEF00F031EF00F09EA83B
:1000380020EF00F022EF00F031EF00F002D82FEFB0
:1000480000F00500FA6E3450FD6E3550FE6EF85023
:10005800FF6EFA5012004EEF00F09DAA36EF00F046
:1000680038EF00F04EEF00F09EAA3DEF00F03FEFB2
:1000780000F04EEF00F002D84CEF00F00500FA6EE9
:100088003250FD6E3350FE6EF850FF6EFA5012007B
:100098004EEF00F027C0DAFF26C0D9FF25C0FBFFCE
:1000A80024C0FAFF36921100A6EF01F0010E1D24BC
:1000B800D96EDA6A000EDA22DF6AABA466EF00F0C6
:1000C80068EF00F07CEF00F0010E1D24D96EDA6AAB
:1000D800000EDA22DF8202D87CEF00F00500FA6E0B
:1000E8003050FD6E3150FE6EF850FF6EFA5012001F
:1000F800ABA281EF00F083EF00F097EF00F0010E64
:100108001D24D96EDA6A000EDA22DF8402D897EF4E
:1001180000F00500FA6E2E50FD6E2F50FE6EF8505E
:10012800FF6EFA501200010E1D24D96EDA6A000E15
:10013800DA22DF50D8B4A3EF00F0A5EF00F0B4EF57
:1001480000F002D8B2EF00F00500FA6E2C50FD6EF8
:100158002D50FE6EF850FF6EFA501200B6EF00F008
:1001680091EC01F012009D9AB40E286E000E296ED3
:10017800C6EC01F09D98780E286E020E296EC1EC2F
:1001880001F0080EB86E900EAB6E240EAC6E080E21
:10019800AF6E020EB06EC80E286E030E296ED0EC3C
:1001A80001F0B40E286E030E296ECBEC01F0BA0EE6
:1001B800286E030E296ED5EC01F0000E1A6E000EA3
:1001C800206E000E1F6E080E1E6E000E1D6E000EB5
:1001D8001C6E000E1B6E9D8A1200216E1E50D8B434
:1001E800F8EF00F0FAEF00F0F2EF00F09DB8FFEF43
:1001F80000F001EF01F005EF01F021C0ADFF1AEFAB
:1002080001F09D98110E2024D96EDA6A000EDA22C8
:1002180021C0DFFF202A070E206415EF01F017EF39
:1002280001F019EF01F0000E206E1E069D881200E5
:10023800B3EC01F0B80E286E020E296EC6EC01F080
:10024800E2EC01F0F28EF28C19C08AFF19C08AFF25
:10025800030E2B6E8A0E2A6E560EE82EFED72A2E15
:10026800FCD72B2EFAD7192A2AEF01F058EF00F005
:10027800080E1E6042EF01F044EF01F05AEF01F062
:10028800110E1F24D96EDA6A000EDA22DF50AD6E25
:100298001F2A070E1F6453EF01F055EF01F057EFC7
:1002A80001F0000E1F6E1E2A5BEF01F09D981200F0
:1002B800410E226EEE0EE82EFED7222EFCD700F05D
:1002C80000F0AECF8AFFAE50F1EC00F01A0E236EAC
:1002D8005E0E226E6E0EE82EFED7222EFCD7232E3F
:1002E800FAD700F000F01200000E8D6E000E8C6E32
:1002F800000E896E000E8A6E000E8B6E070E966ECB
:100308009268000E936EBF0E946E95687E681F0EFD
:100318007F6E000E7C6EF18E1200090E1D24D96EC0
:10032800DA6A000EDA22AECFDFFF1D2A070E1D643F
:10033800A0EF01F0A2EF01F0A4EF01F0000E1D6E96
:100348001B2A120000EE01F0200EEE6AE806FDE11D
:1003580036903692000EF86E00011CEF01F0E0ECCA
:1003680001F078EC01F0BCEC01F0B7EC00F0120001
:10037800300ED36E000E9B6E120028C034F029C0D8
:1003880035F0120028C032F029C033F0120028C01E
:100398002EF029C02FF0120028C030F029C031F00B
:1003A800120028C02CF029C02DF01200AB98AB88A1
:1003B800120091EC01F01200D09E1200F29012008F
:0203C800120021
:020000040020DA
:08000000FFFFFFFFFFFFFFFF00
:020000040030CA
:0E000000FF021F1EFF8B81FF0FC00FE00F409D
:00000001FF
