:0400000076EF3FF068
:107E8B00AA07C001F008C002F0120007C005F008F5
:107E9B00C006F0120007C003F008C004F012006027
:107EAB000ED36E000E9B6E1200B0EC3FF055EC3F04
:107EBB00F0E1EC3FF01200ACB266EF3FF069EF3F40
:107ECB00F0010E6AEF3FF0000E1200076E9EA871D4
:107EDB00EF3FF073EF3FF06CEF3FF007C0ADFF12D9
:107EEB00008B0EF66E7E0EF76E000EF86E0900F527
:107EFB00CF0CF00B6A000EF86E000199EF3FF0000B
:107F0B000E076E9EA88CEF3FF08EEF3FF097EF3F82
:107F1B00F0ACAA93EF3FF095EF3FF097EF3FF001F6
:107F2B000E076E075012005AEC3FF00C1E0C50C897
:107F3B00EC3FF00D0E0A6EAF0E096EB60EE82EFE7C
:107F4B00D7092EFCD70A2EFAD700F000F09BEF3F93
:107F5B00F000EF00F0000E8D6E000E8C6E000E899F
:107F6B006E000E8A6E000E8B6E070E966E926893E5
:107F7B0068BF0E946E95687E681F0E7F6E000E7C38
:107F8B006EF18E1200086E85EC3FF00009D8B4D16B
:107F9B00EF3FF0D3EF3FF0C9EF3FF008506BEC3FF2
:107FAB00F061EC3FF00009D8B4DEEF3FF0E0EF3FBB
:107FBB00F0D6EF3FF01200080EB86E900EAB6E24A9
:107FCB000EAC6E080EAF6E020EB06E000E076E009A
:107FDB000E086E4BEC3FF0000E076E000E086E5055
:107FEB00EC3FF0000E076E000E086E46EC3FF00003
:057FFB000E0B6E1200E8
:020000040020DA
:08000000FFFFFFFFFFFFFFFF00
:020000040030CA
:0E000000FF021F1EFF8B81FF0FC00FE00F409D
:00000001FF
