:0400000059EF3FF085
:107EB200066A0001A9EF3FF0600ED36E000E9B6EC2
:107EC200120071EC3FF05DEC3FF01200016E01C058
:107ED200A9FFA69CA69EA68000F000F0A850120062
:107EE200000E8D6E000E8C6E000E896E000E8A6E74
:107EF200000E8B6E070E966E9268000E936E94685B
:107F020095687E681F0E7F6E000E7C6EF18E1200E9
:107F1200026E000EF2BE010E036E02C0A9FF01C086
:107F2200A8FFA69EA69CA684F29E550EA76EAA0E38
:107F3200A76EA682A6B2A0EF3FF0A2EF3FF09BEFA2
:107F42003FF0A69403B002D0F29E01D0F28E12004E
:107F520062EC3FF0FF0E016E010E89EC3FF0F00E75
:107F6200016E020E89EC3FF00F0E016E030E89ECDA
:107F72003FF0410E046EEE0EE82EFED7042EFCD723
:107F820000F000F0010E67EC3FF0066E06C08AFFBB
:107F92000D0E056EAF0E046EB60EE82EFED7042E41
:107FA200FCD7052EFAD700F000F0020E67EC3FF086
:107FB200066E06C08AFF0D0E056EAF0E046EB60E7B
:107FC200E82EFED7042EFCD7052EFAD700F000F0DB
:107FD200030E67EC3FF0066E06C08AFF0D0E056EBB
:107FE200AF0E046EB60EE82EFED7042EFCD7052E79
:0E7FF200FAD700F000F0FCEF3FF000EF00F0D7
:020000040020DA
:08000000FFFFFFFFFFFFFFFF00
:020000040030CA
:0E000000FF021F1EFF8B81FF0FC00FE00F409D
:00000001FF
