:04000000ABEF0BF067
:10060000000D0A20456E74657220454550524F4DCD
:100610002044617461204E756D626572203A20003D
:100620000D0A20454550524F4D2056616C7565208E
:0F0630003A2000257320256C75006C6C73000058
:100640003EC0D9FF3FC0DAFFDECFF6FFDDCFF7FFB8
:100650000800F550250AD8A430EF03F032EF03F07C
:100660008BEF04F03EC0D9FF3FC0DAFFDE2A000E58
:10067000DD22000E00016B6F000E6A6F6AC05EF033
:100680006BC05FF06C696D693EC0D9FF3FC0DAFF97
:10069000DECFF6FFDDCFF7FF0800F550730AD8B4C0
:1006A00054EF03F056EF03F071EF03F03EC0D9FFB3
:1006B0003FC0DAFFDECF01F0DDCF02F03A0E036E6D
:1006C000060E046E000E066E030E056EBAEC07F001
:1006D00001500210D8A46FEF03F071EF03F0B9EFEF
:1006E00003F03EC0D9FF3FC0DAFFDECFF6FFDDCF1B
:1006F000F7FF0800F550730AD8B481EF03F083EFD9
:1007000003F089EF03F0000E4B6E030E4A6E8DEF7F
:1007100003F0000E4B6E010E4A6E3EC0D9FF3FC083
:10072000DAFF4A50DE264B50DD2240C0D9FF41C0DF
:10073000DAFFDFCF42F0020EDE26DFCF43F0000EFD
:10074000DD2242C0D9FF43C0DAFFDECF48F0DDCF63
:1007500049F03CC00AF03DC00BF048C00CF049C065
:100760000DF076EC06F00AC03CF00BC03DF0A6EFB1
:1007700004F03EC0D9FF3FC0DAFFDECFF6FFDDCF89
:10078000F7FF0800F550750AD8A4C9EF03F0CBEFC6
:1007900003F00CEF04F03EC0D9FF3FC0DAFFDE2AC1
:1007A000000EDD2240C0D9FF41C0DAFFDFCF42F0AA
:1007B000020EDE26DFCF43F0000EDD2242C0D9FF5D
:1007C00043C0DAFFDECF44F0DDCF45F044C04CF04B
:1007D00045C04DF04E6A4F6A506A516A526A536A78
:1007E0003CC01CF03DC01DF04CC01EF04DC01FF0C1
:1007F0004EC020F04FC021F050C022F051C023F075
:1008000052C024F053C025F0A7EC04F01CC03CF00B
:100810001DC03DF0A6EF04F03EC0D9FF3FC0DAFF97
:10082000DECF01F0DDCF02F0370E036E060E046E50
:10083000000E066E020E056EBAEC07F001500210B3
:10084000D8A425EF04F027EF04F055EF04F0020ED2
:100850003EC0D9FF3FC0DAFFDE26000EDD2240C0D9
:10086000D9FF41C0DAFFDFCF42F0040EDE26DFCF32
:1008700043F0000EDD2242C0D9FF43C0DAFFDECFD5
:1008800044F0DECF45F0DECF46F0DECF47F04450F7
:100890004C6E45504D6E46504E6E47504F6E506AEE
:1008A000516A526A536AF0EF03F03EC0D9FF3FC06D
:1008B000DAFFDECFF6FFDDCFF7FF0800F550250A9F
:1008C000D8A465EF04F067EF04F07EEF04F03EC0BB
:1008D000D9FF3FC0DAFFDE2A000EDD22000E026ED5
:1008E000250E016E3CC003F03DC004F0F9EC08F0A9
:1008F000000E3D6E010E3C6EA6EF04F03EC0D9FF27
:100900003FC0DAFFDE2A000EDD22000E3D6E000E33
:100910003C6EA6EF04F03EC0D9FF3FC0DAFFDECF49
:10092000F6FFDDCFF7FF0800F550016E026A3CC00C
:1009300003F03DC004F0F9EC08F03EC0D9FF3FC021
:10094000DAFFDE2A000EDD2278EF04F0120000014B
:100950006DBFADEF04F0AFEF04F0B0EF04F05E92C6
:100960006DBFBDEF04F06D5106E16C05D8B0BBEF73
:1009700004F0BDEF04F0C3EF04F0000E2F6E010E83
:100980002E6EC7EF04F06CC02EF06DC02FF06AC061
:1009900030F06BC031F01EC032F01FC033F020C009
:1009A00034F021C035F022C036F023C037F024C027
:1009B00038F025C039F0000E3B6E1F0E3A6E000E67
:1009C000C06F59EF05F03A06D8A03B06A10E3A24B5
:1009D000D96E000E3B20DA6E32C001F033C002F057
:1009E00034C003F035C004F036C005F037C006F05F
:1009F00038C007F039C008F00A0E096E000E0A6E02
:100A0000000E0B6E000E0C6E000E0D6E000E0E6EC4
:100A1000000E0F6E000E106E91EC08F001C026F073
:100A200002C027F003C028F004C029F005C02AF056
:100A300006C02BF007C02CF008C02DF02650300F58
:100A4000DF6E2E06D8A02F063006D8A0310632C0A1
:100A500001F033C002F034C003F035C004F036C0FA
:100A600005F037C006F038C007F039C008F00A0EAC
:100A7000096E000E0A6E000E0B6E000E0C6E000E5C
:100A80000D6E000E0E6E000E0F6E000E106E42EC1C
:100A900007F001C032F002C033F003C034F004C0EC
:100AA00035F005C036F006C037F007C038F008C092
:100AB00039F03A503B10D8B460EF05F062EF05F022
:100AC00092EF05F0325033103410351036103710D5
:100AD00038103910D8A46FEF05F071EF05F0E3EF8F
:100AE00004F02FBE7EEF05F02F5006E12E04D8B0A3
:100AF0007CEF05F07EEF05F0E3EF04F031BE89EF07
:100B000005F0315008E13004D8A089EF05F08BEFF3
:100B100005F092EF05F05EB290EF05F092EF05F070
:100B2000E3EF04F01CC011F01DC012F0A10E3A2436
:100B3000136E000E3B20146E30C015F031C016F05D
:100B40005EEC09F011C01CF012C01DF01200000E86
:100B5000186E000E196E000E1A6E000E1B6E000E3F
:100B6000176E000E166EB7EF05F00D4A0E2A0DC077
:100B7000D9FF0EC0DAFF200EDE18D8B4C2EF05F0A0
:100B8000C4EF05F0B5EF05F0F70E116EFF0E126E13
:100B90000DC0D9FF0EC0DAFFDF50136E146A11507A
:100BA000132612501422145009E1050E135CD8A02C
:100BB000DCEF05F0DEEF05F0B5EF05F0E8EF05F04E
:100BC000000E176E010E166E0D4A0E2A2FEF06F05C
:100BD0000DC0D9FF0EC0DAFFDF50116E126A12503D
:100BE000000AD8B4F6EF05F02FEF06F011502B0AEB
:100BF000D8B4E4EF05F0060AD8B4E0EF05F02FEF23
:100C000006F00DC0D9FF0EC0DAFFDF50116ED00E16
:100C10001124126E136AFF0E1322146A156A18C08B
:100C200001F019C002F01AC003F01BC004F00A0E54
:100C3000056E000E066E000E076E000E086E17ECB5
:100C40000AF01250015C186E13500258196E1450BD
:100C500003581A6E155004581B6EE4EF05F0D00EC1
:100C6000116EFF0E126E0DC0D9FF0EC0DAFFDF50FD
:100C7000136E146A1150132612501422145009E1F5
:100C80000A0E135CD8A047EF06F049EF06F001EF1B
:100C900006F016501710D8A450EF06F052EF06F0E9
:100CA0006DEF06F018C011F019C012F01AC013F061
:100CB0001BC014F0111E121E131E141E112A000E4A
:100CC00012221322142211C00DF012C00EF013C014
:100CD0000FF014C010F075EF06F018C00DF019C039
:100CE0000EF01AC00FF01BC010F0120020EED8F06A
:100CF00010EE0FF0060EDBCFE3FFE806FCE20CC0BF
:100D00001AF00DC01BF01A501B10D8A48AEF06F081
:100D10008CEF06F090EF06F00F0E1A6E000E1B6EB1
:100D20001AC001F01BC002F0FEEC0AF001C01EF078
:100D300002C01FF06CC01CF06DC01DF01DBEA3EF03
:100D400006F0A5EF06F0BAEF06F01E501C5C1D5031
:100D5000800A0E6E1F50800A0E58D8A0B2EF06F01F
:100D6000B4EF06F0B6EF06F0BAEF06F01CC01EF0C6
:100D70001DC01FF01EC01CF01FC01DF06AC018F07F
:100D80006BC019F05EB0C7EF06F0C9EF06F0E6EFF2
:100D900006F0D7EF06F0000E026E200E016E0AC0BC
:100DA00003F00BC004F0F9EC08F01E4A1F2A18509B
:100DB0001E5C1F50800A0E6E1950800A0E58D8A073
:100DC000E4EF06F0E6EF06F0CBEF06F0000E176E4C
:100DD000000E166E0AEF07F01AC0F6FF1BC0F7FFF1
:100DE000F86A050EF76403D00800F55005D0F6CF79
:100DF000E9FFF7CFEAFFEF500E6E0E50016E026A68
:100E00000AC003F00BC004F0F9EC08F01A4A1B2AE0
:100E1000164A172A1C50165C1750800A0E6E1D5079
:100E2000800A0E58D8A017EF07F019EF07F0ECEF83
:100E300006F05EA01EEF07F020EF07F03DEF07F091
:100E40002EEF07F0000E026E200E016E0AC003F0B6
:100E50000BC004F0F9EC08F01E4A1F2A18501E5C63
:100E60001F50800A0E6E1950800A0E58D8A03BEF12
:100E700007F03DEF07F022EF07F01EC00AF01FC099
:100E80000BF0120020EE11F0070EDE6AE806FDE21C
:100E900009500A100B100C100D100E100F1010102E
:100EA000D8B455EF07F057EF07F0A9EF07F0010EA0
:100EB000196E65EF07F0D89009360A360B360C36F6
:100EC0000D360E360F361036192A10AE6AEF07F0BF
:100ED0006CEF07F05BEF07F0D8901136123613363F
:100EE000143615361636173618360950015C0A5076
:100EF00002580B5003580C5004580D5005580E5012
:100F000006580F50075810500858D8A08AEF07F01D
:100F10008CEF07F09DEF07F00950015E0A50025A6E
:100F20000B50035A0C50045A0D50055A0E50065AD5
:100F30000F50075A1050085A1180D89010320F32B3
:100F40000E320D320C320B320A320932192E6CEF8E
:100F500007F011C001F012C002F013C003F014C07A
:100F600004F015C005F016C006F017C007F018C051
:100F700008F0120001C008F002C009F003C00AF036
:100F800004C00BF00506D8A00606052806E10628D1
:100F9000D8A4CDEF07F0CFEF07F0DCEF07F0000E9D
:100FA000026E000E016E28EF08F0084A092A0A4A6C
:100FB0000B2A0506D8A0060608C0F6FF09C0F7FFF1
:100FC0000800F5500009D8B4E8EF07F0EAEF07F0A1
:100FD00016EF08F00AC0F6FF0BC0F7FF0800F55047
:100FE0000009D8B4F6EF07F0F8EF07F016EF08F0B5
:100FF00005500610D8B4FFEF07F001EF08F016EF28
:1010000008F008C0F6FF09C0F7FF0800F5CF07F0A9
:101010000AC0F6FF0BC0F7FF0800F5500718D8B458
:1010200014EF08F016EF08F0D5EF07F008C0F6FF50
:1010300009C0F7FF0800F5CF07F00AC0F6FF0BC0A4
:10104000F7FF0800F550075C016E026AD8A002069F
:10105000120047EC0CF0010E026E060E036E7DECE2
:101060000AF06F0E016E000E026E0A0E036E25EC82
:101070000BF06F0E0D6E000E0E6EA7EC05F00DC09E
:1010800064F00EC065F00FC066F010C067F0000E8F
:10109000056E000E046E64C006F065C007F066C001
:1010A00008F067C009F0FCEC0BF0000E036E000EB8
:1010B000026EBFEC09F002C060F003C061F004C032
:1010C00062F005C063F06F0E0001C16F000EC26FC9
:1010D000330EC36F060EC46F200EC56F060EC66FAB
:1010E00060C0C7F061C0C8F062C0C9F063C0CAF098
:1010F000ACEC0AF06F0E026E000E036E7DEC0AF08F
:101100000D0E5D6EAF0E5C6EB60EE82EFED75C2E39
:10111000FCD75D2EFAD700F000F02BEF08F000EFBF
:1011200000F009500A100B100C100D100E100F10CB
:101130001010D8B49EEF08F0A0EF08F0E8EF08F028
:10114000010E116EAEEF08F0D89009360A360B3654
:101150000C360D360E360F361036112A10AEB3EFA0
:1011600008F0B5EF08F0A4EF08F00950015C0A5050
:1011700002580B5003580C5004580D5005580E508F
:1011800006580F50075810500858D8A0CAEF08F05A
:10119000CCEF08F0DCEF08F00950015E0A50025A6B
:1011A0000B50035A0C50045A0D50055A0E50065A53
:1011B0000F50075A1050085AD89010320F320E3282
:1011C0000D320C320B320A320932112EB5EF08F013
:1011D00001C001F002C002F003C003F004C004F03B
:1011E00005C005F006C006F007C007F008C008F00B
:1011F000120003500410D8B400EF09F002EF09F018
:101200000BEF09F003500410D8A409EF09F00BEF1D
:1012100009F010EF09F0015066EC0CF05DEF09F0F9
:1012200020EE09F00350D9260450DA22DE50DE10F9
:10123000D8B41DEF09F01FEF09F03AEF09F020EEE6
:1012400009F00350D9260450DA2210EE03F00350BF
:10125000E1260450E222DE50E65CE650800A096E88
:10126000DE50800A0958D8B038EF09F03AEF09F09B
:101270005DEF09F020EE03F00350D9260450DA2286
:10128000DECF05F0DDCF06F003C0D9FF04C0DAFFE2
:10129000DECF07F0DDCF08F005500724D96E0650E9
:1012A0000820DA6E01C0DFFF20EE03F00350D926DC
:1012B0000450DA22DE2A000EDD2212005EA063EF67
:1012C00009F065EF09F06FEF09F013C00AF014C0E0
:1012D0000BF011C00CF012C00DF049EC0BF016BE73
:1012E00074EF09F076EF09F07CEF09F015C01AF001
:1012F00016C01BF080EF09F0000E1B6E000E1A6E78
:10130000000E196E000E186E92EF09F0000E026EBC
:10131000200E016E11C003F012C004F0F9EC08F0C9
:10132000184A192A1A50185C1950800A176E1B5057
:10133000800A1758D8A09FEF09F0A1EF09F086EFB7
:1013400009F05EB0A6EF09F0A8EF09F0B2EF09F0DE
:1013500013C00AF014C00BF011C00CF012C00DF055
:1013600049EC0BF013C001F014C002F0FEEC0AF0DF
:101370001A500124116E1B500220126E12000250EE
:10138000020F33EC0CF0066E06C007F0086A096A1B
:101390000A6A09C00AF008C009F007C008F0076A25
:1013A000022833EC0CF00B6E0BC00CF00D6A0E6AC9
:1013B0000F6A0DC00FF00CC00EF00D6A0C6A0250DF
:1013C00033EC0CF0106E10C011F0126A136A146A3C
:1013D00011C014F0136A126A116A0C501124156EB0
:1013E0000D501220166E0E501320176E0F50142041
:1013F000186E07501524196E085016201A6E0950E1
:1014000017201B6E0A5018201C6E0250030F33EC7D
:101410000CF01D6E1D501924026E000E1A20036E72
:10142000000E1B20046E000E1C20056E1200000E24
:10143000096E000E0A6E000E0B6E000E0C6E01A0FF
:1014400024EF0AF026EF0AF02EEF0AF005500926E5
:1014500006500A2207500B2208500C22D89005365D
:10146000063607360836D89004320332023201328B
:101470000150021003100410D8A441EF0AF043EF0A
:101480000AF01FEF0AF009C001F00AC002F00BC019
:1014900003F00CC004F0120056C05AF057C05BF0C5
:1014A000000E0001696F000E686F6AEF0AF054C009
:1014B0003CF055C03DF05A0E3E6E000E3F6E58C0D7
:1014C00040F059C041F020EC03F03C500001682787
:1014D0003D5069235AC0F6FF5BC0F7FF0800F55086
:1014E0000009D8A476EF0AF078EF0AF057EF0AF077
:1014F00068C054F069C055F0120093EF0AF002C0C2
:10150000F6FF03C0F7FFF86A050EF76403D0080082
:10151000F55005D0F6CFE9FFF7CFEAFFEF5028EC02
:101520000CF0024A032A02C0F6FF03C0F7FFF86A74
:10153000050EF76403D00800F55005D0F6CFE9FF9B
:10154000F7CFEAFFEF500009D8A4A9EF0AF0ABEFFC
:101550000AF07FEF0AF01200C50E0001CB6F000EFB
:10156000CC6FC1C0CDF0C2C0CEF0000ED16F000E66
:10157000D06F000ED76F000ED66FCD0E546E000EDA
:10158000556EC3C056F0C4C057F0CB0E586E000E57
:10159000596E4CEC0AF00001D051C125D96ED151E1
:1015A000C221DA6E000EDF6E1200010E076E200EF1
:1015B00001180210D8B4DFEF0AF0E1EF0AF0FAEFF9
:1015C0000AF0F70E036EFF0E046E01C005F002C0B4
:1015D00006F00350052604500622065009E1050EC8
:1015E000055CD8A0F6EF0AF0F8EF0AF0FAEF0AF07F
:1015F000000E076E07C001F0026A120001C003F07E
:1016000002C004F006EF0BF0014A022A01C0F6FF07
:1016100002C0F7FFF86A050EF76403D00800F55022
:1016200005D0F6CFE9FFF7CFEAFFEF500009D8A4C5
:101630001CEF0BF01EEF0BF004EF0BF00350015CFE
:10164000016E04500258026E1200000E056E3FEF4C
:101650000BF03DEC0CF00009D8A431EF0BF033EFA8
:101660000BF029EF0BF013EC0CF0046E01C0D9FF66
:1016700002C0DAFF04C0DFFF014A022A052A035034
:10168000055CD8A046EF0BF048EF0BF029EF0BF00C
:101690001200000E106E000E0F6E5AEF0BF00EC00F
:1016A00001F0026A0CC003F00DC004F0F9EC08F080
:1016B0000F4A102A0F500A24D96E10500B20DA6EF0
:1016C000DF500E6E0E50D8A468EF0BF06AEF0BF0EF
:1016D0004FEF0BF01200026E000EF2BE010E036E11
:1016E00002C0A9FF01C0A8FFA69EA69CA684F29EE8
:1016F000550EA76EAA0EA76EA682A6B282EF0BF0B9
:1017000084EF0BF07DEF0BF0A69403B002D0F29EB5
:1017100001D0F28E1200080EB86E900EAB6E240E41
:10172000AC6E080EAF6E020EB06E000E016E000EB3
:10173000026E58EC0CF0000E016E000E026E53ECBF
:101740000CF0000E016E000E026E5DEC0CF0000E4F
:1017500000016E6F1200C40EF66E180EF76E000ECA
:10176000F86E00EED8F010EE07F00900F5CFEEFFAE
:10177000E550E150FAE100EE60F0610EEE6AE80635
:10178000FDE15F6A5E6A000EF86E000129EF08F065
:10179000D00E036EFF0E046E01C005F002C006F00D
:1017A000035005260450062206500AE10A0E055C85
:1017B000D8A0DDEF0BF0E0EF0BF0010EE1EF0BF046
:1017C000000E016E026A1200000E8D6E000E8C6E0D
:1017D000000E896E000E8A6E000E8B6E070E966EDE
:1017E00092689368BF0E946E95687E681F0E7F6E38
:1017F000000E7C6EF18E120009C001F004506BECFB
:101800000BF008C001F004286BEC0BF007C001F0EE
:101810000450020F6BEC0BF006C001F00450030FF4
:101820006BEC0BF012009EAA18EF0CF01AEF0CF004
:1018300013EF0CF0000E00016E6FABA222EF0CF064
:1018400024EF0CF026EF0CF0AB98AB88AE501200F2
:10185000016E9EA82EEF0CF030EF0CF029EF0CF08B
:1018600001C0ADFF1200016E01C0A9FFA69CA69E9B
:10187000A68000F000F0A85012009EBA42EF0CF0D3
:1018800045EF0CF0010E46EF0CF0000E1200E4ECF8
:101890000BF04EEC0CF08BEC0BF01200600ED36EE4
:1018A000000E9B6E120001C0E1F002C0E2F01200D7
:1018B00001C0E3F002C0E4F0120001C0DFF002C09A
:0B18C000E0F01200286E756C6C29002F
:0218CC00120008
:020000040020DA
:08000000FFFFFFFFFFFFFFFF00
:020000040030CA
:0E000000FF021F1EFF8B81FF0FC00FE00F409D
:00000001FF
