:020000040000FA
:1000000002EF00F0760ED36E95908C90DEEC00F04F
:1000100074EC01F0E2EC00F09AEC01F0E2EC00F09C
:1000200012EC01F0E2EC00F012EC01F0E2EC00F076
:10003000D2EC01F0E2EC00F0F8EC01F0E2EC00F0C0
:10004000A0EC01F0E2EC00F074EC01F0E2EC00F066
:10005000ECEC00F0DEEC00F0CCEC01F0E2EC00F0B7
:10006000A0EC01F0E2EC00F05EEC01F0DEEC00F060
:10007000ECEC00F0E2EC00F0CCEC01F0E2EC00F093
:1000800058EC01F0E2EC00F0B0EC01F0E2EC00F032
:10009000D2EC01F0E2EC00F0CCEC01F0E2EC00F08C
:1000A000D2EC01F0E2EC00F0F8EC01F0E2EC00F050
:1000B00048EC01F0E2EC00F0A0EC01F0E2EC00F022
:1000C000ECEC00F0DEEC00F0B0EC01F0E2EC00F063
:1000D0009AEC01F0DEEC00F058EC01F0E2EC00F0FC
:1000E000F8EC01F0E2EC00F0E2EC01F0E2EC00F000
:1000F000CCEC01F0E2EC00F0D2EC01F0E2EC00F02C
:10010000F8EC01F0E2EC00F048EC01F0E2EC00F079
:10011000A0EC01F0E2EC00F0ECEC00F0DEEC00F022
:100120002CEC01F0E2EC00F0CCEC01F0E2EC00F0A1
:10013000AAEC01F0E2EC00F012EC01F0DEEC00F0D1
:10014000E6EC00F0E2EC00F012EC01F0E2EC00F082
:1001500012EC01F0E2EC00F0A0EC01F0DEEC00F0BB
:1001600058EC01F0E2EC00F0F8EC01F0E2EC00F009
:1001700016EC01F0E2EC00F0D2EC01F0E2EC00F061
:1001800012EC01F0E2EC00F05EEC01F0DEEC00F0CD
:1001900012EC01F0E2EC00F0A0EC01F0E2EC00F077
:1001A00042EC01F0E2EC00F048EC01F0E2EC00F08F
:1001B000D6EC01F0DEEC00F0DAEF00F08C9002EC0F
:1001C00002F0000C8C9004EC02F0000C8C8004EC2B
:1001D00002F08C9006EC02F08C8006EC02F08C9021
:1001E00006EC02F08C8006EC02F08C9006EC02F03B
:1001F0008C8006EC02F0000C8C8004EC02F08C90F9
:1002000006EC02F08C8006EC02F08C9006EC02F01A
:100210008C8004EC02F08C9006EC02F08C8006ECF2
:1002200002F0000C8C8006EC02F0000C8C8006ECD6
:1002300002F08C9006EC02F08C8006EC02F08C90C0
:1002400006EC02F08C8004EC02F08C9006EC02F0DC
:100250008C8006EC02F0000C8C8006EC02F08C9096
:1002600006EC02F08C8006EC02F08C9006EC02F0BA
:100270008C8006EC02F08C9006EC02F08C8006EC90
:1002800002F0000C8C8006EC02F08C9006EC02F080
:100290008C8004EC02F08C9006EC02F08C8004EC74
:1002A00002F08C9006EC02F08C8004EC02F0000C62
:1002B0008C8006EC02F08C9006EC02F08C8004EC52
:1002C00002F08C9006EC02F08C8006EC02F08C9030
:1002D00006EC02F08C8006EC02F0000C8C8006EC40
:1002E00002F08C9006EC02F08C8004EC02F08C9012
:1002F00006EC02F08C8004EC02F08C9006EC02F02C
:100300008C8006EC02F0000C8C8004EC02F08C90E7
:1003100006EC02F08C8004EC02F08C9006EC02F00B
:100320008C8006EC02F08C9006EC02F08C8004ECE1
:1003300002F0000C8C8006EC02F08C9006EC02F0CF
:100340008C8004EC02F08C9006EC02F08C8006ECC1
:1003500002F0000C8C8006EC02F08C9006EC02F0AF
:100360008C8006EC02F08C9006EC02F08C8006EC9F
:1003700002F08C9006EC02F08C8004EC02F0000C91
:100380008C8004EC02F08C9006EC02F08C8006EC81
:1003900002F08C9006EC02F08C8006EC02F08C905F
:1003A00006EC02F08C8004EC02F0000C8C8004EC73
:1003B00002F08C9006EC02F08C8006EC02F08C903F
:1003C00006EC02F08C8004EC02F08C9006EC02F05B
:1003D0008C8004EC02F0000C8C8004EC02F08C9019
:1003E00006EC02F08C8004EC02F08C9006EC02F03B
:1003F0008C8006EC02F08C9006EC02F08C8006EC0F
:1004000002F0000C040E1226020E1226010E122615
:10041000320E106EC80E116E102E0CEF02F0112E5F
:0C0420000CEF02F0122E08EF02F0000CAE
:02042C000000CE
:020000040030CA
:0100010008F6
:010003001EDE
:010005008B6F
:010006008178
:00000001FF
