:04000000D5EF0BF03D
:10060000000D0A20456E74657220454550524F4DCD
:100610002036204469676974204E756D62657220CA
:100620003A20000D0A20454550524F4D2056616C2E
:100630007565203A20002573202569006C6C7300D5
:0106400000B9
:100642001EC036F01FC037F020C038F021C039F08C
:1006520022C03AF023C03BF024C03CF025C03DF05C
:100662003DBE36EF03F039EF03F0010E3AEF03F02F
:10067200000E346E356A34503510D8B443EF03F0AF
:1006820045EF03F055EF03F03D1E3C1E3B1E3A1EA4
:10069200391E381E371E366C000E37223822392298
:1006A2003A223B223C223D22000165BF5BEF03F070
:1006B2005DEF03F05EEF03F05E9265BF6BEF03F058
:1006C200655106E16405D8B069EF03F06BEF03F002
:1006D20071EF03F0000E316E010E306E75EF03F014
:1006E20064C030F065C031F062C032F063C033F0F4
:1006F20034503510D8A480EF03F082EF03F089EF75
:1007020003F05EA487EF03F089EF03F08CEF03F0B0
:100712003206D8A03306000E3F6E1F0E3E6E000E4C
:10072200BA6F10EF04F03E06D8A03F069B0E3E249F
:10073200D96E000E3F20DA6E36C001F037C002F0EB
:1007420038C003F039C004F03AC005F03BC006F0EF
:100752003CC007F03DC008F00A0E096E000E0A6E9A
:10076200000E0B6E000E0C6E000E0D6E000E0E6E65
:10077200000E0F6E000E106E6FEC07F001C026F037
:1007820002C027F003C028F004C029F005C02AF0F7
:1007920006C02BF007C02CF008C02DF026C013F0C5
:1007A20028C014F075EC0BF01350300FDF6E3006DA
:1007B200D8A031063206D8A0330636C001F037C0C1
:1007C20002F038C003F039C004F03AC005F03BC073
:1007D20006F03CC007F03DC008F00A0E096E000E9C
:1007E2000A6E000E0B6E000E0C6E000E0D6E000EE9
:1007F2000E6E000E0F6E000E106EABEC06F001C016
:1008020036F002C037F003C038F004C039F005C03A
:100812003AF006C03BF007C03CF008C03DF03FBED6
:100822001BEF04F03F5008E13E04D8A01BEF04F098
:100832001DEF04F04DEF04F0365037103810391028
:100842003A103B103C103D10D8A42AEF04F02CEFD4
:1008520004F094EF03F031BE39EF04F0315006E1B9
:100862003004D8B037EF04F039EF04F094EF03F01E
:1008720033BE44EF04F0335008E13204D8A044EF11
:1008820004F046EF04F04DEF04F05EB24BEF04F0DB
:100892004DEF04F094EF03F034503510D8A454EF28
:1008A20004F056EF04F05DEF04F05EA45BEF04F099
:1008B2005DEF04F07BEF04F03E06D8A03F06345013
:1008C2003510D8A467EF04F069EF04F06FEF04F07D
:1008D200000E2F6E2B0E2E6E73EF04F0000E2F6E95
:1008E2002D0E2E6E9B0E3E24D96E000E3F20DA6E28
:1008F2002EC0DFFF1CC011F01DC012F09B0E3E2463
:10090200136E000E3F20146E32C015F033C016F085
:100912009DEC09F011C01CF012C01DF0120042C083
:10092200D9FF43C0DAFFDECFF6FFDDCFF7FF0800C5
:10093200F550250AD8A4A0EF04F0A2EF04F0C3EF0B
:1009420005F042C0D9FF43C0DAFFDE2A000EDD22E5
:10095200000E0001636F000E626F62C05EF063C042
:100962005FF06469656942C0D9FF43C0DAFFDECF38
:10097200F6FFDDCFF7FF0800F550640AD8B4C4EFE4
:1009820004F0C6EF04F0D8EF04F042C0D9FF43C030
:10099200DAFFDECFF6FFDDCFF7FF0800F550690A78
:1009A200D8A4D6EF04F0D8EF04F018EF05F042C057
:1009B200D9FF43C0DAFFDE2A000EDD2244C0D9FF90
:1009C20045C0DAFFDFCF46F0020EDE26DFCF47F06A
:1009D200000EDD2246C0D9FF47C0DAFFDECF48F065
:1009E200DDCF49F0000E49BEFF0E4A6E4B6E4C6ED3
:1009F2004D6E4E6E4F6E40C01CF041C01DF048C09F
:100A02001EF049C01FF04AC020F04BC021F04CC07C
:100A120022F04DC023F04EC024F04FC025F021EC4F
:100A220003F01CC040F01DC041F0DEEF05F042C0F3
:100A3200D9FF43C0DAFFDECFF6FFDDCFF7FF0800B4
:100A4200F550730AD8B428EF05F02AEF05F045EF08
:100A520005F042C0D9FF43C0DAFFDECF01F0DDCF9F
:100A620002F03C0E036E060E046E000E066E030EBE
:100A7200056EC9EC08F001500210D8A443EF05F04E
:100A820045EF05F08DEF05F042C0D9FF43C0DAFF14
:100A9200DECFF6FFDDCFF7FF0800F550730AD8B4BA
:100AA20055EF05F057EF05F05DEF05F0000E536EC0
:100AB200030E526E61EF05F0000E536E010E526E80
:100AC20042C0D9FF43C0DAFF5250DE265350DD2226
:100AD20044C0D9FF45C0DAFFDFCF46F0020EDE2662
:100AE200DFCF47F0000EDD2246C0D9FF47C0DAFF54
:100AF200DECF50F0DDCF51F040C00AF041C00BF024
:100B020050C00CF051C00DF0DFEC05F00AC040F00F
:100B12000BC041F0DEEF05F042C0D9FF43C0DAFF5F
:100B2200DECFF6FFDDCFF7FF0800F550250AD8A487
:100B32009DEF05F09FEF05F0B6EF05F042C0D9FF3B
:100B420043C0DAFFDE2A000EDD22000E026E250E01
:100B5200016E40C003F041C004F038EC09F0000E11
:100B6200416E010E406EDEEF05F042C0D9FF43C078
:100B7200DAFFDE2A000EDD22000E416E000E406E0C
:100B8200DEEF05F042C0D9FF43C0DAFFDECFF6FF49
:100B9200DDCFF7FF0800F550016E026A40C003F096
:100BA20041C004F038EC09F042C0D9FF43C0DAFF7B
:100BB200DE2A000EDD22B0EF05F0120020EED0F0AA
:100BC20010EE0FF0060EDBCFE3FFE806FCE20CC0EE
:100BD2001AF00DC01BF01A501B10D8A4F3EF05F049
:100BE200F5EF05F0F9EF05F00F0E1A6E000E1B6E11
:100BF2001AC001F01BC002F008EC0BF001C01EF09D
:100C020002C01FF064C01CF065C01DF01DBE0CEFD9
:100C120006F00EEF06F023EF06F01E501C5C1D508E
:100C2200800A0E6E1F50800A0E58D8A01BEF06F0E5
:100C32001DEF06F01FEF06F023EF06F01CC01EF0BA
:100C42001DC01FF01EC01CF01FC01DF062C018F0B6
:100C520063C019F05EB030EF06F032EF06F04FEFEE
:100C620006F040EF06F0000E026E200E016E0AC082
:100C720003F00BC004F038EC09F01E4A1F2A18508A
:100C82001E5C1F50800A0E6E1950800A0E58D8A0A2
:100C92004DEF06F04FEF06F034EF06F0000E176E40
:100CA200000E166E73EF06F01AC0F6FF1BC0F7FFB8
:100CB200F86A050EF76403D00800F55005D0F6CFA8
:100CC200E9FFF7CFEAFFEF500E6E0E50016E026A97
:100CD2000AC003F00BC004F038EC09F01A4A1B2AD0
:100CE200164A172A1C50165C1750800A0E6E1D50A9
:100CF200800A0E58D8A080EF06F082EF06F055EF7A
:100D020006F05EA087EF06F089EF06F0A6EF06F088
:100D120097EF06F0000E026E200E016E0AC003F07D
:100D22000BC004F038EC09F01E4A1F2A18501E5C52
:100D32001F50800A0E6E1950800A0E58D8A0A4EFD8
:100D420006F0A6EF06F08BEF06F01EC00AF01FC0F9
:100D52000BF01200000E126E10BEB4EF06F0B2EFEE
:100D620006F0C6EF06F0101E0F1E0E1E0D1E0C1E04
:100D72000B1E0A1E096C000E0A220B220C220D22E7
:100D82000E220F221022010E126E08BECDEF06F0C7
:100D9200CBEF06F0DFEF06F0081E071E061E051E4B
:100DA200041E031E021E016C000E022203220422F4
:100DB2000522062207220822010E121A20EE13F043
:100DC200070EDE6AE806FDE209500A100B100C104D
:100DD2000D100E100F101010D8B4F2EF06F0F4EF51
:100DE20006F046EF07F0010E116E02EF07F0D89001
:100DF20009360A360B360C360D360E360F361036DD
:100E0200112A10AE07EF07F009EF07F0F8EF06F02E
:100E1200D890133614361536163617361836193654
:100E22001A360950015C0A5002580B5003580C50F4
:100E320004580D5005580E5006580F5007581050C0
:100E42000858D8A027EF07F029EF07F03AEF07F08C
:100E52000950015E0A50025A0B50035A0C50045AB0
:100E62000D50055A0E50065A0F50075A1050085A84
:100E72001380D89010320F320E320D320C320B32F8
:100E82000A320932112E09EF07F01250D8B44CEF92
:100E920007F04EEF07F05EEF07F01A1E191E181E3C
:100EA200171E161E151E141E136C000E1422152278
:100EB20016221722182219221A2213C001F014C076
:100EC20002F015C003F016C004F017C005F018C0F8
:100ED20006F019C007F01AC008F01200000E126ED8
:100EE20008BE78EF07F076EF07F08AEF07F0081EEA
:100EF200071E061E051E041E031E021E016C000EA6
:100F02000222032204220522062207220822010EBF
:100F1200126E10BE91EF07F08FEF07F0A1EF07F00E
:100F2200101E0F1E0E1E0D1E0C1E0B1E0A1E096C1D
:100F3200000E0A220B220C220D220E220F22102258
:100F420009500A100B100C100D100E100F1010107B
:100F5200D8B4AEEF07F0B0EF07F0F8EF07F0010EEC
:100F6200116EBEEF07F0D89009360A360B360C36F2
:100F72000D360E360F361036112A10AEC3EF07F0BB
:100F8200C5EF07F0B4EF07F00950015C0A500258B0
:100F92000B5003580C5004580D5005580E5006586B
:100FA2000F50075810500858D8A0DAEF07F0DCEFBE
:100FB20007F0ECEF07F00950015E0A50025A0B509D
:100FC200035A0C50045A0D50055A0E50065A0F502F
:100FD200075A1050085AD89010320F320E320D3282
:100FE2000C320B320A320932112EC5EF07F01250C1
:100FF200D8B4FEEF07F000EF08F010EF08F0081E7B
:10100200071E061E051E041E031E021E016C000E94
:10101200022203220422052206220722082201C0FC
:1010220001F002C002F003C003F004C004F005C0E6
:1010320005F006C006F007C007F008C008F012006D
:10104200000E116E000E106E000E0F6E000E0E6E70
:101052002DEF08F0084A092A08C0D9FF09C0DAFFB3
:10106200200EDE18D8B438EF08F03AEF08F02BEF74
:1010720008F0F70E0A6EFF0E0B6E08C0D9FF09C00A
:10108200DAFFDF500C6E0D6A0A500C260B500D224F
:101092000D5009E1050E0C5CD8A052EF08F054EF98
:1010A20008F02BEF08F05EEF08F0000E0F6E010E55
:1010B2000E6E084A092A93EF08F008C0D9FF09C04A
:1010C200DAFFDF500A6E0B6A0B50000AD8B46CEFDD
:1010D20008F093EF08F00A502B0AD8B45AEF08F040
:1010E200060AD8B456EF08F093EF08F010C001F0EA
:1010F20011C002F0000E046E0A0E036E3BEC0CF0FF
:1011020008C0D9FF09C0DAFFDF500A6E0A50015E3B
:10111200000E025A300E0124106E000E0220116ED3
:101122005AEF08F0D00E0A6EFF0E0B6E08C0D9FF00
:1011320009C0DAFFDF500C6E0D6A0A500C260B5004
:101142000D220D5009E10A0E0C5CD8A0ABEF08F09D
:10115200ADEF08F077EF08F00E500F10D8A4B4EFFF
:1011620008F0B6EF08F0C4EF08F010C00AF011C0A2
:101172000BF00A1E0B1E0A4A0B2A0AC008F00BC00B
:1011820009F0C8EF08F010C008F011C009F0120011
:1011920001C008F002C009F003C00AF004C00BF05D
:1011A2000506D8A00606052806E10628D8A4DCEF25
:1011B20008F0DEEF08F0EBEF08F0000E026E000E12
:1011C200016E37EF09F0084A092A0A4A0B2A050676
:1011D200D8A0060608C0F6FF09C0F7FF0800F550C0
:1011E2000009D8B4F7EF08F0F9EF08F025EF09F09D
:1011F2000AC0F6FF0BC0F7FF0800F5500009D8B48B
:1012020005EF09F007EF09F025EF09F00550061088
:10121200D8B40EEF09F010EF09F025EF09F008C07D
:10122200F6FF09C0F7FF0800F5CF07F00AC0F6FF86
:101232000BC0F7FF0800F5500718D8B423EF09F0E8
:1012420025EF09F0E4EF08F008C0F6FF09C0F7FF48
:101252000800F5CF07F00AC0F6FF0BC0F7FF080041
:10126200F550075C016E026AD8A002061200035014
:101272000410D8B43FEF09F041EF09F04AEF09F04A
:1012820003500410D8A448EF09F04AEF09F04FEFD9
:1012920009F00150A9EC0CF09CEF09F020EE09F0E6
:1012A2000350D9260450DA22DE50DE10D8B45CEFA7
:1012B20009F05EEF09F079EF09F020EE09F0035032
:1012C200D9260450DA2210EE03F00350E12604502E
:1012D200E222DE50E65CE650800A096EDE50800AA9
:1012E2000958D8B077EF09F079EF09F09CEF09F0CF
:1012F20020EE03F00350D9260450DA22DECF05F0A7
:10130200DDCF06F003C0D9FF04C0DAFFDECF07F05D
:10131200DDCF08F005500724D96E06500820DA6E9A
:1013220001C0DFFF20EE03F00350D9260450DA2279
:10133200DE2A000EDD2212005EA0A2EF09F0A4EF69
:1013420009F0AEEF09F013C00AF014C00BF011C09F
:101352000CF012C00DF053EC0BF016BEB3EF09F017
:10136200B5EF09F0BBEF09F015C01AF016C01BF07B
:10137200BFEF09F0000E1B6E000E1A6E000E196E02
:10138200000E186ED1EF09F0000E026E200E016EF3
:1013920011C003F012C004F038EC09F0184A192AFF
:1013A2001A50185C1950800A176E1B50800A175881
:1013B200D8A0DEEF09F0E0EF09F0C5EF09F05EB06A
:1013C200E5EF09F0E7EF09F0F1EF09F013C00AF0D9
:1013D20014C00BF011C00CF012C00DF053EC0BF066
:1013E20013C001F014C002F008EC0BF01A500124F3
:1013F200116E1B500220126E12008AEC0CF0010ECC
:10140200026E060E036E87EC0AF0690E016E000E84
:10141200026E060E036E2FEC0BF0690E086E000EC4
:10142200096E21EC08F008C066F009C067F0000EF2
:10143200056E000E046E66C006F067C007F060EC31
:101442000CF0000E036E000E026E4EEC0CF002C0A9
:1014520066F003C067F0690E0001BB6F000EBC6F3F
:10146200360EBD6F060EBE6F230EBF6F060EC06F27
:1014720066C0C1F067C0C2F0B6EC0AF0690E026E37
:10148200000E036E87EC0AF00D0E5D6EAF0E5C6E01
:10149200B60EE82EFED75C2EFCD75D2EFAD700F0F2
:1014A20000F000EF0AF000EF00F056C05AF057C00B
:1014B2005BF0000E0001616F000E606F74EF0AF0C6
:1014C20054C040F055C041F05A0E426E000E436EB9
:1014D20058C044F059C045F090EC04F0405000016F
:1014E2006027415061235AC0F6FF5BC0F7FF080036
:1014F200F5500009D8A480EF0AF082EF0AF061EFFC
:101502000AF060C054F061C055F012009DEF0AF07D
:1015120002C0F6FF03C0F7FFF86A050EF76403D0B6
:101522000800F55005D0F6CFE9FFF7CFEAFFEF50FC
:101532006BEC0CF0024A032A02C0F6FF03C0F7FF6D
:10154200F86A050EF76403D00800F55005D0F6CF0F
:10155200E9FFF7CFEAFFEF500009D8A4B3EF0AF092
:10156200B5EF0AF089EF0AF01200BF0E0001C36F57
:10157200000EC46FBBC0C5F0BCC0C6F0000EC96F80
:10158200000EC86F000ECF6F000ECE6FC50E546EE8
:10159200000E556EBDC056F0BEC057F0C30E586E59
:1015A200000E596E56EC0AF00001C851BB25D96EE7
:1015B200C951BC21DA6E000EDF6E1200010E076EF9
:1015C200200E01180210D8B4E9EF0AF0EBEF0AF08E
:1015D20004EF0BF0F70E036EFF0E046E01C005F070
:1015E20002C006F00350052604500622065009E107
:1015F200050E055CD8A000EF0BF002EF0BF004EF34
:101602000BF0000E076E07C001F0026A120001C063
:1016120003F002C004F010EF0BF0014A022A01C0ED
:10162200F6FF02C0F7FFF86A050EF76403D0080060
:10163200F55005D0F6CFE9FFF7CFEAFFEF500009EA
:10164200D8A426EF0BF028EF0BF00EEF0BF00350AF
:10165200015C016E04500258026E1200000E056E0B
:1016620049EF0BF076EC0CF00009D8A43BEF0BF03D
:101672003DEF0BF033EF0BF026EC0CF0046E01C0E3
:10168200D9FF02C0DAFF04C0DFFF014A022A052A9D
:101692000350055CD8A050EF0BF052EF0BF033EF84
:1016A2000BF01200000E106E000E0F6E64EF0BF0C6
:1016B2000EC001F0026A0CC003F00DC004F038EC59
:1016C20009F00F4A102A0F500A24D96E10500B202D
:1016D200DA6EDF500E6E0E50D8A472EF0BF074EF7C
:1016E2000BF059EF0BF0120014BE82EF0BF0145006
:1016F20006E11304D8B080EF0BF082EF0BF090EF0D
:101702000BF013C015F014C016F0151E161E154A64
:10171200162A15C013F016C014F094EF0BF013C084
:1017220013F014C014F01200026E000EF2BE010E8D
:10173200036E02C0A9FF01C0A8FFA69EA69CA684B4
:10174200F29E550EA76EAA0EA76EA682A6B2ACEFA7
:101752000BF0AEEF0BF0A7EF0BF0A69403B002D0A4
:10176200F29E01D0F28E1200080EB86E900EAB6E91
:10177200240EAC6E080EAF6E020EB06E000E016E3D
:10178200000E026E9BEC0CF0000E016E000E026E5B
:1017920096EC0CF0000E016E000E026EA0EC0CF046
:1017A200000E0001686F12004A0EF66E190EF76EF7
:1017B200000EF86E00EED0F010EE07F00900F5CF43
:1017C200EEFFE550E150FAE100EE60F05B0EEE6AEA
:1017D200E806FDE15F6A5E6A000EF86E0001FEEF48
:1017E20009F0D00E036EFF0E046E01C005F002C0B8
:1017F20006F0035005260450062206500AE10A0E9E
:10180200055CD8A007EF0CF00AEF0CF0010E0BEF0D
:101812000CF0000E016E026A1200000E8D6E000EB8
:101822008C6E000E896E000E8A6E000E8B6E070E95
:10183200966E92689368BF0E946E95687E681F0ECE
:101842007F6E000E7C6EF18E12009EAA2BEF0CF0C2
:101852002DEF0CF026EF0CF0000E0001686FABA22A
:1018620035EF0CF037EF0CF039EF0CF0AB98AB889A
:10187200AE50120001500302F3CF05F0F4CF06F090
:1018820001500402F350062602500302F3500626CA
:1018920005C001F006C002F01200022880EC0CF034
:1018A200046E025080EC0CF0056E0550076E066A5D
:1018B20004500624026E000E0720036E1200075029
:1018C200016E045095EC0BF006C001F0042895EC73
:1018D2000BF01200016E9EA871EF0CF073EF0CF08A
:1018E2006CEF0CF001C0ADFF12009EBA7BEF0CF062
:1018F2007EEF0CF0010E7FEF0CF0000E1200016E75
:1019020001C0A9FFA69CA69EA68000F000F0A850E8
:1019120012000EEC0CF091EC0CF0B5EC0BF0120096
:10192200600ED36E000E9B6E120001C0D9F002C091
:10193200DAF0120001C0DBF002C0DCF0120001C0DC
:0F194200D7F002C0D8F01200286E756C6C290027
:02195200120081
:020000040020DA
:08000000FFFFFFFFFFFFFFFF00
:020000040030CA
:0E000000FF021F1EFF8B81FF0FC00FE00F409D
:00000001FF
