:04000000E7EF04F032
:10060000000D0A57656C636F6D6520746F20746808
:100610006520525332333220496E746572666163CD
:1006200065000D0A496E707574203520636861722B
:100630006163746572733A20000D0A4368617261E8
:100640006374657220496E7075743A2000257320BA
:10065000256320256320256320256320256300284A
:070660006E756C6C290000AF
:100668003D0E496E000E4A6EC1EF03F0250E4D187F
:10067800D8B441EF03F043EF03F04DEF03F039C076
:10068800D9FF3AC0DAFF4DC0DFFF394A3A2AC1EF35
:1006980003F0A9EF03F049C0D9FF4AC0DAFFDECF63
:1006A8004BF0DDCF4CF0020E4926000E4A224B508B
:1006B8004C10D8A462EF03F064EF03F083EF03F06B
:1006C8005F0E4B6E060E4C6E83EF03F04BC0F6FFC9
:1006D8004CC0F7FFF86A39C0D9FF3AC0DAFF050EF7
:1006E800F76403D00800F55005D0F6CFE9FFF7CF3F
:1006F800EAFFEF50DF6E4B4A4C2A394A3A2A4BC080
:10070800F6FF4CC0F7FFF86A050EF76403D008003F
:10071800F55005D0F6CFE9FFF7CFEAFFEF50000913
:10072800D8A499EF03F09BEF03F06AEF03F0C1EF51
:1007380003F049C0D9FF4AC0DAFFDF504D6E020E00
:100748004926000E4A2243EF03F03BC0F6FF3CC0A7
:10075800F7FF3B4A3C2A0800F5CF4DF04D50000A00
:10076800D8B4D2EF03F0630AD8B49DEF03F0100AAF
:10077800D8B44FEF03F043EF03F03BC0F6FF3CC0A3
:10078800F7FF3B4A3C2A0800F5CF4DF04D50D8A45E
:10079800D0EF03F0D2EF03F03AEF03F039C0D9FFFE
:1007A8003AC0DAFF000EDF6E120011EC05F0010E00
:1007B8003A6E060E3B6E21EC04F0220E3A6E060EDF
:1007C8003B6E21EC04F0340E396E000E3A6E050EC5
:1007D8003B6E64EC04F0020E396E000E3A6E4D0E5C
:1007E8003B6E060E3C6E390E3D6E060E3E6E34C0F4
:1007F8003FF0406A35C041F0426A36C043F0446A6F
:1008080037C045F0466A38C047F0486A34EC03F010
:10081800020E3A6E000E3B6E21EC04F0020E4F6E93
:10082800450E4E6EAA0EE82EFED74E2EFCD74F2E42
:10083800FAD7E1EF03F000EF00F0BFEC04F0000995
:10084800D8B429EF04F02BEF04F021EF04F041EFC6
:1008580004F03AC0F6FF3BC0F7FFF86A050EF764EC
:1008680003D00800F55005D0F6CFE9FFF7CFEAFF2F
:10087800EF50F2EC04F03A4A3B2A3AC0F6FF3BC08C
:10088800F7FFF86A050EF76403D00800F55005D0A5
:10089800F6CFE9FFF7CFEAFFEF500009D8A457EFEA
:1008A80004F059EF04F02DEF04F0FDEC04F000091A
:1008B800D8B461EF04F063EF04F059EF04F01200CC
:1008C800000E3D6E7EEF04F007EC05F00009D8A499
:1008D80070EF04F072EF04F068EF04F0D3EC04F06A
:1008E8003C6E39C0D9FF3AC0DAFF3CC0DFFF394A55
:1008F8003A2A3D2A3B503D5CD8A085EF04F087EFAB
:1009080004F068EF04F01200080EB86E900EAB6E9B
:10091800240EAC6E080EAF6E020EB06E000E396E6D
:10092800000E3A6E22EC05F0000E396E000E3A6E9B
:100938001DEC05F0000E396E000E3A6E27EC05F03E
:10094800000E016E1200000E8D6E000E8C6E000EF1
:10095800896E000E8A6E000E8B6E070E966E926878
:100968009368BF0E946E95687E681F0E7F6E000EAA
:100978007C6EF18E1200000E396E9EA8C6EF04F050
:10098800C8EF04F0D1EF04F0ACAACDEF04F0CFEF3C
:1009980004F0D1EF04F0010E396E395012009EAA0E
:1009A800D8EF04F0DAEF04F0D3EF04F0000E016E94
:1009B800ABA2E1EF04F0E3EF04F0E5EF04F0AB984D
:1009C800AB88AE50120000EE01F0380EEE6AE80671
:1009D800FDE1000EF86E0001D9EF03F0396E9EA814
:1009E800F8EF04F0FAEF04F0F3EF04F039C0ADFFCC
:1009F8001200ACB202EF05F005EF05F0010E06EFAC
:100A080005F0000E12009EBA0CEF05F00FEF05F08E
:100A1800010E10EF05F0000E1200A7EC04F018EC20
:100A280005F088EC04F01200600ED36E000E9B6E89
:100A3800120039C052F03AC053F0120039C054F0D5
:100A48003AC055F0120039C050F03AC051F01200C7
:020000040020DA
:08000000FFFFFFFFFFFFFFFF00
:020000040030CA
:0E000000FF021F1EFF8B81FF0FC00FE00F409D
:00000001FF
