:0400000034EF0DF0DC
:10060000000D0A20456E74657220454550524F4DCD
:100610002044617461204E756D626572203A20003D
:100620000D0A20454550524F4D2056616C7565208E
:100630003A2000257320256C69006C6C73006C6493
:10064000000042C0D9FF43C0DAFFDECFF6FFDDCFA6
:10065000F7FF0800F550250AD8A431EF03F033EF77
:1006600003F0CDEF04F042C0D9FF43C0DAFFDE2A29
:10067000000EDD22000E00016B6F000E6A6F6AC073
:100680006EF06BC06FF06C696D6942C0D9FF43C0FA
:10069000DAFFDECFF6FFDDCFF7FF0800F550640A82
:1006A000D8B455EF03F057EF03F069EF03F042C001
:1006B000D9FF43C0DAFFDECFF6FFDDCFF7FF08003A
:1006C000F550690AD8A467EF03F069EF03F0A9EFCA
:1006D00003F042C0D9FF43C0DAFFDE2A000EDD225C
:1006E00044C0D9FF45C0DAFFDFCF46F0020EDE2658
:1006F000DFCF47F0000EDD2246C0D9FF47C0DAFF4A
:10070000DECF58F0DDCF59F0000E59BEFF0E5A6E05
:100710005B6E5C6E5D6E5E6E5F6E40C01CF041C0D5
:100720001DF058C01EF059C01FF05AC020F05BC029
:1007300021F05CC022F05DC023F05EC024F05FC0F9
:1007400025F0E9EC04F01CC040F01DC041F0E8EFDA
:1007500004F042C0D9FF43C0DAFFDECF01F0DDCFA5
:1007600002F03E0E036E060E046E000E066E020EC2
:10077000056E6DEC09F001500210D8B4C2EF03F021
:10078000C4EF03F0DFEF03F042C0D9FF43C0DAFF4C
:10079000DECF01F0DDCF02F0370E036E060E046EE1
:1007A000000E066E020E056E6DEC09F0015002108F
:1007B000D8A4DDEF03F0DFEF03F022EF04F0020E28
:1007C00042C0D9FF43C0DAFFDE26000EDD2244C05E
:1007D000D9FF45C0DAFFDFCF46F0040EDE26DFCFBB
:1007E00047F0000EDD2246C0D9FF47C0DAFFDECF5A
:1007F00048F0DECF49F0DECF4AF0DECF4BF048C004
:100800004CF049C04DF04AC04EF04BC04FF0506A1A
:100810004FBE506850C051F050C052F050C053F01D
:100820004CC058F04DC059F04EC05AF04FC05BF06C
:1008300050C05CF051C05DF052C05EF053C05FF03C
:100840008DEF03F042C0D9FF43C0DAFFDECFF6FFE1
:10085000DDCFF7FF0800F550730AD8B432EF04F08B
:1008600034EF04F04FEF04F042C0D9FF43C0DAFF89
:10087000DECF01F0DDCF02F03A0E036E060E046EFD
:10088000000E066E030E056E6DEC09F001500210AD
:10089000D8A44DEF04F04FEF04F097EF04F042C0FE
:1008A000D9FF43C0DAFFDECFF6FFDDCFF7FF080048
:1008B000F550730AD8B45FEF04F061EF04F067EF0E
:1008C00004F0000E576E030E566E6BEF04F0000E30
:1008D000576E010E566E42C0D9FF43C0DAFF565024
:1008E000DE265750DD2244C0D9FF45C0DAFFDFCFF6
:1008F00046F0020EDE26DFCF47F0000EDD2246C0B6
:10090000D9FF47C0DAFFDECF54F0DDCF55F040C04D
:100910000AF041C00BF054C00CF055C00DF029ECAA
:1009200007F00AC040F00BC041F0E8EF04F042C00D
:10093000D9FF43C0DAFFDECFF6FFDDCFF7FF0800B7
:10094000F550250AD8A4A7EF04F0A9EF04F0C0EFF2
:1009500004F042C0D9FF43C0DAFFDE2A000EDD22D8
:10096000000E026E250E016E40C003F041C004F07F
:1009700044EC0AF0000E416E010E406EE8EF04F008
:1009800042C0D9FF43C0DAFFDE2A000EDD22000E8E
:10099000416E000E406EE8EF04F042C0D9FF43C044
:1009A000DAFFDECFF6FFDDCFF7FF0800F550016E6E
:1009B000026A40C003F041C004F044EC0AF042C0B7
:1009C000D9FF43C0DAFFDE2A000EDD22BAEF04F0C1
:1009D00012001EC036F01FC037F020C038F021C012
:1009E00039F022C03AF023C03BF024C03CF025C0CF
:1009F0003DF03DBEFEEF04F001EF05F0010E02EF09
:100A000005F0000E346E356A34503510D8B40BEF53
:100A100005F00DEF05F01DEF05F03D1E3C1E3B1EE1
:100A20003A1E391E381E371E366C000E3722382209
:100A300039223A223B223C223D2200016DBF23EFA6
:100A400005F025EF05F026EF05F06E936DBF33EF4F
:100A500005F06D5106E16C05D8B031EF05F033EFCC
:100A600005F039EF05F0000E316E010E306E3DEFEE
:100A700005F06CC030F06DC031F06AC032F06BC070
:100A800033F034503510D8A448EF05F04AEF05F0A4
:100A900051EF05F06EA54FEF05F051EF05F054EF63
:100AA00005F03206D8A03306000E3F6E1F0E3E6ED4
:100AB000000EC26FD8EF05F03E06D8A03F06A30E89
:100AC0003E24D96E000E3F20DA6E36C001F037C0EA
:100AD00002F038C003F039C004F03AC005F03BC062
:100AE00006F03CC007F03DC008F00A0E096E000E8B
:100AF0000A6E000E0B6E000E0C6E000E0D6E000ED8
:100B00000E6E000E0F6E000E106EBBEC08F001C0F2
:100B100026F002C027F003C028F004C029F005C069
:100B20002AF006C02BF007C02CF008C02DF026C01C
:100B300013F028C014F0D8EC0CF01350300FDF6E17
:100B40003006D8A031063206D8A0330636C001F0F0
:100B500037C002F038C003F039C004F03AC005F0E5
:100B60003BC006F03CC007F03DC008F00A0E096E1D
:100B7000000E0A6E000E0B6E000E0C6E000E0D6E57
:100B8000000E0E6E000E0F6E000E106EF7EC07F0EA
:100B900001C036F002C037F003C038F004C039F0AD
:100BA00005C03AF006C03BF007C03CF008C03DF07D
:100BB0003FBEE3EF05F03F5008E13E04D8A0E3EF6D
:100BC00005F0E5EF05F016EF06F036503710381057
:100BD00039103A103B103C103D10D8A4F2EF05F04C
:100BE000F4EF05F05CEF05F031BE01EF06F0315097
:100BF00006E13004D8B0FFEF05F001EF06F05CEF3E
:100C000005F033BE0CEF06F0335008E13204D8A0F3
:100C10000CEF06F00EEF06F016EF06F000016EB3D3
:100C200014EF06F016EF06F05CEF05F034503510C7
:100C3000D8A41DEF06F01FEF06F027EF06F0000125
:100C40006EA525EF06F027EF06F045EF06F03E060D
:100C5000D8A03F0634503510D8A431EF06F033EF5A
:100C600006F039EF06F0000E2F6E2B0E2E6E3DEFC4
:100C700006F0000E2F6E2D0E2E6EA30E3E24D96EA2
:100C8000000E3F20DA6E2EC0DFFF1CC011F01DC029
:100C900012F0A30E3E24136E000E3F20146E32C0DD
:100CA00015F033C016F0A9EC0AF011C01CF012C008
:100CB0001DF01200000E186E000E196E000E1A6E56
:100CC000000E1B6E000E176E000E166E6AEF06F019
:100CD0000D4A0E2A0DC0D9FF0EC0DAFF200EDE1815
:100CE000D8B475EF06F077EF06F068EF06F0F70E70
:100CF000116EFF0E126E0DC0D9FF0EC0DAFFDF506D
:100D0000136E146A1150132612501422145009E164
:100D1000050E135CD8A08FEF06F091EF06F068EF98
:100D200006F09BEF06F0000E176E010E166E0D4AD0
:100D30000E2AE2EF06F00DC0D9FF0EC0DAFFDF5039
:100D4000116E126A1250000AD8B4A9EF06F0E2EF51
:100D500006F011502B0AD8B497EF06F0060AD8B463
:100D600093EF06F0E2EF06F00DC0D9FF0EC0DAFFF8
:100D7000DF50116ED00E1124126E136AFF0E132273
:100D8000146A156A18C001F019C002F01AC003F005
:100D90001BC004F00A0E056E000E066E000E076EF4
:100DA000000E086E64EC0BF01250015C186E1350CC
:100DB0000258196E145003581A6E155004581B6EC1
:100DC00097EF06F0D00E116EFF0E126E0DC0D9FF18
:100DD0000EC0DAFFDF50136E146A11501326125042
:100DE0001422145009E10A0E135CD8A0FAEF06F0A1
:100DF000FCEF06F0B4EF06F016501710D8A403EF7E
:100E000007F005EF07F020EF07F018C011F019C048
:100E100012F01AC013F01BC014F0111E121E131E84
:100E2000141E112A000E12221322142211C00DF0DA
:100E300012C00EF013C00FF014C010F028EF07F02E
:100E400018C00DF019C00EF01AC00FF01BC010F042
:100E5000120020EEE4F010EE0FF0060EDBCFE3FF01
:100E6000E806FCE20CC01AF00DC01BF01A501B1073
:100E7000D8A43DEF07F03FEF07F043EF07F00F0E68
:100E80001A6E000E1B6E1AC001F01BC002F04BEC74
:100E90000CF001C01EF002C01FF06CC01CF06DC051
:100EA0001DF01DBE56EF07F058EF07F06DEF07F08D
:100EB0001E501C5C1D50800A0E6E1F50800A0E587A
:100EC000D8A065EF07F067EF07F069EF07F06DEF67
:100ED00007F01CC01EF01DC01FF01EC01CF01FC07C
:100EE0001DF06AC018F06BC019F000016EB17BEF05
:100EF00007F07DEF07F09AEF07F08BEF07F0000E99
:100F0000026E200E016E0AC003F00BC004F044EC28
:100F10000AF01E4A1F2A18501E5C1F50800A0E6ECF
:100F20001950800A0E58D8A098EF07F09AEF07F0F2
:100F30007FEF07F0000E176E000E166EBEEF07F083
:100F40001AC0F6FF1BC0F7FFF86A050EF76403D05E
:100F50000800F55005D0F6CFE9FFF7CFEAFFEF50D4
:100F60000E6E0E50016E026A0AC003F00BC004F050
:100F700044EC0AF01A4A1B2A164A172A1C50165C1F
:100F80001750800A0E6E1D50800A0E58D8A0CBEF65
:100F900007F0CDEF07F0A0EF07F000016EA1D3EF4F
:100FA00007F0D5EF07F0F2EF07F0E3EF07F0000EE0
:100FB000026E200E016E0AC003F00BC004F044EC78
:100FC0000AF01E4A1F2A18501E5C1F50800A0E6E1F
:100FD0001950800A0E58D8A0F0EF07F0F2EF07F092
:100FE000D7EF07F01EC00AF01FC00BF01200000E72
:100FF000126E10BE00EF08F0FEEF07F012EF08F0DF
:10100000101E0F1E0E1E0D1E0C1E0B1E0A1E096C3E
:10101000000E0A220B220C220D220E220F22102279
:10102000010E126E08BE19EF08F017EF08F02BEF53
:1010300008F0081E071E061E051E041E031E021EC3
:10104000016C000E0222032204220522062207223E
:101050000822010E121A20EE13F0070EDE6AE806CF
:10106000FDE209500A100B100C100D100E100F109D
:101070001010D8B43EEF08F040EF08F092EF08F0FF
:10108000010E116E4EEF08F0D89009360A360B3675
:101090000C360D360E360F361036112A10AE53EFC1
:1010A00008F055EF08F044EF08F0D89013361436E6
:1010B000153616361736183619361A360950015CA9
:1010C0000A5002580B5003580C5004580D50055844
:1010D0000E5006580F50075810500858D8A073EFFC
:1010E00008F075EF08F086EF08F00950015E0A502D
:1010F000025A0B50035A0C50045A0D50055A0E5008
:10110000065A0F50075A1050085A1380D8901032C0
:101110000F320E320D320C320B320A320932112EDE
:1011200055EF08F01250D8B498EF08F09AEF08F095
:10113000AAEF08F01A1E191E181E171E161E151EDD
:10114000141E136C000E14221522162217221822C8
:1011500019221A2213C001F014C002F015C003F0C6
:1011600016C004F017C005F018C006F019C007F04B
:101170001AC008F01200000E126E08BEC4EF08F08C
:10118000C2EF08F0D6EF08F0081E071E061E051E67
:10119000041E031E021E016C000E02220322042202
:1011A0000522062207220822010E126E10BEDDEF74
:1011B00008F0DBEF08F0EDEF08F0101E0F1E0E1E1A
:1011C0000D1E0C1E0B1E0A1E096C000E0A220B229D
:1011D0000C220D220E220F22102209500A100B1091
:1011E0000C100D100E100F101010D8B4FAEF08F0FC
:1011F000FCEF08F044EF09F0010E116E0AEF09F060
:10120000D89009360A360B360C360D360E360F36A8
:101210001036112A10AE0FEF09F011EF09F000EFB0
:1012200009F00950015C0A5002580B5003580C5049
:1012300004580D5005580E5006580F5007581050BE
:101240000858D8A026EF09F028EF09F038EF09F088
:101250000950015E0A50025A0B50035A0C50045AAE
:101260000D50055A0E50065A0F50075A1050085A82
:10127000D89010320F320E320D320C320B320A324D
:101280000932112E11EF09F01250D8B44AEF09F0CB
:101290004CEF09F05CEF09F0081E071E061E051E44
:1012A000041E031E021E016C000E022203220422F1
:1012B000052206220722082201C001F002C002F026
:1012C00003C003F004C004F005C005F006C006F03A
:1012D00007C007F008C008F0120001C008F002C003
:1012E00009F003C00AF004C00BF00506D8A00606FA
:1012F000052806E10628D8A480EF09F082EF09F05E
:101300008FEF09F0000E026E000E016EDBEF09F0A8
:10131000084A092A0A4A0B2A0506D8A0060608C068
:10132000F6FF09C0F7FF0800F5500009D8B49BEF9D
:1013300009F09DEF09F0C9EF09F00AC0F6FF0BC0F4
:10134000F7FF0800F5500009D8B4A9EF09F0ABEF9A
:1013500009F0C9EF09F005500610D8B4B2EF09F052
:10136000B4EF09F0C9EF09F008C0F6FF09C0F7FFB4
:101370000800F5CF07F00AC0F6FF0BC0F7FF080022
:10138000F5500718D8B4C7EF09F0C9EF09F088EF96
:1013900009F008C0F6FF09C0F7FF0800F5CF07F015
:1013A0000AC0F6FF0BC0F7FF0800F550075C016E9E
:1013B000026AD8A002061200B2EC0DF0010E026E15
:1013C000060E036ECAEC0BF0710E016E000E026E7B
:1013D0000B0E036E72EC0CF0710E0D6E000E0E6EA5
:1013E0005AEC06F00DC064F00EC065F00FC066F058
:1013F00010C067F0000E056E000E046E64C006F0AB
:1014000065C007F066C008F067C009F067EC0DF032
:10141000000E036E000E026E0CEC0BF002C060F0CA
:1014200003C061F004C062F005C063F0710E0001FA
:10143000CB6F000ECC6F330ECD6F060ECE6F200E2D
:10144000CF6F060ED06F60C0D1F061C0D2F062C025
:10145000D3F063C0D4F0F9EC0BF0710E026E000E05
:10146000036ECAEC0BF00D0E0001E36FAF0EE26FDE
:10147000B60EE82EFED7E22FFCD7E32FFAD700F006
:10148000DEEF09F000EF00F003500410D8B44BEF8A
:101490000AF04DEF0AF056EF0AF003500410D8A4FA
:1014A00054EF0AF056EF0AF05BEF0AF00150D1EC6E
:1014B0000DF0A8EF0AF020EE09F00350D9260450F1
:1014C000DA22DE50DE10D8B468EF0AF06AEF0AF0D4
:1014D00085EF0AF020EE09F00350D9260450DA22F5
:1014E00010EE03F00350E1260450E222DE50E65CE9
:1014F000E650800A096EDE50800A0958D8B083EFA2
:101500000AF085EF0AF0A8EF0AF020EE03F003508E
:10151000D9260450DA22DECF05F0DDCF06F003C075
:10152000D9FF04C0DAFFDECF07F0DDCF08F00550A9
:101530000724D96E06500820DA6E01C0DFFF20EEC6
:1015400003F00350D9260450DA22DE2A000EDD22F1
:10155000120000016EA1AFEF0AF0B1EF0AF0BBEF8D
:101560000AF013C00AF014C00BF011C00CF012C046
:101570000DF096EC0CF016BEC0EF0AF0C2EF0AF0C8
:10158000C8EF0AF015C01AF016C01BF0CCEF0AF035
:10159000000E1B6E000E1A6E000E196E000E186EF5
:1015A000DEEF0AF0000E026E200E016E11C003F095
:1015B00012C004F044EC0AF0184A192A1A50185CB8
:1015C0001950800A176E1B50800A1758D8A0EBEFED
:1015D0000AF0EDEF0AF0D2EF0AF000016EB1F3EF7E
:1015E0000AF0F5EF0AF0FFEF0AF013C00AF014C09A
:1015F0000BF011C00CF012C00DF096EC0CF013C003
:1016000001F014C002F04BEC0CF01A500124116EE2
:101610001B500220126E12000250020F9EEC0DF0C1
:10162000066E06C007F0086A096A0A6A09C00AF06D
:1016300008C009F007C008F0076A02289EEC0DF008
:101640000B6E0BC00CF00D6A0E6A0F6A0DC00FF026
:101650000CC00EF00D6A0C6A02509EEC0DF0106E7C
:1016600010C011F0126A136A146A11C014F0136AE0
:10167000126A116A0C501124156E0D501220166E4C
:101680000E501320176E0F501420186E075015249B
:10169000196E085016201A6E095017201B6E0A503A
:1016A00018201C6E0250030F9EEC0DF01D6E1D5095
:1016B0001924026E000E1A20036E000E1B20046E09
:1016C000000E1C20056E1200000E096E000E0A6E40
:1016D000000E0B6E000E0C6E01A071EF0BF073EF9D
:1016E0000BF07BEF0BF00550092606500A2207503D
:1016F0000B2208500C22D8900536063607360836DD
:10170000D890043203320232013201500210031029
:101710000410D8A48EEF0BF090EF0BF06CEF0BF0F1
:1017200009C001F00AC002F00BC003F00CC004F0C5
:101730001200C5C0C9F0C6C0CAF0000E0001696F32
:10174000000E686FB7EF0BF0C3C040F0C4C041F0AB
:10175000C90E426E000E436EC7C044F0C8C045F0CB
:1017600021EC03F040500001682741506923C9C0B3
:10177000F6FFCAC0F7FF0800F5500009D8A4C3EF70
:101780000BF0C5EF0BF0A4EF0BF068C0C3F069C01D
:10179000C4F01200E0EF0BF002C0F6FF03C0F7FF49
:1017A000F86A050EF76403D00800F55005D0F6CFAF
:1017B000E9FFF7CFEAFFEF5093EC0DF0024A032A5E
:1017C00002C0F6FF03C0F7FFF86A050EF76403D006
:1017D0000800F55005D0F6CFE9FFF7CFEAFFEF504C
:1017E0000009D8A4F6EF0BF0F8EF0BF0CCEF0BF0FC
:1017F0001200CF0E0001D56F000ED66FCBC0D7F010
:10180000CCC0D8F0000EDB6F000EDA6F000EE16F77
:10181000000EE06FD70EC36F000EC46FCDC0C5F0D1
:10182000CEC0C6F0D50EC76F000EC86F99EC0BF096
:101830000001DA51CB25D96EDB51CC21DA6E000ED6
:10184000DF6E1200010E076E200E01180210D8B4D0
:101850002CEF0CF02EEF0CF047EF0CF0F70E036EB0
:10186000FF0E046E01C005F002C006F0035005260D
:1018700004500622065009E1050E055CD8A043EF8E
:101880000CF045EF0CF047EF0CF0000E076E07C0B0
:1018900001F0026A120001C003F002C004F053EF2D
:1018A0000CF0014A022A01C0F6FF02C0F7FFF86AF5
:1018B000050EF76403D00800F55005D0F6CFE9FF18
:1018C000F7CFEAFFEF500009D8A469EF0CF06BEFF7
:1018D0000CF051EF0CF00350015C016E0450025803
:1018E000026E1200000E056E8CEF0CF0A8EC0DF0ED
:1018F0000009D8A47EEF0CF080EF0CF076EF0CF02E
:101900007EEC0DF0046E01C0D9FF02C0DAFF04C006
:10191000DFFF014A022A052A0350055CD8A093EF95
:101920000CF095EF0CF076EF0CF01200000E106E3C
:10193000000E0F6EA7EF0CF00EC001F0026A0CC093
:1019400003F00DC004F044EC0AF00F4A102A0F50C7
:101950000A24D96E10500B20DA6EDF500E6E0E5036
:10196000D8A4B5EF0CF0B7EF0CF09CEF0CF0120020
:10197000026E000EF2BE010E036E02C0A9FF01C08E
:10198000A8FFA69EA69CA684F29E550EA76EAA0E40
:10199000A76EA682A6B2CFEF0CF0D1EF0CF0CAEF83
:1019A0000CF0A69403B002D0F29E01D0F28E120089
:1019B00014BEE5EF0CF0145006E11304D8B0E3EFC9
:1019C0000CF0E5EF0CF0F3EF0CF013C015F014C0C1
:1019D00016F0151E161E154A162A15C013F016C04D
:1019E00014F0F7EF0CF013C013F014C014F0120051
:1019F000080EB86E900EAB6E240EAC6E080EAF6E75
:101A0000020EB06E000E016E000E026EC3EC0DF001
:101A1000000E016E000E026EBEEC0DF0000E016EA7
:101A2000000E026EC8EC0DF0000E0001706F120087
:101A3000D00E036EFF0E046E01C005F002C006F06A
:101A4000035005260450062206500AE10A0E055CE2
:101A5000D8A02DEF0DF030EF0DF0010E31EF0DF0AD
:101A6000000E016E026A12009A0EF66E1B0EF76EE1
:101A7000000EF86E00EEE4F010EE07F00900F5CF6E
:101A8000EEFFE550E150FAE100EE60F0630EEE6A21
:101A9000E806FDE1000EF86E0001DCEF09F0000E33
:101AA0008D6E000E8C6E000E896E000E8A6E000E1A
:101AB0008B6E070E966E92689368BF0E946E956853
:101AC0007E681F0E7F6E000E7C6EF18E120009C0C4
:101AD00001F00450B8EC0CF008C001F00428B8EC98
:101AE0000CF007C001F00450020FB8EC0CF006C077
:101AF00001F00450030FB8EC0CF012009EAA83EF23
:101B00000DF085EF0DF07EEF0DF0000E0001706F0F
:101B1000ABA28DEF0DF08FEF0DF091EF0DF0AB98C4
:101B2000AB88AE501200016E9EA899EF0DF09BEFAE
:101B30000DF094EF0DF001C0ADFF1200016E01C079
:101B4000A9FFA69CA69EA68000F000F0A850120057
:101B50009EBAADEF0DF0B0EF0DF0010EB1EF0DF04C
:101B6000000E12004FEC0DF0B9EC0DF0F8EC0CF09B
:101B70001200600ED36E000E9B6E120001C0EDF0DD
:101B800002C0EEF0120001C0EFF002C0F0F012004F
:101B900001C0EBF002C0ECF01200286E756C6C29ED
:011BA0000044
:021BA20012002F
:020000040020DA
:08000000FFFFFFFFFFFFFFFF00
:020000040030CA
:0E000000FF021F1EFF8B81FF0FC00FE00F409D
:00000001FF
