:0400000077EF0BF09B
:100600000054656D7065726174757265203A2000E2
:100610002044656772656573200A0D20004E6F20C7
:100620004572726F720A0D2000436865636B7375C3
:100630006D203A200048756D6964697479203A200C
:100640000025732025642E25642025730020672E45
:100650006D2D33200A0D2000257325642E25642579
:100660007300257325642573006C6C7300001EC035
:1006700036F01FC037F020C038F021C039F022C05A
:100680003AF023C03BF024C03CF025C03DF03DBE15
:100690004CEF03F04FEF03F0010E50EF03F0000EAC
:1006A000346E356A34503510D8B459EF03F05BEF2F
:1006B00003F06BEF03F03D1E3C1E3B1E3A1E391E3D
:1006C000381E371E366C000E3722382239223A2265
:1006D0003B223C223D22000165BF71EF03F073EF26
:1006E00003F074EF03F0669365BF81EF03F065518B
:1006F00006E16405D8B07FEF03F081EF03F087EFE8
:1007000003F0000E316E010E306E8BEF03F064C00B
:1007100030F065C031F062C032F063C033F0345065
:100720003510D8A496EF03F098EF03F09FEF03F095
:1007300066A59DEF03F09FEF03F0A2EF03F03206F2
:10074000D8A03306000E3F6E1F0E3E6E000EC06F27
:1007500026EF04F03E06D8A03F06A10E3E24D96E37
:10076000000E3F20DA6E36C001F037C002F038C00C
:1007700003F039C004F03AC005F03BC006F03CC0BD
:1007800007F03DC008F00A0E096E000E0A6E000E5A
:100790000B6E000E0C6E000E0D6E000E0E6E000E37
:1007A0000F6E000E106E89EC07F001C026F002C03B
:1007B00027F003C028F004C029F005C02AF006C0C5
:1007C0002BF007C02CF008C02DF026C013F028C075
:1007D00014F037EC0BF01350300FDF6E3006D8A05A
:1007E00031063206D8A0330636C001F037C002F019
:1007F00038C003F039C004F03AC005F03BC006F041
:100800003CC007F03DC008F00A0E096E000E0A6EEB
:10081000000E0B6E000E0C6E000E0D6E000E0E6EB6
:10082000000E0F6E000E106EC5EC06F001C036F023
:1008300002C037F003C038F004C039F005C03AF008
:1008400006C03BF007C03CF008C03DF03FBE31EFB2
:1008500004F03F5008E13E04D8A031EF04F033EF3C
:1008600004F064EF04F036503710381039103A10A5
:100870003B103C103D10D8A440EF04F042EF04F0D0
:10088000AAEF03F031BE4FEF04F0315006E130041F
:10089000D8B04DEF04F04FEF04F0AAEF03F033BEF1
:1008A0005AEF04F0335008E13204D8A05AEF04F0B4
:1008B0005CEF04F064EF04F0000166B362EF04F053
:1008C00064EF04F0AAEF03F034503510D8A46BEFB6
:1008D00004F06DEF04F075EF04F0000166A573EF0E
:1008E00004F075EF04F093EF04F03E06D8A03F0645
:1008F00034503510D8A47FEF04F081EF04F087EF77
:1009000004F0000E2F6E2B0E2E6E8BEF04F0000EF7
:100910002F6E2D0E2E6EA10E3E24D96E000E3F209E
:10092000DA6E2EC0DFFF1CC011F01DC012F0A10E48
:100930003E24136E000E3F20146E32C015F033C0FB
:1009400016F0C0EC09F011C01CF012C01DF012002E
:1009500042C0D9FF43C0DAFFDECFF6FFDDCFF7FF9D
:100960000800F550250AD8A4B8EF04F0BAEF04F057
:10097000DBEF05F042C0D9FF43C0DAFFDE2A000EEC
:10098000DD22000E0001636F000E626F62C066F030
:1009900063C067F06469656942C0D9FF43C0DAFF8C
:1009A000DECFF6FFDDCFF7FF0800F550640AD8B4BC
:1009B000DCEF04F0DEEF04F0F0EF04F042C0D9FF0A
:1009C00043C0DAFFDECFF6FFDDCFF7FF0800F550BA
:1009D000690AD8A4EEEF04F0F0EF04F030EF05F070
:1009E00042C0D9FF43C0DAFFDE2A000EDD2244C038
:1009F000D9FF45C0DAFFDFCF46F0020EDE26DFCF9B
:100A000047F0000EDD2246C0D9FF47C0DAFFDECF37
:100A100048F0DDCF49F0000E49BEFF0E4A6E4B6E26
:100A20004C6E4D6E4E6E4F6E40C01CF041C01DF0BE
:100A300048C01EF049C01FF04AC020F04BC021F052
:100A40004CC022F04DC023F04EC024F04FC025F022
:100A500037EC03F01CC040F01DC041F0F6EF05F08C
:100A600042C0D9FF43C0DAFFDECFF6FFDDCFF7FF8C
:100A70000800F550730AD8B440EF05F042EF05F0D6
:100A80005DEF05F042C0D9FF43C0DAFFDECF01F0D1
:100A9000DDCF02F0690E036E060E046E000E066EC8
:100AA000030E056EECEC08F001500210D8A45BEFC9
:100AB00005F05DEF05F0A5EF05F042C0D9FF43C09A
:100AC000DAFFDECFF6FFDDCFF7FF0800F550730A3F
:100AD000D8B46DEF05F06FEF05F075EF05F0000E7F
:100AE000536E030E526E79EF05F0000E536E010E39
:100AF000526E42C0D9FF43C0DAFF5250DE26535037
:100B0000DD2244C0D9FF45C0DAFFDFCF46F0020E38
:100B1000DE26DFCF47F0000EDD2246C0D9FF47C0FA
:100B2000DAFFDECF50F0DDCF51F040C00AF041C017
:100B30000BF050C00CF051C00DF0F7EC05F00AC0FE
:100B400040F00BC041F0F6EF05F042C0D9FF43C0C2
:100B5000DAFFDECFF6FFDDCFF7FF0800F550250AFC
:100B6000D8A4B5EF05F0B7EF05F0CEEF05F042C021
:100B7000D9FF43C0DAFFDE2A000EDD22000E026E2E
:100B8000250E016E40C003F041C004F05BEC09F09B
:100B9000000E416E010E406EF6EF05F042C0D9FF27
:100BA00043C0DAFFDE2A000EDD22000E416E000E89
:100BB000406EF6EF05F042C0D9FF43C0DAFFDECF4A
:100BC000F6FFDDCFF7FF0800F550016E026A40C066
:100BD00003F041C004F05BEC09F042C0D9FF43C010
:100BE000DAFFDE2A000EDD22C8EF05F0120020EE4B
:100BF000DAF010EE0FF0060EDBCFE3FFE806FCE2C2
:100C00000CC01AF00DC01BF01A501B10D8A40BEF2B
:100C100006F00DEF06F011EF06F00F0E1A6E000E43
:100C20001B6E1AC001F01BC002F0EEEC0AF001C00E
:100C30001EF002C01FF064C01CF065C01DF01DBE98
:100C400024EF06F026EF06F03BEF06F01E501C5C8A
:100C50001D50800A0E6E1F50800A0E58D8A033EF28
:100C600006F035EF06F037EF06F03BEF06F01CC05C
:100C70001EF01DC01FF01EC01CF01FC01DF062C082
:100C800018F063C019F0000166B149EF06F04BEFB0
:100C900006F068EF06F059EF06F0000E026E200E27
:100CA000016E0AC003F00BC004F05BEC09F01E4AB1
:100CB0001F2A18501E5C1F50800A0E6E1950800AA1
:100CC0000E58D8A066EF06F068EF06F04DEF06F07C
:100CD000000E176E000E166E8CEF06F01AC0F6FFAF
:100CE0001BC0F7FFF86A050EF76403D00800F55043
:100CF00005D0F6CFE1FFF7CFE2FFE7500E6E0E50C2
:100D0000016E026A0AC003F00BC004F05BEC09F04C
:100D10001A4A1B2A164A172A1C50165C1750800ABA
:100D20000E6E1D50800A0E58D8A099EF06F09BEF6A
:100D300006F06EEF06F0000166A1A1EF06F0A3EF4A
:100D400006F0C0EF06F0B1EF06F0000E026E200EC6
:100D5000016E0AC003F00BC004F05BEC09F01E4A00
:100D60001F2A18501E5C1F50800A0E6E1950800AF0
:100D70000E58D8A0BEEF06F0C0EF06F0A5EF06F0C3
:100D80001EC00AF01FC00BF01200000E126E10BE43
:100D9000CEEF06F0CCEF06F0E0EF06F0101E0F1ECF
:100DA0000E1E0D1E0C1E0B1E0A1E096C000E0A22C2
:100DB0000B220C220D220E220F221022010E126E87
:100DC00008BEE7EF06F0E5EF06F0F9EF06F0081EC3
:100DD000071E061E051E041E031E021E016C000EC9
:100DE0000222032204220522062207220822010EE3
:100DF000121A20EE13F0070EDE6AE806FDE2095033
:100E00000A100B100C100D100E100F101010D8B48B
:100E10000CEF07F00EEF07F060EF07F0010E116E18
:100E20001CEF07F0D89009360A360B360C360D3613
:100E30000E360F361036112A10AE21EF07F023EFD1
:100E400007F012EF07F0D890133614361536163621
:100E50001736183619361A360950015C0A500258EE
:100E60000B5003580C5004580D5005580E5006589E
:100E70000F50075810500858D8A041EF07F043EF23
:100E800007F054EF07F00950015E0A50025A0B5068
:100E9000035A0C50045A0D50055A0E50065A0F5062
:100EA000075A1050085A1380D89010320F320E3261
:100EB0000D320C320B320A320932112E23EF07F0B9
:100EC0001250D8B466EF07F068EF07F078EF07F03C
:100ED0001A1E191E181E171E161E151E141E136C20
:100EE000000E1422152216221722182219221A2265
:100EF00013C001F014C002F015C003F016C004F0D6
:100F000017C005F018C006F019C007F01AC008F0A5
:100F10001200000E126E08BE92EF07F090EF07F07D
:100F2000A4EF07F0081E071E061E051E041E031E62
:100F3000021E016C000E0222032204220522062258
:100F400007220822010E126E10BEABEF07F0A9EFC8
:100F500007F0BBEF07F0101E0F1E0E1E0D1E0C1E1D
:100F60000B1E0A1E096C000E0A220B220C220D22F7
:100F70000E220F22102209500A100B100C100D1017
:100F80000E100F101010D8B4C8EF07F0CAEF07F01A
:100F900012EF08F0010E116ED8EF07F0D890093665
:100FA0000A360B360C360D360E360F361036112A31
:100FB00010AEDDEF07F0DFEF07F0CEEF07F00950DE
:100FC000015C0A5002580B5003580C5004580D5045
:100FD00005580E5006580F50075810500858D8A002
:100FE000F4EF07F0F6EF07F006EF08F00950015EA6
:100FF0000A50025A0B50035A0C50045A0D50055A0D
:101000000E50065A0F50075A1050085AD8901032F6
:101010000F320E320D320C320B320A320932112EDF
:10102000DFEF07F01250D8B418EF08F01AEF08F00D
:101030002AEF08F0081E071E061E051E041E031ECA
:10104000021E016C000E0222032204220522062247
:101050000722082201C001F002C002F003C003F021
:1010600004C004F005C005F006C006F007C007F094
:1010700008C008F0120005EC0CF0D5EC0BF0ABEC5E
:101080000BF097EC0AF000016B6F97EC0AF000018F
:101090006C6F97EC0AF00001696F97EC0AF00001A1
:1010A0006A6F97EC0AF00001686F6F0EC16F000E57
:1010B000C26F410EC36F060EC46F350EC56F060EAC
:1010C000C66F6BC0C7F0C86B6CC0C9F0CA6B4D0E61
:1010D000CB6F060ECC6FC5EC0AF06F0E026E000EE1
:1010E000036E23EC0AF06F0E0001C16F000EC26F99
:1010F000580EC36F060EC46F010EC56F060EC66F85
:1011000069C0C7F0C86B6AC0C9F0CA6B100ECB6F5C
:10111000060ECC6FC5EC0AF06F0E026E000E036E69
:1011200023EC0AF06F0E0001C16F000EC26F620E59
:10113000C36F060EC46F290EC56F060EC66F68C05A
:10114000C7F0C86B540EC96F060ECA6FC5EC0AF023
:101150006F0E026E000E036E23EC0AF00001685160
:101160005C6E5D6A6C516BC05EF05F6A5E26000E5D
:101170005F2269515E26000E5F226A515E26000ED4
:101180005F225C505E1809E15D505F18D8B4CBEF68
:1011900008F0CDEF08F0D5EF08F0200E026E060E35
:1011A000036E23EC0AF0DBEF08F01D0E026E060E54
:1011B000036E23EC0AF00D0E5D6EAF0E5C6EB60E84
:1011C000E82EFED75C2EFCD75D2EFAD700F000F09B
:1011D0003DEF08F000EF00F001C008F002C009F098
:1011E00003C00AF004C00BF00506D8A006060528C7
:1011F00006E10628D8A4FFEF08F001EF09F00EEF92
:1012000009F0000E026E000E016E5AEF09F0084A56
:10121000092A0A4A0B2A0506D8A0060608C0F6FFC6
:1012200009C0F7FF0800F5500009D8B41AEF09F01B
:101230001CEF09F048EF09F00AC0F6FF0BC0F7FFFA
:101240000800F5500009D8B428EF09F02AEF09F09A
:1012500048EF09F005500610D8B431EF09F033EF2C
:1012600009F048EF09F008C0F6FF09C0F7FF0800D1
:10127000F5CF07F00AC0F6FF0BC0F7FF0800F550E6
:101280000718D8B446EF09F048EF09F007EF09F066
:1012900008C0F6FF09C0F7FF0800F5CF07F00AC045
:1012A000F6FF0BC0F7FF0800F550075C016E026AFD
:1012B000D8A00206120003500410D8B462EF09F05F
:1012C00064EF09F06DEF09F003500410D8A46BEF40
:1012D00009F06DEF09F072EF09F0015026EC0CF007
:1012E000BFEF09F020EE09F00350D9260450DA22AE
:1012F000DE50DE10D8B47FEF09F081EF09F09CEFEB
:1013000009F020EE09F00350D9260450DA2210EE3D
:1013100003F00350E1260450E222DE50E65CE65082
:10132000800A096EDE50800A0958D8B09AEF09F099
:101330009CEF09F0BFEF09F020EE03F00350D9262F
:101340000450DA22DECF05F0DDCF06F003C0D9FF6E
:1013500004C0DAFFDECF07F0DDCF08F00550072428
:10136000D96E06500820DA6E01C0DFFF20EE03F0D0
:101370000350D9260450DA22DE2A000EDD221200A4
:10138000000166A1C6EF09F0C8EF09F0D2EF09F03D
:1013900013C00AF014C00BF011C00CF012C00DF015
:1013A00015EC0BF016BED7EF09F0D9EF09F0DFEF1F
:1013B00009F015C01AF016C01BF0E3EF09F0000E9B
:1013C0001B6E000E1A6E000E196E000E186EF5EFF1
:1013D00009F0000E026E200E016E11C003F012C063
:1013E00004F05BEC09F0184A192A1A50185C1950DD
:1013F000800A176E1B50800A1758D8A002EF0AF017
:1014000004EF0AF0E9EF09F0000166B10AEF0AF013
:101410000CEF0AF016EF0AF013C00AF014C00BF03C
:1014200011C00CF012C00DF015EC0BF013C001F060
:1014300014C002F0EEEC0AF01A500124116E1B5099
:101440000220126E1200C1EC0BF00009D8B42BEF91
:101450000AF02DEF0AF023EF0AF043EF0AF002C082
:10146000F6FF03C0F7FFF86A050EF76403D0080023
:10147000F55005D0F6CFE1FFF7CFE2FFE750E6ECFD
:101480000BF0024A032A02C0F6FF03C0F7FFF86A16
:10149000050EF76403D00800F55005D0F6CFE1FF44
:1014A000F7CFE2FFE7500009D8A459EF0AF05BEF4D
:1014B0000AF02FEF0AF0F1EC0BF00009D8B463EF5B
:1014C0000AF065EF0AF05BEF0AF0120056C05AF01E
:1014D00057C05BF0000E0001616F000E606F84EF7B
:1014E0000AF054C040F055C041F05A0E426E000E52
:1014F000436E58C044F059C045F0A8EC04F0405089
:1015000000016027415061235AC0F6FF5BC0F7FF1E
:101510000800F5500009D8A490EF0AF092EF0AF005
:1015200071EF0AF060C054F061C055F01200000E77
:10153000026E000E016E80A0A0EF0AF0A2EF0AF08A
:101540009BEF0AF0320EE82EFED780A0AAEF0AF039
:10155000ACEF0AF0B0EF0AF0D8800236B3EF0AF031
:1015600002500224026E80B0B8EF0AF0BAEF0AF01F
:10157000B3EF0AF0012A070E0164C1EF0AF0C3EFCE
:101580000AF09BEF0AF002501200C50E0001CD6F69
:10159000000ECE6FC1C0CFF0C2C0D0F0000ED36F2E
:1015A000000ED26F000ED96F000ED86FCF0E546EA2
:1015B000000E556EC3C056F0C4C057F0CD0E586E25
:1015C000000E596E66EC0AF00001D251C125D96EA9
:1015D000D351C221DA6E000EDF6E120001C003F09B
:1015E00002C004F0F6EF0AF0014A022A01C0F6FF39
:1015F00002C0F7FFF86A050EF76403D00800F55043
:1016000005D0F6CFE1FFF7CFE2FFE7500009D8A4FD
:101610000CEF0BF00EEF0BF0F4EF0AF00350015C4F
:10162000016E04500258026E1200000E106E000E81
:101630000F6E26EF0BF00EC001F0026A0CC003F033
:101640000DC004F05BEC09F00F4A102A0F500A2479
:10165000D96E10500B20DA6EDF500E6E0E50D8A4EB
:1016600034EF0BF036EF0BF01BEF0BF0120014BE53
:1016700044EF0BF0145006E11304D8B042EF0BF026
:1016800044EF0BF052EF0BF013C015F014C016F03E
:10169000151E161E154A162A15C013F016C014F092
:1016A00056EF0BF013C013F014C014F01200080E24
:1016B000B86E900EAB6E240EAC6E080EAF6E020EBE
:1016C000B06E000E016E000E026E18EC0CF0000EF3
:1016D000016E000E026E13EC0CF0000E016E000E97
:1016E000026E1DEC0CF0000E00016E6F1200440E35
:1016F000F66E180EF76E000EF86E00EEDAF010EED1
:1017000007F00900F5CFEEFFE550E150FAE100EEF9
:1017100060F0610EEE6AE806FDE1000EF86E000171
:101720003BEF08F0000E8D6E000E8C6E000E896E81
:10173000000E8A6E000E8B6E070E966E926893688E
:10174000BF0E946E9568FE0E7E6E1F0E7F6E000EAD
:101750007C6EF18E120080B0B0EF0BF0B2EF0BF0A8
:10176000ABEF0BF080A0B7EF0BF0B9EF0BF0B2EFDF
:101770000BF080B0BEEF0BF0C0EF0BF0B9EF0BF049
:101780001200000E016E9EA8C8EF0BF0CAEF0BF01E
:10179000D3EF0BF0ACAACFEF0BF0D1EF0BF0D3EF00
:1017A0000BF0010E016E0150120092908990750E9F
:1017B000016EE10EE82EFED7012EFCD700F08980E5
:1017C000210EE82EFED700F092801200016E9EA836
:1017D000ECEF0BF0EEEF0BF0E7EF0BF001C0ADFF1D
:1017E0001200ACB2F6EF0BF0F9EF0BF0010EFAEFCE
:1017F0000BF0000E1200000ED76E000ED66E000E1B
:1018000000016D6FF294D568120092EC0BF00EECB3
:101810000CF0FBEC0BF057EC0BF01200300ED36E1B
:10182000000E9B6E120001C0E3F002C0E4F0120053
:1018300001C0E5F002C0E6F0120001C0E1F002C014
:0B184000E2F01200286E756C6C2900AD
:02184C00120088
:020000040020DA
:08000000FFFFFFFFFFFFFFFF00
:020000040030CA
:0E000000FF021F1EFF8B81FF0FC00FE00F409D
:00000001FF
