:0400000087EF3FF057
:107F0E000001ACEF3FF0600ED36E000E9B6E1200C0
:107F1E0094EC3FF08AEC3FF01200000E8D6E000ED6
:107F2E008C6E000E896E000E8A6E000E8B6E070E22
:107F3E00966E92689368000E946E95687E681F0E1A
:107F4E007F6E000E7C6EF18E12008FEC3FF0810E74
:107F5E008B6E080E026E9D0E016E060EE82EFED77B
:107F6E00012EFCD7022EFAD7420E8B6E080E026E31
:107F7E009D0E016E060EE82EFED7012EFCD7022EA8
:107F8E00FAD7240E8B6E080E026E9D0E016E060E33
:107F9E00E82EFED7012EFCD7022EFAD7180E8B6EC6
:107FAE00080E026E9D0E016E060EE82EFED7012EF5
:107FBE00FCD7022EFAD7240E8B6E080E026E9D0E83
:107FCE00016E060EE82EFED7012EFCD7022EFAD732
:107FDE00420E8B6E080E026E9D0E016E060EE82E80
:107FEE00FED7012EFCD7022EFAD7AEEF3FF000EFF0
:027FFE0000F091
:020000040020DA
:08000000FFFFFFFFFFFFFFFF00
:020000040030CA
:0E000000FF021F1EFF8B81FF0FC00FE00F409D
:00000001FF
