:040000009EEF3FF040
:107F3C000001C3EF3FF0600ED36E000E9B6E12007B
:107F4C00ABEC3FF0A1EC3FF01200000E8D6E000E7A
:107F5C008C6E000E896E000E8A6E000E8B6E070EF4
:107F6C00966E9268FE0E936E946895687E681F0EEE
:107F7C007F6E000E7C6EF18E1200A6EC3FF0000EB0
:107F8C00056E000E046E000E016E0450E0EC3FF026
:107F9C00044A052A05BED9EF3FF00504D8A0D9EF55
:107FAC003FF0DBEF3FF0C9EF3FF08A80DCEF3FF0B2
:107FBC0000EF00F0026E000EF2BE010E036E02C066
:107FCC00A9FF01C0A8FFA69EA69CA684F29E550EF2
:107FDC00A76EAA0EA76EA682A6B2F7EF3FF0F9EF36
:107FEC003FF0F2EF3FF0A69403B002D0F29E01D026
:047FFC00F28E1200EF
:020000040020DA
:08000000FFFFFFFFFFFFFFFF00
:020000040030CA
:0E000000FF021F1EFF8B81FF0FC00FE00F409D
:00000001FF
