:04000000B4EF07F062
:10060000000D0A20454550524F4D20467265650049
:100610000D0A2041646472657373200025732025E0
:1006200075202573202575006C6C73003A2000003E
:1006300028C0D9FF29C0DAFFDECFF6FFDDCFF7FFF4
:100640000800F550250AD8A428EF03F02AEF03F09C
:100650000CEF04F028C0D9FF29C0DAFFDE2A000E13
:10066000DD22000E0001616F000E606F60C05EF061
:100670005C685D6828C0D9FF29C0DAFFDECF34F09E
:10068000DDCF35F034C0F6FF35C0F7FF0800F55078
:10069000750AD8A44EEF03F050EF03F096EF03F085
:1006A0002AC0D9FF2BC0DAFFDFCF2CF0020EDE26E6
:1006B000DFCF2DF0000EDD222CC0D9FF2DC0DAFFD8
:1006C000DECF2EF0DDCF2FF0010E34242C6E000E85
:1006D00035202D6E28C0D9FF29C0DAFF2CC0DEFFDF
:1006E0002DC0DDFF80EF03F026C01CF027C01DF0F9
:1006F0002EC01EF02FC01FF0BEEC04F020EF04F05F
:1007000034C0F6FF35C0F7FF0800F5502C6E2D6A97
:100710002D50000AD8B48FEF03F096EF03F02C5061
:10072000750AD8B474EF03F096EF03F028C0D9FF30
:1007300029C0DAFFDECFF6FFDDCFF7FF0800F55066
:10074000730AD8B4A6EF03F0A8EF03F0C3EF03F0E9
:1007500028C0D9FF29C0DAFFDECF01F0DDCF02F0DB
:10076000280E036E060E046E000E066E030E056E56
:1007700036EC05F001500210D8A4C1EF03F0C3EF2E
:1007800003F003EF04F028C0D9FF29C0DAFFDECF61
:10079000F6FFDDCFF7FF0800F550730AD8B4D3EFAA
:1007A00003F0D5EF03F0DBEF03F0000E336E030E22
:1007B000326EDFEF03F0000E336E010E326E28C092
:1007C000D9FF29C0DAFF3250DE263350DD2226C0A1
:1007D0000AF027C00BF02AC0D9FF2BC0DAFFDFCF09
:1007E0002CF0020EDE26DFCF2DF0000EDD222CC015
:1007F000D9FF2DC0DAFFDECF0CF0DDCF0DF021ECFC
:1008000004F020EF04F028C0D9FF29C0DAFFDE2A67
:10081000000EDD2220EF04F028C0D9FF29C0DAFF46
:10082000DECFF6FFDDCFF7FF0800F550016E026A5C
:1008300026C003F027C004F010EC06F003EF04F02C
:10084000120020EEB6F010EE0FF0060EDBCFE3FF45
:10085000E806FCE20CC01AF00DC01BF01A501B1089
:10086000D8A435EF04F037EF04F03BEF04F00F0E9F
:100870001A6E000E1B6E1AC001F01BC002F045EC90
:1008800007F001C01CF002C01DF05CC01EF05DC08E
:100890001FF01FBE4EEF04F050EF04F065EF04F0C0
:1008A0001C501E5C1F50800A0E6E1D50800A0E5890
:1008B000D8A05DEF04F05FEF04F061EF04F065EFA6
:1008C00004F01EC01CF01FC01DF01CC01EF01DC097
:1008D0001FF060C016F061C017F07BEF04F0000E4F
:1008E000026E200E016E0AC003F00BC004F010EC83
:1008F00006F01C4A1D2A16501C5C1D50800A0E6E04
:100900001750800A0E58D8A088EF04F08AEF04F040
:100910006FEF04F0000E196E000E186EAEEF04F0CB
:100920001AC0F6FF1BC0F7FFF86A050EF76403D084
:100930000800F55005D0F6CFE9FFF7CFEAFFEF50FA
:100940000E6E0E50016E026A0AC003F00BC004F076
:1009500010EC06F01A4A1B2A184A192A1E50185C75
:100960001950800A0E6E1F50800A0E58D8A0BBEF97
:1009700004F0BDEF04F090EF04F012005DBEC5EF8F
:1009800004F0C3EF04F0CBEF04F0000E236E010E71
:10099000226ECFEF04F05CC022F05DC023F060C097
:1009A00020F061C021F0000E256E1F0E246E000E97
:1009B0000001B56F06EF05F02406D8A02506960EB7
:1009C0002424D96E000E2520DA6E1EC001F01FC04F
:1009D00002F0000E046E0A0E036EECEC06F00150FD
:1009E000300FDF6E2206D8A023062006D8A02106ED
:1009F0001EC001F01FC002F0000E046E0A0E036E4E
:100A0000B2EC06F001C01EF002C01FF02450251009
:100A1000D8B40DEF05F00FEF05F025EF05F01E50EF
:100A20001F10D8A416EF05F018EF05F0DCEF04F066
:100A300023BE25EF05F0235006E12204D8B023EFB2
:100A400005F025EF05F0DCEF04F01CC011F01DC02F
:100A500012F0960E2424136E000E2520146E20C072
:100A600015F021C016F075EC06F0120001C008F078
:100A700002C009F003C00AF004C00BF00506D8A0BC
:100A80000606052806E10628D8A449EF05F04BEF35
:100A900005F058EF05F0000E026E000E016EA4EF97
:100AA00005F0084A092A0A4A0B2A0506D8A00606B4
:100AB00008C0F6FF09C0F7FF0800F5500009D8B4D8
:100AC00064EF05F066EF05F092EF05F00AC0F6FF5F
:100AD0000BC0F7FF0800F5500009D8B472EF05F01D
:100AE00074EF05F092EF05F005500610D8B47BEFD7
:100AF00005F07DEF05F092EF05F008C0F6FF09C0A4
:100B0000F7FF0800F5CF07F00AC0F6FF0BC0F7FFAC
:100B10000800F5500718D8B490EF05F092EF05F0F3
:100B200051EF05F008C0F6FF09C0F7FF0800F5CF48
:100B300007F00AC0F6FF0BC0F7FF0800F550075C8E
:100B4000016E026AD8A00206120037EC08F0000E0F
:100B50005B6E000E5A6E640E3E6E000E3F6E1C0EF3
:100B6000406E060E416E100E426E060E436E5AC067
:100B700044F05BC045F02C0E466E060E476E5A5090
:100B80002DEC08F0586E5850486E496A6CEC07F02E
:100B9000640E026E000E036EF2EC07F05A502DEC5C
:100BA00008F00009D8A4D7EF05F0D9EF05F0DCEF85
:100BB00005F00001624B632B020E596E450E586E14
:100BC000AA0EE82EFED7582EFCD7592EFAD75A4A2D
:100BD0005B2A5BBEF2EF05F05B04D8A0F2EF05F0F4
:100BE000F4EF05F0ABEF05F0640E3E6E000E3F6EC5
:100BF000220E406E060E416E010E426E060E436ED0
:100C000062C044F063C045F06CEC07F0640E026E05
:100C1000000E036EF2EC07F00CEF06F000EF00F0B0
:100C200003500410D8B417EF06F019EF06F022EFC6
:100C300006F003500410D8A420EF06F022EF06F0CF
:100C400027EF06F0015056EC08F074EF06F020EEA6
:100C50000AF00350D9260450DA22DE50DE10D8B450
:100C600034EF06F036EF06F051EF06F020EE0AF012
:100C70000350D9260450DA2210EE03F00350E12687
:100C80000450E222DE50E65CE650800A096EDE5037
:100C9000800A0958D8B04FEF06F051EF06F074EF14
:100CA00006F020EE03F00350D9260450DA22DECFFE
:100CB00005F0DDCF06F003C0D9FF04C0DAFFDECFB8
:100CC00007F0DDCF08F005500724D96E0650082044
:100CD000DA6E01C0DFFF20EE03F00350D926045086
:100CE000DA22DE2A000EDD22120016BE7AEF06F0AE
:100CF0007CEF06F082EF06F015C01AF016C01BF06C
:100D000086EF06F0000E1B6E000E1A6E000E196EB6
:100D1000000E186E98EF06F0000E026E200E016EA7
:100D200011C003F012C004F010EC06F0184A192AA2
:100D30001A50185C1950800A176E1B50800A1758F9
:100D4000D8A0A5EF06F0A7EF06F08CEF06F013C0D1
:100D50000AF014C00BF011C00CF012C00DF092ECB0
:100D600007F01200000E066E000E056E0350041010
:100D7000D8B4BDEF06F0BFEF06F0E7EF06F0010EC6
:100D8000076EC7EF06F0D89003360436072A04AE84
:100D9000CCEF06F0CEEF06F0C3EF06F0D8900536A4
:100DA00006360350015C04500258D8A0DAEF06F072
:100DB000DCEF06F0E1EF06F00350015E0450025A4A
:100DC0000580D89004320332072ECEEF06F005C01E
:100DD00001F006C002F0120003500410D8B4F3EF83
:100DE00006F0F5EF06F019EF07F0010E056EFDEFC6
:100DF00006F0D89003360436052A04AE02EF07F059
:100E000004EF07F0F9EF06F00350015C04500258BC
:100E1000D8A00DEF07F00FEF07F013EF07F0035026
:100E2000015E0450025AD89004320332052E04EFBA
:100E300007F001C001F002C002F0120038C03CF01F
:100E400039C03DF032EF07F036C026F037C027F04A
:100E50003C0E286E000E296E3AC02AF03BC02BF0E3
:100E600018EC03F03CC0F6FF3DC0F7FF0800F5505A
:100E70000009D8A43EEF07F040EF07F024EF07F099
:100E8000000E376E000E366E120001C003F002C075
:100E900004F04DEF07F0014A022A01C0F6FF02C03C
:100EA000F7FFF86A050EF76403D00800F55005D087
:100EB000F6CFE9FFF7CFEAFFEF500009D8A463EFC0
:100EC00007F065EF07F04BEF07F00350015C016E90
:100ED00004500258026E1200420E4A6E000E4B6E13
:100EE0003EC04CF03FC04DF0000E506E000E4F6EF5
:100EF000000E576E000E566E4C0E366E000E376E9C
:100F000040C038F041C039F04A0E3A6E000E3B6ED8
:100F10001EEC07F04F503E24D96E50503F20DA6E41
:100F2000DF6A1200000E106E000E0F6EA3EF07F0C6
:100F30000EC001F0026A0CC003F00DC004F010EC0A
:100F400006F00F4A102A0F500A24D96E10500B20B9
:100F5000DA6EDF500E6E0E50D8A4B1EF07F0B3EF8B
:100F600007F098EF07F01200A40EF66E100EF76E61
:100F7000000EF86E00EEB6F010EE07F00900F5CFA7
:100F8000EEFFE550E150FAE100EE60F0560EEE6A39
:100F9000E806FDE15F6A5E6A5D6A5C6A000EF86EF3
:100FA0000001A5EF05F0080EB86E900EAB6E240E92
:100FB000AC6E080EAF6E020EB06E000E016E000E2B
:100FC000026E48EC08F0000E016E000E026E43EC5B
:100FD00008F0000E016E000E026E4DEC08F0000EDF
:100FE0005F6E1200FDEF07F002C0D9FF03C0DAFF09
:100FF000DF5022EC08F0024A032A02C0D9FF03C0E6
:10100000DAFFDF50D8A407EF08F009EF08F0F4EF9B
:1010100007F01200000E8D6E000E8C6E000E896EB1
:10102000000E8A6E000E8B6E070E966E92689368A5
:10103000BF0E946E95687E681F0E7F6E000E7C6EEC
:10104000F18E1200016E9EA828EF08F02AEF08F03A
:1010500023EF08F001C0ADFF1200016E01C0A9FF2F
:10106000A69CA69EA68000F000F0A85012000AECF4
:1010700008F03EEC08F0D3EC07F01200600ED36EDF
:10108000000E9B6E120001C0BFF002C0C0F0120043
:1010900001C0C1F002C0C2F0120001C0BDF002C028
:0B10A000BEF01200286E756C6C290079
:0210AC00120030
:020000040020DA
:08000000FFFFFFFFFFFFFFFF00
:020000040030CA
:0E000000FF021F1EFF8B81FF0FC00FE00F409D
:00000001FF
