:04000000AEEF3EF031
:107D4800300ED36E000E9B6E1200B4EC3EF0A4EC25
:107D58003EF012000D6A0C6A0B6A000187EF3FF0D3
:107D6800000E8D6E000E8C6E000E896E000E8A6EEF
:107D7800000E8B6E070E966EFC0E926E000E936EC2
:107D8800946895687E681F0E7F6E000E7C6EF18E7B
:107D98001200000E066E02BED6EF3EF0D4EF3EF0A3
:107DA800DCEF3EF0016C021ED8B0022A010E066E0E
:107DB80004BEE3EF3EF0E1EF3EF0E7EF3EF0036C88
:107DC800041ED8B0042A03500410D8B4EEEF3EF0D5
:107DD800F0EF3EF014EF3FF0010E056EF8EF3EF0C5
:107DE800D89003360436052A04AEFDEF3EF0FFEFC7
:107DF8003EF0F4EF3EF00350015C04500258D8A066
:107E080008EF3FF00AEF3FF00EEF3FF00350015E3E
:107E18000450025AD89004320332052EFFEF3EF088
:107E28000650D8B41AEF3FF01CEF3FF020EF3FF0B8
:107E3800016C021ED8B0022A01C001F002C002F093
:107E48001200000E066E04BE2EEF3FF02CEF3FF03E
:107E580034EF3FF0036C041ED8B0042A010E066EFE
:107E680002BE3BEF3FF039EF3FF041EF3FF0016CCE
:107E7800021ED8B0022A010E061A000E086E000E65
:107E8800076E03500410D8B44CEF3FF04EEF3FF0AC
:107E980076EF3FF0010E056E56EF3FF0D8900336AF
:107EA8000436052A04AE5BEF3FF05DEF3FF052EF7A
:107EB8003FF0D890073608360350015C045002584A
:107EC800D8A069EF3FF06BEF3FF070EF3FF0035041
:107ED800015E0450025A0780D89004320332052EFE
:107EE8005DEF3FF00650D8B47CEF3FF07EEF3FF0F7
:107EF80082EF3FF0076C081ED8B0082A07C001F0CF
:107F080008C002F01200A9EC3EF08980898283B093
:107F180090EF3FF092EF3FF0A9EF3FF00D0E0A6EA1
:107F2800AF0E096EB60EE82EFED7092EFCD70A2E24
:107F3800FAD700F000F083A0A4EF3FF0A6EF3FF0DF
:107F48009FEF3FF00B2AC5EF3FF083B2AEEF3FF053
:107F5800B0EF3FF0C5EF3FF00D0E0A6EAF0E096EA1
:107F6800B60EE82EFED7092EFCD70A2EFAD700F057
:107F780000F083A2C2EF3FF0C4EF3FF0BDEF3FF047
:107F88000B06640E0B60CBEF3FF0CDEF3FF0D5EF63
:107F98003FF00B50D8A4D3EF3FF0D5EF3FF0D7EF29
:107FA8003FF0000E0B6E0BC001F0026A000E046E6B
:107FB8000A0E036ECDEC3EF001500D6E0BC001F0C1
:107FC800026A000E046E0A0E036E25EC3FF00138BB
:107FD800F00B0C6E0D500C108A6E030E0A6E8A0E92
:107FE800096E560EE82EFED7092EFCD70A2EFAD7B0
:087FF8008BEF3FF000EF00F0F9
:020000040020DA
:08000000FFFFFFFFFFFFFFFF00
:020000040030CA
:0E000000FF021F1EFF8B81FF0FC00FE00F409D
:00000001FF
