:0400000079EF3FF065
:107EF2000001D0EF3FF0220ED36E000E9B6E1200F7
:107F02009B0ECB6E000ECC6E9E92060ECA6E1200B7
:107F1200B7EC3FF07CEC3FF092EC3FF081EC3FF0AD
:107F220012003C0EBD6E000EB66E800EB76E010ED4
:107F3200B96E000EBF6E4D0EBE6E120001C003F090
:107F420002C004F0D89004320332D89004320332D3
:107F52000350BE6E01C003F0030E0316033AF00E87
:107F62000316BD50CF0B0310BD6E1200000E8D6EB6
:107F7200000E8C6E000E896E000E8A6E000E8B6EE5
:107F8200070E966E9268FE0E936EFB0E946E9568C7
:107F92007E681F0E7F6E000E7C6EF18E120089ECE1
:107FA2003FF0000E026E1F0E016E9FEC3FF0A30E1B
:107FB200056E550EE82EFED7052EFCD700F0000EFA
:107FC200026E2F0E016E9FEC3FF0A30E056E550E52
:107FD200E82EFED7052EFCD700F0000E026E3F0EF3
:107FE200016E9FEC3FF0A30E056E550EE82EFED7F4
:0E7FF200052EFCD700F0D2EF3FF000EF00F0BC
:020000040020DA
:08000000FFFFFFFFFFFFFFFF00
:020000040030CA
:0E000000FF081F1EFF8B81FF0FC00FE00F4097
:00000001FF
