:04000000C7EF3FF017
:107F8E000001D4EF3FF0600ED36E000E9B6E120018
:107F9E00E8EC3FF0CAEC3FF01200CFEC3FF0550E8C
:107FAE008B6E8B1E080E026E9D0E016E060EE82E57
:107FBE00FED7012EFCD7022EFAD7D8EF3FF000EFF6
:107FCE0000F0000E8D6E000E8C6E000E896E000E8F
:107FDE008A6E000E8B6E070E966E92689368000E78
:107FEE00946E95687E681F0E7F6E000E7C6EF18E0D
:027FFE0012006F
:020000040020DA
:08000000FFFFFFFFFFFFFFFF00
:020000040030CA
:0E000000FF021F1EFF8B81FF0FC00FE00F409D
:00000001FF
