:0400000002EF38F0E3
:106F5600C2821200600ED36E000E9B6E1200C0F944
:106F6600A4B0999282F88090E9EC37F0ADEC37F056
:106F7600D2EC37F01200C450046E036AC3500324E7
:106F8600016E000E0420026E1200C2A2CDEF37F091
:106F9600D0EF37F0010ED1EF37F0000E1200000EE1
:106FA600C16EBA0EC06E000EC36E000EC46E010E28
:106FB600C26E1200026E02C001F001460146C250C6
:106FC6000118C30B0118C26EC2801200000E8D6E2E
:106FD600000E8C6E000E896E000E8A6E000E8B6E91
:106FE600070E966ED10E926E000E936E946895689B
:106FF6007E681F0E7F6E000E7C6EF18E1200640E90
:10700600F66E6F0EF76E000EF86E00EE54F010EE90
:107016000AF00900F5CFEEFFE550E150FAE100EE87
:1070260060F0320EEE6AE806FDE100EE43F0110E66
:10703600EE6AE806FDE1000EF86E000107EF3CF08F
:10704600000E066E02BE2CEF38F02AEF38F032EF53
:1070560038F0016C021ED8B0022A010E066E04BE7C
:1070660039EF38F037EF38F03DEF38F0036C041E97
:10707600D8B0042A03500410D8B444EF38F046EFD1
:1070860038F06AEF38F0010E056E4EEF38F0D89002
:1070960003360436052A04AE53EF38F055EF38F0C0
:1070A6004AEF38F00350015C04500258D8A05EEF56
:1070B60038F060EF38F064EF38F00350015E0450AA
:1070C600025AD89004320332052E55EF38F0065096
:1070D600D8B470EF38F072EF38F076EF38F0016C14
:1070E600021ED8B0022A01C001F002C002F012004E
:1070F600000E0C6E0ABE84EF38F082EF38F08AEF8D
:1071060038F0096C0A1ED8B00A2A010E0C6E08BEA9
:1071160091EF38F08FEF38F097EF38F0076C081ED4
:10712600D8B0082A010E0C1A000E0E6E000E0D6E57
:1071360009500A10D8B4A2EF38F0A4EF38F0CCEF1B
:1071460038F0010E0B6EACEF38F0D89009360A36DF
:107156000B2A0AAEB1EF38F0B3EF38F0A8EF38F0EB
:10716600D8900D360E360950075C0A500858D8A03C
:10717600BFEF38F0C1EF38F0C6EF38F00950075EC0
:107186000A50085A0D80D8900A3209320B2EB3EFF6
:1071960038F00C50D8B4D2EF38F0D4EF38F0D8EF3E
:1071A60038F00D6C0E1ED8B00E2A0DC007F00EC0BA
:1071B60008F01200353436343C6E3C50D8A4E6EF65
:1071C60038F0E8EF38F0F2EF38F0000E336E000ECC
:1071D600346E000E356E000E366E5FEF39F033C03A
:1071E60037F034C038F035C039F036C03AF0200EEA
:1071F60002EF39F0D8903A32393238323732E82E47
:10720600FDEF38F037503B6E358EFF0E3316FF0E0E
:107216003416FF0E3516000E3616960E3C5E3CBE34
:1072260019EF39F017EF39F02FEF39F03C50800A9B
:10723600970FD8B021EF39F023EF39F025EF39F069
:10724600E8EF38F0D89036323532343233323C3EBD
:1072560025EF39F047EF39F01F0E3C6435EF39F072
:1072660037EF39F03FEF39F0E8EF38F0D8903336A2
:107276003436353636363C063C50D8A445EF39F020
:1072860047EF39F039EF39F03B50D8B44DEF39F0CC
:107296004FEF39F057EF39F0361E351E341E336C7A
:1072A600000E34223522362233C033F034C034F097
:1072B60035C035F036C036F012000D6E0D50D8B41C
:1072C60067EF39F069EF39F08BEF39F008BE70EFF0
:1072D60039F06EEF39F08BEF39F005C009F006C0D2
:1072E6000AF007C00BF008C00CF0091E0A1E0B1EA0
:1072F6000C1E092A000E0A220B220C2209C00FF0CE
:107306000AC010F00BC011F00CC012F093EF39F068
:1073160005C00FF006C010F007C011F008C012F04B
:107326000550061007100810D8A49CEF39F09EEF00
:1073360039F0A8EF39F0000E056E000E066E000E4D
:10734600076E000E086E39EF3AF0960E0E6EB2EF2B
:1073560039F00E2AD8901232113210320F32000E46
:107366000F14096E000E10140A6E000E11140B6E27
:10737600FE0E12140C6E09500A100B100C10D8A435
:10738600C7EF39F0C9EF39F0ACEF39F0D7EF39F084
:107396000E2A010E0F26000E102211221222D8905C
:1073A6001232113210320F32000E0F14096E000E17
:1073B60010140A6E000E11140B6EFF0E12140C6ED2
:1073C60009500A100B100C10D8A4ECEF39F0EEEFB0
:1073D60039F0CBEF39F0F6EF39F00E06D8900F36CC
:1073E60010361136123611BEFBEF39F0FDEF39F0CB
:1073F60005EF3AF0020E0E6003EF3AF005EF3AF0B1
:10740600F0EF39F00EB00AEF3AF00CEF3AF00DEF6C
:107416003AF0119ED8900E320EC009F00A6A0B6A35
:107426000C6A09C00CF00B6A0A6A096A09500F1245
:107436000A5010120B5011120C5012120D50D8B4E3
:1074460027EF3AF029EF3AF031EF3AF008BE30EF85
:107456003AF02EEF3AF031EF3AF0128E0FC005F007
:1074660010C006F011C007F012C008F012001D503F
:10747600800B2A6E1D501D24316E1CAE45EF3AF06E
:1074860047EF3AF048EF3AF031803150D8B44EEF3A
:107496003AF050EF3AF065EF3AF03128D8A456EFBB
:1074A6003AF058EF3AF060EF3AF0000E1A6E000E1E
:1074B6001B6E000E1C6E000E1D6E1C8E000E1D6EC9
:1074C6006DEF3AF0000E1A6E000E1B6E000E1C6E6B
:1074D600000E1D6E2150800B2A1A21502124326E77
:1074E60020AE78EF3AF07AEF3AF07BEF3AF032805E
:1074F6003250D8B481EF3AF083EF3AF098EF3AF091
:107506003228D8A489EF3AF08BEF3AF093EF3AF0AD
:10751600000E1E6E000E1F6E000E206E000E216EF7
:10752600208E000E216EA0EF3AF0000E1E6E000EA9
:107536001F6E000E206E000E216E1E501F102010B2
:107546002110D8A4A9EF3AF0ABEF3AF0C3EF3AF026
:10755600000E1A6E000E1B6E000E1C6E000E1D6EC7
:10756600800E1C127F0E1D122A501D121AC01AF010
:107576001BC01BF01CC01CF01DC01DF006EF3CF02C
:107586003150D8A4C9EF3AF0CBEF3AF0D5EF3AF044
:10759600000E1A6E000E1B6E000E1C6E000E1D6E87
:1075A60006EF3CF0325031C022F0236A225E000E14
:1075B600235A7F0E22242B6E000E23202C6E1AC017
:1075C60026F01BC027F01CC028F01DC029F0000EB5
:1075D6001A6E000E1B6E000E1C6E000E1D6E000E47
:1075E6002D6E000E2E6E000E2F6E000E306E000EEB
:1075F600326E36EF3BF03250D8B404EF3BF006EF74
:107606003BF01DEF3BF0D890263627362836293634
:10761600D8901A361B361C361D3630AE15EF3BF0A9
:1076260017EF3BF018EF3BF01A80D8902D362E3628
:107636002F3630361E50265C1F50275820502858AB
:1076460021502958D8A02AEF3BF02CEF3BF035EF1C
:107656003BF0308C1E50265E1F50275A2050285A69
:107666002150295A322A190E32643CEF3BF03EEF84
:107676003BF0FEEF3AF02650271028102910D8B418
:1076860047EF3BF049EF3BF061EF3BF02D8061EFB8
:107696003BF0D8901A361B361C361D3630AE56EFE8
:1076A6003BF058EF3BF059EF3BF01A80D8902D365F
:1076B6002E362F3630362B06D8A02C061CAE66EF9B
:1076C6003BF068EF3BF04CEF3BF0000E326E30AE15
:1076D6006FEF3BF071EF3BF095EF3BF0FF0E2D1493
:1076E600226EFF0E2E14236EFF0E2F14246E7F0EB5
:1076F6003014256E2250231024102510D8B486EF9E
:107706003BF088EF3BF08CEF3BF0010E326E95EFCD
:107716003BF01AA091EF3BF093EF3BF095EF3BF077
:1077260088EF3BF03250D8B49BEF3BF09DEF3BF037
:10773600C1EF3BF0010E1A26000E1B221C221D2251
:107746001DA0A8EF3BF0AAEF3BF0C1EF3BF01AC03B
:1077560022F01BC023F01CC024F01DC025F02534E8
:10776600253224322332223222C01AF023C01BF0E3
:1077760024C01CF025C01DF02B4A2C2A2CBECCEFB1
:107786003BF02C5008E12B28D8A0CCEF3BF0CEEFF5
:107796003BF0D9EF3BF0000E2C6E2B68000E1A6EF4
:1077A600000E1B6E000E1C6E000E1D6E2CBEE6EF4C
:1077B6003BF02C5006E12B04D8B0E4EF3BF0E6EFAB
:1077C6003BF0F4EF3BF0000E2C6E000E2B6E000E1D
:1077D6001A6E000E1B6E000E1C6E000E1D6E000E45
:1077E6002A6E2BC031F031A0FBEF3BF0FDEF3BF0F2
:1077F60000EF3CF01C8E01EF3CF01C9ED89031301F
:107806001D6EB7EF3AF01200B7EC37F0000EDDEC64
:1078160037F0ABEC37F0C8EC37F00009D8A416EF18
:107826003CF018EF3CF00EEF3CF0BEEC37F001C038
:1078360005F002C006F0076A086A000E60EC39F02F
:1078460005C043F006C044F007C045F008C046F046
:10785600000E1E6E000E1F6E800E206E440E216EF0
:10786600000E056E400E066E4E0E076E450E086E35
:1078760043C001F044C002F045C003F046C004F026
:10788600EBEC3DF001C01AF002C01BF003C01CF087
:1078960004C01DF03AEC3AF01AC033F01BC034F0C5
:1078A6001CC035F01DC036F0DDEC38F033C052F0A8
:1078B60034C053F00C0E5224076EFE0E5320086E91
:1078C600000E0A6E0A0E096E7BEC38F007C052F005
:1078D60008C053F053BE72EF3CF074EF3CF026EF55
:1078E6003DF0000E046E640E036E52C001F053C0EC
:1078F60002F023EC38F001C03FF002C040F03FC078
:1079060001F040C002F0000E046E0A0E036E23EC76
:1079160038F00150516E540E5124D96EDA6A000EB9
:10792600DA22DF508A6E8A8E898289948996899AAC
:10793600070E3E6E780E3D6ED20EE82EFED73D2E19
:10794600FCD73E2EFAD7000E046E640E036E52C0AC
:1079560001F053C002F023EC38F001C007F002C07A
:1079660008F0000E0A6E0A0E096E7BEC38F007501E
:10797600506E540E5024D96EDA6A000EDA22DF50A9
:107986008A6E8A8E899289848996899A070E3E6EB6
:10799600780E3D6ED20EE82EFED73D2EFCD73E2E3B
:1079A600FAD7030E046EE80E036E52C001F053C000
:1079B60002F023EC38F001C007F002C008F0000E18
:1079C6000A6E640E096E7BEC38F007504F6E540E4B
:1079D6004F24D96EDA6A000EDA22DF508A6E8A8E5A
:1079E600899289948986899A070E3E6E780E3D6E35
:1079F600D20EE82EFED73D2EFCD73E2EFAD752C029
:107A060007F053C008F0030E0A6EE80E096E7BEC11
:107A160038F007504E6E540E4E24D96EDA6A000EB8
:107A2600DA22DF508A6E8A8E899289948996898AAB
:107A3600070E3E6E780E3D6ED20EE82EFED73D2E18
:107A4600FCD73E2EFAD753BE33EF3DF0535006E136
:107A56005204D8B031EF3DF033EF3DF009EF3CF082
:107A660052C03DF053C03EF03D1E3E1E3D4A3E2AEA
:107A76003DC041F03EC042F0000E046E640E036E3F
:107A860041C001F042C002F023EC38F001C03FF0E3
:107A960002C040F03FC001F040C002F0000E046E8C
:107AA6000A0E036E23EC38F00150516E540E512429
:107AB600D96EDA6A000EDA22DF508A6E89828994DC
:107AC6008996899A070E3E6E780E3D6ED20EE82E86
:107AD600FED73D2EFCD73E2EFAD7000E046E640E5E
:107AE600036E41C001F042C002F023EC38F001C041
:107AF60007F002C008F0000E0A6E0A0E096E7BEC53
:107B060038F00750506E540E5024D96EDA6A000EC3
:107B1600DA22DF508A6E899289848996899A070EBD
:107B26003E6E780E3D6ED20EE82EFED73D2EFCD769
:107B36003E2EFAD7030E046EE80E036E41C001F026
:107B460042C002F023EC38F001C007F002C008F092
:107B5600000E0A6E640E096E7BEC38F007504F6E0D
:107B6600540E4F24D96EDA6A000EDA22DF508A6E7E
:107B7600899289948986899A070E3E6E780E3D6EA3
:107B8600D20EE82EFED73D2EFCD73E2EFAD741C0A8
:107B960007F042C008F0030E0A6EE80E096E7BEC91
:107BA60038F007504E6EBF0E8A6E89928994899678
:107BB600898A070E3E6E780E3D6ED20EE82EFED7EF
:107BC6003D2EFCD73E2EFAD709EF3CF000EF00F031
:107BD6000450800B0D6E04500424136E03AEF6EFB2
:107BE6003DF0F8EF3DF0F9EF3DF013801350D8B4B7
:107BF600FFEF3DF001EF3EF014EF3EF01328D8A45E
:107C060007EF3EF009EF3EF011EF3EF0000E016E79
:107C1600000E026E000E036E000E046E038E1CEF45
:107C26003EF0000E016E000E026E000E036E000E98
:107C3600046E0850800B0D1A08500824126E07AE09
:107C460027EF3EF029EF3EF02AEF3EF01280125069
:107C5600D8B430EF3EF032EF3EF045EF3EF012285A
:107C6600D8A438EF3EF03AEF3EF042EF3EF0000E79
:107C7600056E000E066E000E076E000E086E078E6D
:107C86004DEF3EF0000E056E000E066E000E076EFE
:107C9600000E086E1250D8B453EF3EF055EF3EF08A
:107CA6005DEF3EF01350D8A45BEF3EF05DEF3EF083
:107CB60067EF3EF0000E016E000E026E000E036EC0
:107CC600000E046EFFEF3FF007500102F3CF18F0ED
:107CD600F4CF19F018500E6E0F6A106A116A195017
:107CE600146E156A166A176A06500202F3CF18F068
:107CF600F4CF19F018500E26000E0F221022112272
:107D060019501426000E15221622172205500302BA
:107D1600F3CF18F0F4CF19F018500E26000E0F22EC
:107D26001022112219501426000E1522162217228F
:107D360010C011F00FC010F00EC00FF00E6A055003
:107D46000202F3CF18F0F4CF19F018500E2619508E
:107D56000F22000E1022000E112206500102F3CF50
:107D660018F0F4CF19F018500E2619500F22000EF5
:107D76001022000E112210C011F00FC010F00EC01C
:107D86000FF00E6A05500102F3CF18F0F4CF19F088
:107D960018500E2619500F22000E1022000E112226
:107DA60007500202F3CF18F0F4CF19F0185014263A
:107DB60019501522000E1622000E17220650030235
:107DC600F3CF18F0F4CF19F01850142619501522D5
:107DD600000E1622000E172207500302F3CF18F0EA
:107DE600F4CF19F01850096E19500A6E0B6A0C6A16
:107DF6000BC00CF00AC00BF009C00AF0096A095062
:107E060014260A5015220B5016220C5017220EC0AB
:107E160009F00FC00AF010C00BF011C00CF0190EDB
:107E26001AEF3FF0D8900C320B320A320932E82EA4
:107E360015EF3FF0095014260A5015220B50162252
:107E46000C50172210C011F00FC010F00EC00FF02A
:107E56000E6A125013C009F00A6A0926000E0A2299
:107E6600820E0924186EFF0E0A20196E50EF3FF09D
:107E7600D890143615361636173611AE45EF3FF044
:107E860047EF3FF048EF3FF01480D8900E360F369C
:107E9600103611361806D8A0190616AE55EF3FF063
:107EA60057EF3FF03BEF3FF0000E126E11AE5EEF64
:107EB6003FF060EF3FF084EF3FF0FF0E0E14096EC7
:107EC600FF0E0F140A6EFF0E10140B6E7F0E1114A8
:107ED6000C6E09500A100B100C10D8B475EF3FF059
:107EE60077EF3FF07BEF3FF0010E126E84EF3FF02D
:107EF60014A080EF3FF082EF3FF084EF3FF077EF82
:107F06003FF01250D8B48AEF3FF08CEF3FF0B0EF5D
:107F16003FF0010E1426000E15221622172217A076
:107F260097EF3FF099EF3FF0B0EF3FF014C009F044
:107F360015C00AF016C00BF017C00CF00C340C324A
:107F46000B320A32093209C014F00AC015F00BC010
:107F560016F00CC017F0184A192A19BEBBEF3FF0ED
:107F6600195008E11828D8A0BBEF3FF0BDEF3FF04D
:107F7600C7EF3FF0000E146E000E156E800E166EE3
:107F86007F0E176EF5EF3FF019BED4EF3FF0195094
:107F960006E11804D8B0D2EF3FF0D4EF3FF0E0EF9F
:107FA6003FF0000E146E000E156E000E166E000EDB
:107FB600176E000E0D6EF5EF3FF018C013F0FF0EB2
:107FC6001416FF0E15167F0E1616000E171613A0A2
:107FD600EFEF3FF0F1EF3FF0F2EF3FF0168ED89063
:107FE6001330176E0D50171214C001F015C002F0B1
:0A7FF60016C003F017C004F01200DB
:020000040020DA
:08000000FFFFFFFFFFFFFFFF00
:020000040030CA
:0E000000FF021F1EFF8B81FF0FC00FE00F409D
:00000001FF
