:0400000013EF1BF0EF
:1006000000506F74656E74696F6D65746572205704
:100610006970657220566F6C74616765203A2000BE
:100620002573252E3266257300494E46004E414EF5
:1006300000696E66006E616E006C6C7300560D0A88
:05064000006C660000E3
:10064600000E00017A6F000E796F57C08BF058C00C
:100656008CF059C08DF05AC08EF08EBF37EF03F084
:1006660035EF03F04DEF03F0000E7A6F010E796F50
:100676008BC001F08CC002F08DC003F08EC004F078
:100686008DEC1BF001C08BF002C08CF003C08DF026
:1006960004C08EF0000E0001926F000E916FD4C060
:1006A6007DF0D5C07EF079517A11D8A45DEF03F0C4
:1006B6005FEF03F066EF03F0D8A564EF03F066EF93
:1006C60003F080EF03F079517A11D8A46DEF03F0AF
:1006D6006FEF03F075EF03F0000E666F2B0E656F7C
:1006E60079EF03F0000E666F2D0E656F65C000F1A1
:1006F600914B922B7D07D8A07E078BC001F08CC052
:1007060002F08DC003F08EC004F0EAEC16F001048E
:100716000210D8A491EF03F093EF03F0DDEF03F09E
:10072600BF0E0001606FFF0E616F5B50626F636BFF
:100736006051622761516323635107E11A0E625DBE
:10074600D8B0A8EF03F0AAEF03F0B8EF03F0000E5D
:100756009125016E010E9221026E290E036E060E80
:10076600046ED8EC19F0C4EF03F0000E9125016E6B
:10077600010E9221026E310E036E060E046ED8EC47
:1007860019F00001FD0E7D27FF0E7E2355C011F0E6
:1007960056C012F0000E136E010E146E7DC015F0D9
:1007A6007EC016F035EC18F011C055F012C056F0A8
:1007B60027EF09F08BC001F08CC002F08DC003F06A
:1007C6008EC004F0EAEC16F001500210D8A4EEEF49
:1007D60003F0F0EF03F023EF04F0BF0E0001606FAB
:1007E600FF0E616F5B50626F636B605162276151F0
:1007F6006323635107E11A0E625DD8B005EF04F07A
:1008060007EF04F015EF04F0000E9125016E010EBE
:100816009221026E2D0E036E060E046ED8EC19F0B0
:10082600C4EF03F0000E9125016E010E9221026EB7
:10083600350E036E060E046ED8EC19F0C4EF03F005
:10084600000E0001936F000E946F800E956F3F0EA1
:10085600966F000E906F000E8F6F8BC001F08CC0EC
:1008660002F08DC003F08EC004F0000E056E000E7F
:10087600066E000E076E000E086E52EC19F0D8B028
:1008860047EF04F049EF04F0CCEF04F068EF04F012
:1008960093C00FF094C010F095C011F096C012F0FE
:1008A600000E136E000E146E200E156E410E166E9F
:1008B6001AEC0EF00FC093F010C094F011C095F032
:1008C60012C096F000018F4B902B8BC028F08CC085
:1008D60029F08DC02AF08EC02BF0000E136E000E8C
:1008E600146E200E156E410E166E93C00FF094C056
:1008F60010F095C011F096C012F01AEC0EF00FC071
:100906002CF010C02DF011C02EF012C02FF068ECA4
:1009160016F0D8B091EF04F093EF04F04BEF04F02B
:10092600B3EF04F093C028F094C029F095C02AF0E4
:1009360096C02BF0000E2C6E000E2D6E200E2E6E25
:10094600410E2F6E2FEC10F028C093F029C094F0C2
:100956002AC095F02BC096F000018F07D8A090070B
:100966008BC028F08CC029F08DC02AF08EC02BF0E9
:1009760093C02CF094C02DF095C02EF096C02FF0A9
:1009860068EC16F0D8A0CAEF04F0CCEF04F095EFAF
:1009960004F05BC007F0086AABEC1AF007500001E0
:1009A600806F80C07FF0670E8019D8A4DDEF04F059
:1009B600DFEF04F005EF05F0D651D711D8A4E6EF26
:1009C60004F0E8EF04F0ECEF04F0000ED76F010E30
:1009D600D66FD7BFF9EF04F0D75106E1D605D8B0E8
:1009E600F7EF04F0F9EF04F0FFEF04F0000E7C6F70
:1009F600060E7B6F0EEF05F0D6C07BF0D7C07CF0FD
:100A06000EEF05F0D7BF0AEF05F00CEF05F0F9EF92
:100A160004F0FFEF04F0670E8019D8A415EF05F077
:100A260017EF05F046EF05F090AF25EF05F0FC0E49
:100A36008F5DFF0E9059D8A023EF05F025EF05F046
:100A460044EF05F0FF0E606FFF0E616F7BC062F032
:100A56007CC063F060516227615163238F51625DF0
:100A66006351800A646F9051800A6459D8A03EEFA2
:100A760005F040EF05F044EF05F0660E7F6F46EF98
:100A860005F0650E7F6F7BC071F07CC072F0670E5B
:100A96008019D8A451EF05F053EF05F063EF05F088
:100AA600660E7F19D8A45AEF05F05CEF05F065EFE6
:100AB60005F090BF63EF05F061EF05F065EF05F017
:100AC600714B722B660E7F19D8A46CEF05F06EEF92
:100AD60005F08EEF05F090BF75EF05F073EF05F0AA
:100AE60081EF05F0000E936F000E946F800E956FE8
:100AF6003F0E966F000E906F000E8F6F670E801977
:100B0600D8B488EF05F08AEF05F08EEF05F08F5127
:100B1600712790517223000E8A6F000E896F8BC069
:100B260081F08CC082F08DC083F08EC084F093C0BB
:100B360073F094C074F095C075F096C076F01FEF10
:100B460006F081C028F082C029F083C02AF084C054
:100B56002BF093C02CF094C02DF095C02EF096C0CB
:100B66002FF02FEC10F028C041F029C042F02AC027
:100B760043F02BC044F0FCEC11F041C085F042C0BC
:100B860086F043C087F044C088F085C001F086C077
:100B960002F087C003F088C004F0E5EC15F001C050
:100BA60077F002C078F081C028F082C029F083C0B7
:100BB6002AF084C02BF093C013F094C014F095C0B3
:100BC60015F096C016F085C00FF086C010F087C0ED
:100BD60011F088C012F01AEC0EF00FC02CF010C005
:100BE6002DF011C02EF012C02FF0CEEC1AF028C056
:100BF60081F029C082F02AC083F02BC084F093C014
:100C060028F094C029F095C02AF096C02BF0000E6B
:100C16002C6E000E2D6E200E2E6E410E2F6E2FECBA
:100C260010F028C093F029C094F02AC095F02BC08C
:100C360096F00001894B8A2B7151895D8A51800A91
:100C4600606F7251800A6059D8A02CEF06F02EEF23
:100C560006F0A4EF05F093C00FF094C010F095C015
:100C660011F096C012F0000E136E000E146EA00E58
:100C7600156E400E166E1AEC0EF00FC085F010C001
:100C860086F011C087F012C088F081C028F082C0BB
:100C960029F083C02AF084C02BF085C02CF086C0D2
:100CA6002DF087C02EF088C02FF068EC16F0D8B073
:100CB6005FEF06F061EF06F06CEF06F0000E000144
:100CC600856F000E866F000E876F000E886F95EF9A
:100CD60006F081C001F082C002F083C003F084C038
:100CE60004F085C005F086C006F087C007F088C00E
:100CF60008F052EC19F0D8A083EF06F085EF06F065
:100D060095EF06F0000177B18BEF06F08DEF06F058
:100D160095EF06F0000E856F000E866F000E876F4A
:100D2600000E886F8BC001F08CC002F08DC003F0FE
:100D36008EC004F085C005F086C006F087C007F0B7
:100D460088C008F0BAEC0BF001C081F002C082F056
:100D560003C083F004C084F081C028F082C029F06B
:100D660083C02AF084C02BF0000E136E000E146EA2
:100D7600200E156E410E166E73C00FF074C010F083
:100D860075C011F076C012F01AEC0EF00FC02CF000
:100D960010C02DF011C02EF012C02FF068EC16F026
:100DA600D8A0D8EF06F0DAEF06F003EF07F000015F
:100DB6008F4B902B73C00FF074C010F075C011F0FC
:100DC60076C012F0000E136E000E146E200E156E15
:100DD600410E166E1AEC0EF00FC073F010C074F0D0
:100DE60011C075F012C076F0660E00017F19D8A406
:100DF600FFEF06F001EF07F003EF07F0714B722BE0
:100E060073C093F074C094F075C095F076C096F0F8
:100E1600650E00017F19D8B413EF07F015EF07F040
:100E26001BEF07F08FC06FF090C070F01FEF07F058
:100E3600000E706F000E6F6F000E6E6F000E6D6FFE
:100E4600000E6C6F000E6B6F000E8A6F000E896FBE
:100E56001AEF08F081C028F082C029F083C02AF07A
:100E660084C02BF093C02CF094C02DF095C02EF0CA
:100E760096C02FF02FEC10F028C041F029C042F0A8
:100E86002AC043F02BC044F0FCEC11F041C085F0C1
:100E960042C086F043C087F044C088F085C001F0A8
:100EA60086C002F087C003F088C004F0E5EC15F0B8
:100EB60001C077F002C078F00001D8B965EF07F0FD
:100EC60067EF07F084EF07F077517811D8A46EEF3B
:100ED60007F070EF07F084EF07F0670E8019D8A4CB
:100EE60077EF07F079EF07F084EF07F070BF80EF38
:100EF60007F07EEF07F084EF07F06B4B6C2BCEEF1D
:100F060007F06D516E11D8A48BEF07F08DEF07F047
:100F1600B7EF07F070BF94EF07F092EF07F0B7EF67
:100F260007F0000E9125D96E010E9221DA6E2E0E73
:100F3600DF6E914B922B7D07D8A07E07000E6E6F59
:100F4600010E6D6FB7EF07F0000E9125D96E010EF9
:100F56009221DA6E300EDF6E914B922B7D07D8A070
:100F66007E076B07D8A06C076B516C11D8A4BEEF37
:100F760007F0C0EF07F0A7EF07F0000E9125D96E36
:100F8600010E9221DA6E7751300FDF6E914B922B64
:100F96007D07D8A07E0781C028F082C029F083C0D3
:100FA6002AF084C02BF093C013F094C014F095C0BF
:100FB60015F096C016F085C00FF086C010F087C0F9
:100FC60011F088C012F01AEC0EF00FC02CF010C011
:100FD6002DF011C02EF012C02FF0CEEC1AF028C062
:100FE60081F029C082F02AC083F02BC084F093C020
:100FF60028F094C029F095C02AF096C02BF0000E78
:101006002C6E000E2D6E200E2E6E410E2F6E2FECC6
:1010160010F028C093F029C094F02AC095F02BC098
:1010260096F000016F07D8A07007894B8A2B715183
:10103600895D8A51800A606F7251800A6059D8B002
:1010460027EF08F029EF08F037EF08F092BF35EFE9
:1010560008F0925109E14B0E915DD8A035EF08F0EA
:1010660037EF08F02DEF07F06D516E11D8A43EEF63
:1010760008F040EF08F051EF08F0D8A945EF08F066
:1010860047EF08F051EF08F0000E9125D96E010EDA
:101096009221DA6E2E0EDF6E914B922B000E912569
:1010A600D96E010E9221DA6E000EDF6E650E7F1983
:1010B600D8A460EF08F062EF08F0C9EF03F0000E65
:1010C6008A6F4F0E896F000E8925D96E010E8A210F
:1010D600DA6E000EDF6E000E7A6F000E796F90BF2B
:1010E60079EF08F077EF08F081EF08F0000E7A6FDD
:1010F600010E796F8F6D901FD8B0902B000E7C6F0C
:10110600020E7B6FB2EF08F08907D8A08A07000E9F
:101116008925D96E010E8A21DA6E8FC001F090C042
:1011260002F0000E046E0A0E036EFAEC18F001507F
:10113600300FDF6E8FC001F090C002F0000E046E1B
:101146000A0E036E98EC18F001C08FF002C090F002
:1011560000017B07D8A07C077D07D8A07E078F51AA
:101166009011D8A4B9EF08F0BBEF08F087EF08F0AC
:101176007CBFC8EF08F07C5106E17B05D8B0C6EF0E
:1011860008F0C8EF08F087EF08F08907D8A08A07AB
:1011960079517A11D8A4D2EF08F0D4EF08F0DAEF3B
:1011A60008F0000E686F2B0E676FDEEF08F0000E7A
:1011B600686F2D0E676F000E8925D96E010E8A2184
:1011C600DA6E67C0DFFF7D07D8A07E078907D8A043
:1011D6008A07BF0E606FFF0E616F5B50626F636BB5
:1011E6006051622761516323635109E11A0E625D02
:1011F600D8A000EF09F002EF09F008EF09F0000EA1
:101206006A6F650E696F0CEF09F0000E6A6F450E86
:10121600696F000E8925D96E010E8A21DA6E69C0C2
:10122600DFFF7D07D8A07E07000E9125016E010E17
:101236009221026E000E8925036E010E8A21046E2C
:10124600D8EC19F0C9EF03F0120099C0D9FF9AC083
:10125600DAFFDECFF6FFDDCFF7FF0800F550250AEF
:10126600D8A438EF09F03AEF09F09EEF0BF099C0D9
:10127600D9FF9AC0DAFFDE2A000EDD22000E000139
:10128600D56F000ED46FD4C0D8F0D5C0D9F0D669CA
:10129600D76999C0D9FF9AC0DAFFDECFF6FFDDCF56
:1012A600F7FF0800F5502E0AD8A45CEF09F05EEFB0
:1012B60009F0CEEF09F0000ED76F000ED66F99C079
:1012C600D9FF9AC0DAFFDE2A000EDD2299C0D9FFC7
:1012D6009AC0DAFFDECFF6FFDDCFF7FF0800F55044
:1012E6002A0AD8A479EF09F07BEF09F098EF09F004
:1012F60099C0D9FF9AC0DAFFDE2A000EDD229BC014
:10130600D9FF9CC0DAFFDFCF5CF0020EDE26DFCF0E
:101316005DF0000EDD225CC0D9FF5DC0DAFFDECFD6
:10132600D6F0DDCFD7F0CEEF09F099C0D9FF9AC03D
:10133600DAFFDECF08F0DDCF09F0ADEC14F008C01F
:10134600D6F009C0D7F0AFEF09F099C0D9FF9AC01F
:10135600DAFFDE2A000EDD22D00E5C6EFF0E5D6E19
:1013660099C0D9FF9AC0DAFFDECFF6FFDDCFF7FFCF
:101376000800F5505E6E5F6A5C505E265D505F2227
:101386005F5009E10A0E5E5CD8A0CCEF09F0CEEF03
:1013960009F0A8EF09F099C0D9FF9AC0DAFFDECFAD
:1013A600F6FFDDCFF7FF0800F550076E086AABECD5
:1013B6001AF007500001A56FA551D8B4E5EF09F062
:1013C600E7EF09F021EF0AF099C0D9FF9AC0DAFFDA
:1013D600DECF5CF0DDCF5DF0010E5C26000E5D22F7
:1013E6005CC0F6FF5DC0F7FF0800F550076E086A9F
:1013F600ABEC1AF007500001A66FA651D8B406EF61
:101406000AF008EF0AF021EF0AF099C0D9FF9AC056
:10141600DAFFDECF5CF0DDCF5DF0020E5C26000E5B
:101426005D225CC0F6FF5DC0F7FF0800F550076E51
:10143600086AABEC1AF007500001A76F660EA519F3
:10144600D8A428EF0AF02AEF0AF06AEF0AF099C04A
:10145600D9FF9AC0DAFFDECFF6FFDDCFF7FF08002F
:10146600F5CFA8F099C0D9FF9AC0DAFFDE2A000EA0
:10147600DD229BC0D9FF9CC0DAFFDFCF5CF0040EF3
:10148600DE26DFCF5DF0000EDD225CC0D9FF5DC039
:10149600DAFFDECFA1F0DECFA2F0DECFA3F0DECF03
:1014A600A4F097C055F098C056F0A1C057F0A2C05E
:1014B60058F0A3C059F0A4C05AF0A8C05BF023ECC2
:1014C60003F055C097F056C098F0B9EF0BF0A50E93
:1014D600016E000E026E410E036E060E046E000EC5
:1014E600066E020E056E58EC15F001500210D8A4D7
:1014F6007FEF0AF081EF0AF0EFEF0AF099C0D9FF0B
:101506009AC0DAFFDECF5CF0DDCF5DF0010E5C261F
:10151600000E5D225CC0F6FF5DC0F7FF0800F5CF48
:10152600A8F0BF0E5C6EFF0E5D6E99C0D9FF9AC023
:10153600DAFFDECFF6FFDDCFF7FF0800F5505E6E6F
:101546005F6A5C505E265D505F225F5007E11A0EAF
:101556005E5CD8B0B1EF0AF0B3EF0AF0CDEF0AF057
:101566009BC0D9FF9CC0DAFFDFCF5CF0040EDE26FD
:10157600DFCF5DF0000EDD225CC0D9FF5DC0DAFF73
:10158600DECFA1F0DECFA2F0DECFA3F0DECFA4F057
:10159600E5EF0AF09BC0D9FF9CC0DAFFDFCF5CF015
:1015A600040EDE26DFCF5DF0000EDD225CC0D9FF23
:1015B6005DC0DAFFDECFA1F0DECFA2F0DECFA3F072
:1015C600DECFA4F0020E99C0D9FF9AC0DAFFDE265C
:1015D600000EDD2254EF0AF099C0D9FF9AC0DAFF57
:1015E600DECFF6FFDDCFF7FF0800F550730AD8B45B
:1015F600FFEF0AF001EF0BF01CEF0BF099C0D9FFDB
:101606009AC0DAFFDECF01F0DDCF02F0390E036EAD
:10161600060E046E000E066E030E056E58EC15F0EF
:1016260001500210D8A41AEF0BF01CEF0BF066EF76
:101636000BF099C0D9FF9AC0DAFFDECFF6FFDDCFF7
:10164600F7FF0800F550730AD8B42CEF0BF02EEF15
:101656000BF035EF0BF0000E0001A06F030E9F6F2D
:101666003AEF0BF0000E0001A06F010E9F6F99C0BC
:10167600D9FF9AC0DAFF9F51DE26A051DD229BC01A
:10168600D9FF9CC0DAFFDFCF5CF0020EDE26DFCF8B
:101696005DF0000EDD225CC0D9FF5DC0DAFFDECF53
:1016A6009DF0DDCF9EF097C00AF098C00BF09DC06C
:1016B6000CF09EC00DF0DFEC13F00AC097F00BC0E3
:1016C60098F0B9EF0BF099C0D9FF9AC0DAFFDECFD8
:1016D600F6FFDDCFF7FF0800F550250AD8A476EF10
:1016E6000BF078EF0BF090EF0BF099C0D9FF9AC092
:1016F600DAFFDE2A000EDD22000E026E250E016ED6
:1017060097C003F098C004F0D0EC17F0000E00016B
:10171600986F010E976FB9EF0BF099C0D9FF9AC079
:10172600DAFFDE2A000EDD22000E0001986F000EA1
:10173600976FB9EF0BF099C0D9FF9AC0DAFFDECFE9
:10174600F6FFDDCFF7FF0800F550016E026A97C07D
:1017560003F098C004F0D0EC17F099C0D9FF9AC0F6
:10176600DAFFDE2A000EDD2289EF0BF012000450AC
:10177600800B0D6E045004240F6E03AEC5EF0BF004
:10178600C7EF0BF0C8EF0BF00F800F50D8B4CEEFB9
:101796000BF0D0EF0BF0E5EF0BF00F28D8A4D6EF47
:1017A6000BF0D8EF0BF0E0EF0BF0000E016E000E21
:1017B600026E000E036E000E046E038E000E046EA3
:1017C600EDEF0BF0000E016E000E026E000E036EC2
:1017D600000E046E0850800B0E6E0D500E18D8B415
:1017E600F7EF0BF0F9EF0BF0FAEF0BF00D8C08505A
:1017F60008240E6E07AE02EF0CF004EF0CF005EFB6
:101806000CF00E800E50D8B40BEF0CF00DEF0CF070
:1018160022EF0CF00E28D8A413EF0CF015EF0CF005
:101826001DEF0CF0000E056E000E066E000E076E24
:10183600000E086E078E000E086E2AEF0CF0000EE2
:10184600056E000E066E000E076E000E086E0F5037
:101856000E5CD8B031EF0CF033EF0CF05AEF0CF011
:101866000DAC38EF0CF03AEF0CF03CEF0CF0800EBC
:101876000D1A0FC010F00EC00FF010C00EF001C010
:1018860010F005C001F010C005F002C010F006C04F
:1018960002F010C006F003C010F007C003F010C03D
:1018A60007F004C010F008C004F010C008F0000EE5
:1018B600106E0F500EC009F00A6A095E000E0A5A31
:1018C6000ABE6FEF0CF00A5009E11A0E095CD8A0A7
:1018D6006FEF0CF071EF0CF0A8EF0CF00150021056
:1018E60003100410D8A47AEF0CF07DEF0CF0010E73
:1018F6007EEF0CF0000E106E000E016E000E026EF2
:10190600000E036E000E046E0EC00FF0B1EF0CF069
:1019160010A090EF0CF092EF0CF098EF0CF0D8902E
:1019260010300109106E9AEF0CF0D890103201A019
:101936009FEF0CF0A1EF0CF0A2EF0CF0108E043428
:1019460004320332023201320F2A0E500F5CD8A045
:10195600AFEF0CF0B1EF0CF08BEF0CF00DBCB6EF67
:101966000CF0B8EF0CF0F8EF0CF00F50D8A4BEEF67
:101976000CF0C0EF0CF0CAEF0CF0000E016E000E7A
:10198600026E000E036E000E046E19EF0EF0055087
:10199600012606500222075003220850042204A002
:1019A600D7EF0CF0D9EF0CF085EF0DF010A0DEEFBD
:1019B6000CF0E0EF0CF0E6EF0CF0D89010300109D7
:1019C600106EE8EF0CF0D890103201A0EDEF0CF09D
:1019D600EFEF0CF0F0EF0CF0108E0434043203320B
:1019E600023201320F2A85EF0DF00550015C0650D8
:1019F6000258075003580450800A096E0850800A9E
:101A06000958D8B009EF0DF00BEF0DF036EF0DF0D9
:101A16000150055C096E025006580A6E03500758BD
:101A26000B6E045008580C6EFF0E0924016EFF0E53
:101A36000A20026EFF0E0B20036EFF0E0C20046EB2
:101A4600800E0D1A106C1050D8A42CEF0DF02EEF4E
:101A56000DF03EEF0DF0010E0126000E02220322CC
:101A660004223EEF0DF00550015E0650025A075063
:101A7600035A0850045A0150021003100410D8A447
:101A860047EF0DF049EF0DF07EEF0DF01050D8A4A2
:101A96004FEF0DF051EF0DF07EEF0DF0000E016EE1
:101AA600000E026E000E036E000E046E19EF0EF0AD
:101AB600D890013602360336043610AE65EF0DF0C7
:101AC60067EF0DF068EF0DF0018010A06DEF0DF0DF
:101AD6006FEF0DF073EF0DF0D880103675EF0DF047
:101AE600D89010360F50D8B47BEF0DF07DEF0DF087
:101AF6007EEF0DF00F0603AE83EF0DF085EF0DF0D0
:101B06005BEF0DF0000E0E6E10AE8CEF0DF08EEF4B
:101B16000DF0A6EF0DF010C009F07F0E0916D8B42F
:101B260097EF0DF099EF0DF09DEF0DF0010E0E6E93
:101B3600A6EF0DF001A0A2EF0DF0A4EF0DF0A6EFB9
:101B46000DF099EF0DF00E50D8B4ACEF0DF0AEEFEE
:101B56000DF0D9EF0DF0010E0126000E0222032230
:101B6600042204A0B9EF0DF0BBEF0DF0D9EF0DF094
:101B760001C009F002C00AF003C00BF004C00CF06B
:101B86000C340C320B320A32093209C001F00AC099
:101B960002F00BC003F00CC004F00F28D8B4D6EF47
:101BA6000DF0D8EF0DF0D9EF0DF00F2A0F28D8B4AD
:101BB600DFEF0DF0E1EF0DF0E9EF0DF00F50D8A4D7
:101BC600E7EF0DF0E9EF0DF0FBEF0DF0000E016E03
:101BD600000E026E000E036E000E046E0F50D8A4A7
:101BE600F7EF0DF0F9EF0DF0FBEF0DF0000E0D6EB7
:101BF6000FA000EF0EF002EF0EF005EF0EF0038ED1
:101C060006EF0EF0039ED8900F30046E0DAE0EEF69
:101C16000EF010EF0EF011EF0EF0048E01C001F081
:101C260002C002F003C003F004C004F01200125018
:101C3600800B1B6E12501224216E11AE25EF0EF092
:101C460027EF0EF028EF0EF021802150D8B42EEFAA
:101C56000EF030EF0EF043EF0EF02128D8A436EF49
:101C66000EF038EF0EF040EF0EF0000E0F6E000E85
:101C7600106E000E116E000E126E118E4BEF0EF0EE
:101C8600000E0F6E000E106E000E116E000E126E1C
:101C96001650800B1B1A16501624206E15AE56EFE2
:101CA6000EF058EF0EF059EF0EF020802050D8B409
:101CB6005FEF0EF061EF0EF074EF0EF02028D8A45F
:101CC60067EF0EF069EF0EF071EF0EF0000E136E77
:101CD600000E146E000E156E000E166E158E7CEF3D
:101CE6000EF0000E136E000E146E000E156E000E32
:101CF600166E2050D8B482EF0EF084EF0EF08CEF03
:101D06000EF02150D8A48AEF0EF08CEF0EF096EF6D
:101D16000EF0000E0F6E000E106E000E116E000E0D
:101D2600126E2EEF10F015500F02F3CF26F0F4CFFF
:101D360027F026501C6E1D6A1E6A1F6A2750226EE7
:101D4600236A246A256A14501002F3CF26F0F4CFD2
:101D560027F026501C26000E1D221E221F22275069
:101D66002226000E23222422252213501102F3CF0D
:101D760026F0F4CF27F026501C26000E1D221E2228
:101D86001F2227502226000E2322242225221EC08F
:101D96001FF01DC01EF01CC01DF01C6A135010025F
:101DA600F3CF26F0F4CF27F026501C2627501D220D
:101DB600000E1E22000E1F2214500F02F3CF26F033
:101DC600F4CF27F026501C2627501D22000E1E2277
:101DD600000E1F221EC01FF01DC01EF01CC01DF0ED
:101DE6001C6A13500F02F3CF26F0F4CF27F02650CB
:101DF6001C2627501D22000E1E22000E1F221550E3
:101E06001002F3CF26F0F4CF27F0265022262750D3
:101E16002322000E2422000E252214501102F3CF95
:101E260026F0F4CF27F02650222627502322000E34
:101E36002422000E252215501102F3CF26F0F4CFEE
:101E460027F02650176E2750186E196A1A6A19C09D
:101E56001AF018C019F017C018F0176A1750222682
:101E660018502322195024221A5025221CC017F07C
:101E76001DC018F01EC019F01FC01AF0190E49EF48
:101E86000FF0D8901A32193218321732E82E44EF72
:101E96000FF01750222618502322195024221A50C8
:101EA60025221EC01FF01DC01EF01CC01DF01C6A9E
:101EB600205021C017F0186A1726000E1822820E2D
:101EC6001724266EFF0E1820276E7FEF0FF0D8908E
:101ED60022362336243625361FAE74EF0FF076EF02
:101EE6000FF077EF0FF02280D8901C361D361E3685
:101EF6001F362606D8A0270624AE84EF0FF086EFFD
:101F06000FF06AEF0FF0000E206E1FAE8DEF0FF090
:101F16008FEF0FF0B3EF0FF0FF0E1C14176EFF0ECE
:101F26001D14186EFF0E1E14196E7F0E1F141A6EE6
:101F36001750181019101A10D8B4A4EF0FF0A6EF06
:101F46000FF0AAEF0FF0010E206EB3EF0FF022A0F4
:101F5600AFEF0FF0B1EF0FF0B3EF0FF0A6EF0FF00A
:101F66002050D8B4B9EF0FF0BBEF0FF0DFEF0FF052
:101F7600010E2226000E23222422252225A0C6EFAA
:101F86000FF0C8EF0FF0DFEF0FF022C017F023C0FD
:101F960018F024C019F025C01AF01A341A32193272
:101FA6001832173217C022F018C023F019C024F0D7
:101FB6001AC025F0264A272A27BEEAEF0FF0275037
:101FC60008E12628D8A0EAEF0FF0ECEF0FF0F6EFC5
:101FD6000FF0000E226E000E236E800E246E7F0E12
:101FE600256E24EF10F027BE03EF10F0275006E110
:101FF6002604D8B001EF10F003EF10F00FEF10F049
:10200600000E226E000E236E000E246E000E256E4C
:10201600000E1B6E24EF10F026C021F0FF0E2216D4
:10202600FF0E23167F0E2416000E251621A01EEF86
:1020360010F020EF10F021EF10F0248ED890213010
:10204600256E1B50251222C00FF023C010F024C0AD
:1020560011F025C012F012002B50800B386E2B5059
:102066002B243F6E2AAE3AEF10F03CEF10F03DEF16
:1020760010F03F803F50D8B443EF10F045EF10F01A
:102086005AEF10F03F28D8A44BEF10F04DEF10F0A8
:1020960055EF10F0000E286E000E296E000E2A6E07
:1020A600000E2B6E2A8E000E2B6E62EF10F0000EC5
:1020B600286E000E296E000E2A6E000E2B6E2F5013
:1020C600800B381A2F502F24406E2EAE6DEF10F075
:1020D6006FEF10F070EF10F040804050D8B476EFFC
:1020E60010F078EF10F08DEF10F04028D8A47EEFB6
:1020F60010F080EF10F088EF10F0000E2C6E000E3E
:102106002D6E000E2E6E000E2F6E2E8E000E2F6E72
:1021160095EF10F0000E2C6E000E2D6E000E2E6E3A
:10212600000E2F6E2C502D102E102F10D8A49EEFBF
:1021360010F0A0EF10F0B8EF10F0000E286E000EB1
:10214600296E000E2A6E000E2B6E800E2A127F0E4E
:102156002B1238502B1228C028F029C029F02AC08B
:102166002AF02BC02BF0FBEF11F03F50D8A4BEEFA6
:1021760010F0C0EF10F0CAEF10F0000E286E000E3F
:10218600296E000E2A6E000E2B6EFBEF11F04050EA
:102196003FC030F0316A305E000E315A7F0E302477
:1021A600396E000E31203A6E28C034F029C035F061
:1021B6002AC036F02BC037F0000E286E000E296EAE
:1021C600000E2A6E000E2B6E000E3B6E000E3C6E4D
:1021D600000E3D6E000E3E6E000E406E2BEF11F0AF
:1021E6004050D8B4F9EF10F0FBEF10F012EF11F0F9
:1021F600D8903436353636363736D890283629369E
:102206002A362B363EAE0AEF11F00CEF11F00DEF29
:1022160011F02880D8903B363C363D363E362C5061
:10222600345C2D5035582E5036582F503758D8A07C
:102236001FEF11F021EF11F02AEF11F03E8C2C5018
:10224600345E2D50355A2E50365A2F50375A402A62
:10225600190E406431EF11F033EF11F0F3EF10F087
:102266003450351036103710D8B43CEF11F03EEF2D
:1022760011F056EF11F03B8056EF11F0D89028364A
:1022860029362A362B363EAE4BEF11F04DEF11F0C4
:102296004EEF11F02880D8903B363C363D363E3620
:1022A6003906D8A03A062AAE5BEF11F05DEF11F0C1
:1022B60041EF11F0000E406E3EAE64EF11F066EF96
:1022C60011F08AEF11F0FF0E3B14306EFF0E3C1436
:1022D600316EFF0E3D14326E7F0E3E14336E30505B
:1022E600311032103310D8B47BEF11F07DEF11F0BE
:1022F60081EF11F0010E406E8AEF11F028A086EFF3
:1023060011F088EF11F08AEF11F07DEF11F04050D7
:10231600D8B490EF11F092EF11F0B6EF11F0010E74
:102326002826000E29222A222B222BA09DEF11F00F
:102336009FEF11F0B6EF11F028C030F029C031F050
:102346002AC032F02BC033F03334333232323132DA
:10235600303230C028F031C029F032C02AF033C004
:102366002BF0394A3A2A3ABEC1EF11F03A5008E149
:102376003928D8A0C1EF11F0C3EF11F0CEEF11F05C
:10238600000E3A6E3968000E286E000E296E000E99
:102396002A6E000E2B6E3ABEDBEF11F03A5006E1C4
:1023A6003904D8B0D9EF11F0DBEF11F0E9EF11F0F5
:1023B600000E3A6E000E396E000E286E000E296E63
:1023C600000E2A6E000E2B6E000E386E39C03FF0DE
:1023D6003FA0F0EF11F0F2EF11F0F5EF11F02A8EB9
:1023E600F6EF11F02A9ED8903F302B6EACEF10F02E
:1023F6001200CAC051F0CBC052F0CCC053F0CDC0D1
:1024060054F041C051F042C052F043C053F044C0B2
:1024160054F0810E456EFF0E466E51C047F052C015
:1024260048F053C049F054C04AF0180E20EF12F09D
:10243600D8904A32493248324732E82E1BEF12F022
:10244600475045244F6E000E4620506E50BE35EF65
:1024560012F0505009E1170E4F5CD8A035EF12F07C
:1024660037EF12F041EF12F041C041F042C042F0A6
:1024760043C043F044C044F004EF13F050BE46EFAF
:1024860012F048EF12F0B8EF12F04FC045F0FF0E11
:10249600466EFF0E476E7F0E486E000E496E45660D
:1024A60057EF12F05FEF12F04934493248324732A3
:1024B6004632452E52EF12F046C04BF047C04CF064
:1024C60048C04DF049C04EF04B505114456E4C502B
:1024D6005214466E4D505314476E4E505414486E67
:1024E6004550461047104810D8A47CEF12F07EEFF6
:1024F60012F080EF12F037EF12F051C045F052C0E3
:1025060046F053C047F054C048F0200E90EF12F04A
:10251600D8904832473246324532E82E8BEF12F0D9
:102526004550461047104810D8B49CEF12F09EEF65
:1025360012F0A6EF12F04B5051264C5052224D503D
:1025460053224E5054224B1C456E4C1C466E4D1C5D
:10255600476E4E1C486E455051164650521647500F
:10256600531648505416FCEF12F051C045F052C0B5
:1025760046F053C047F054C048F0200EC8EF12F0A2
:10258600D8904832473246324532E82EC3EF12F031
:102596004550461047104810D8A4D4EF12F0D6EF95
:1025A60012F0E0EF12F0000E516E000E526E000EA9
:1025B600536E000E546EFCEF12F0D8905134456EF7
:1025C6005234466E5334476E5434486E4550461066
:1025D60047104810D8B4F2EF12F0F4EF12F0FCEF07
:1025E60012F0000E516E000E526E800E536EBF0E2C
:1025F600546E51C041F052C042F053C043F054C033
:1026060044F01200096E0950D8B40CEF13F00EEF27
:1026160013F030EF13F004BE15EF13F013EF13F0C1
:1026260030EF13F001C005F002C006F003C007F05A
:1026360004C008F0051E061E071E081E052A000E09
:1026460006220722082205C00BF006C00CF007C0C0
:102656000DF008C00EF038EF13F001C00BF002C009
:102666000CF003C00DF004C00EF001500210031070
:102676000410D8A441EF13F043EF13F04DEF13F01D
:10268600000E016E000E026E000E036E000E046E4A
:10269600DEEF13F0960E0A6E57EF13F00A2AD89063
:1026A6000E320D320C320B32000E0B14056E000E7C
:1026B6000C14066E000E0D14076EFE0E0E14086E38
:1026C6000550061007100810D8A46CEF13F06EEF33
:1026D60013F051EF13F07CEF13F00A2A010E0B26CC
:1026E600000E0C220D220E22D8900E320D320C3224
:1026F6000B32000E0B14056E000E0C14066E000E47
:102706000D14076EFF0E0E14086E05500610071006
:102716000810D8A491EF13F093EF13F070EF13F0B5
:102726009BEF13F00A06D8900B360C360D360E3694
:102736000DBEA0EF13F0A2EF13F0AAEF13F0020EF6
:102746000A60A8EF13F0AAEF13F095EF13F00AB0A2
:10275600AFEF13F0B1EF13F0B2EF13F00D9ED89078
:102766000A320AC005F0066A076A086A05C008F058
:10277600076A066A056A05500B1206500C120750C6
:102786000D1208500E120950D8B4CCEF13F0CEEF4C
:1027960013F0D6EF13F004BED5EF13F0D3EF13F01A
:1027A600D6EF13F00E8E0BC001F00CC002F00DC078
:1027B60003F00EC004F0120020EEE9F010EE0FF068
:1027C600060EDBCFE3FFE806FCE20CC01AF00DC0F4
:1027D6001BF01A501B10D8A4F3EF13F0F5EF13F00B
:1027E600F9EF13F00F0E1A6E000E1B6E1AC001F0F1
:1027F6001BC002F084EC1AF001C01EF002C01FF0EC
:10280600D6C01CF0D7C01DF01DBE0CEF14F00EEFA5
:1028160014F023EF14F01E501C5C1D50800A0E6E3F
:102826001F50800A0E58D8A01BEF14F01DEF14F0AD
:102836001FEF14F023EF14F01CC01EF01DC01FF094
:102846001EC01CF01FC01DF0D4C018F0D5C019F072
:102856000001D8B131EF14F033EF14F050EF14F05B
:1028660041EF14F0000E026E200E016E0AC003F056
:102876000BC004F0D0EC17F01E4A1F2A18501E5C3D
:102886001F50800A0E6E1950800A0E58D8A04EEFBF
:1028960014F050EF14F035EF14F0000E176E000E22
:1028A600166E74EF14F01AC0F6FF1BC0F7FFF86A35
:1028B600050EF76403D00800F55005D0F6CFE1FF0A
:1028C600F7CFE2FFE7500E6E0E50016E026A0AC0A5
:1028D60003F00BC004F0D0EC17F01A4A1B2A164A74
:1028E600172A1C50165C1750800A0E6E1D50800A5F
:1028F6000E58D8A081EF14F083EF14F056EF14F0C1
:102906000001D8A189EF14F08BEF14F0A8EF14F0B2
:1029160099EF14F0000E026E200E016E0AC003F04D
:102926000BC004F0D0EC17F01E4A1F2A18501E5C8C
:102936001F50800A0E6E1950800A0E58D8A0A6EFB6
:1029460014F0A8EF14F08DEF14F01EC00AF01FC0AB
:102956000BF01200000E116E000E106E000E0F6EC0
:10296600000E0E6EB9EF14F0084A092A08C0F6FFE9
:1029760009C0F7FF0800F550200AD8B4C5EF14F0D7
:10298600C7EF14F0B7EF14F0F70E0A6EFF0E0B6EDA
:1029960008C0F6FF09C0F7FF0800F5500C6E0D6A77
:1029A6000A500C260B500D220D5009E1050E0C5C49
:1029B600D8A0E0EF14F0E2EF14F0B7EF14F0ECEF6C
:1029C60014F0000E0F6E010E0E6E084A092A21EF52
:1029D60015F008C0F6FF09C0F7FF0800F5500A6EAB
:1029E6000B6A0B50000AD8B4FBEF14F021EF15F078
:1029F6000A502B0AD8B4E8EF14F0060AD8B4E4EF6C
:102A060014F021EF15F010C001F011C002F0000E15
:102A1600046E0A0E036EF4EC1BF008C0F6FF09C044
:102A2600F7FF0800F550015E000E025A300E012431
:102A3600106E000E0220116EE8EF14F0D00E0A6E32
:102A4600FF0E0B6E08C0F6FF09C0F7FF0800F55031
:102A56000C6E0D6A0A500C260B500D220D5009E122
:102A66000A0E0C5CD8A03AEF15F03CEF15F006EF15
:102A760015F00E500F10D8A443EF15F045EF15F0E2
:102A860053EF15F010C00AF011C00BF00A1E0B1E12
:102A96000A4A0B2A0AC008F00BC009F057EF15F0D6
:102AA60010C008F011C009F0120001C008F002C001
:102AB60009F003C00AF004C00BF00506D8A006060C
:102AC600052806E10628D8A46BEF15F06DEF15F082
:102AD6007AEF15F0000E026E000E016EE4EF15F0AF
:102AE600084A092A0A4A0B2A0506D8A0060608C07B
:102AF600F6FF09C0F7FFF86A050EF76403D0080071
:102B0600F55005D0F6CFE1FFF7CFE2FFE750000919
:102B1600D8B490EF15F092EF15F0C8EF15F00AC093
:102B2600F6FF0BC0F7FF0800F5500009D8B49EEF7A
:102B360015F0A0EF15F0C8EF15F005500610D8B443
:102B4600A7EF15F0A9EF15F0C8EF15F00AC0F6FFCC
:102B56000BC0F7FF0800F5CF07F008C0F6FF09C065
:102B6600F7FFF86A050EF76403D00800F55005D0A4
:102B7600F6CFE1FFF7CFE2FFE7500718D8B4C6EF6C
:102B860015F0C8EF15F073EF15F008C0F6FF09C091
:102B9600F7FFF86A050EF76403D00800F55005D074
:102BA600F6CFE1FFF7CFE2FFE750076E0AC0F6FF68
:102BB6000BC0F7FF0800F550075C016E026AD8A04B
:102BC60002061200033404340A6E0A50D8A4EEEF4B
:102BD60015F0F0EF15F0FAEF15F0000E016E000E8D
:102BE600026E000E036E000E046E67EF16F001C053
:102BF60005F002C006F003C007F004C008F0200E7E
:102C06000AEF16F0D8900832073206320532E82E5F
:102C160005EF16F00550096E038EFF0E0116FF0E26
:102C26000216FF0E0316000E0416960E0A5E0ABE64
:102C360021EF16F01FEF16F037EF16F00A50800A54
:102C4600970FD8B029EF16F02BEF16F02DEF16F0F0
:102C5600F0EF15F0D89004320332023201320A3E08
:102C66002DEF16F04FEF16F01F0E0A643DEF16F02B
:102C76003FEF16F047EF16F0F0EF15F0D89001365B
:102C86000236033604360A060A50D8A44DEF16F06B
:102C96004FEF16F041EF16F00950D8B455EF16F085
:102CA60057EF16F05FEF16F0041E031E021E016CAE
:102CB600000E02220322042201C001F002C002F02B
:102CC60003C003F004C004F01200000E2814306E96
:102CD600000E2914316E800E2A14326E7F0E2B14CC
:102CE600336E3050311032103310D8A47DEF16F009
:102CF6007FEF16F087EF16F0000E286E000E296E95
:102D0600000E2A6E000E2B6E000E2C14306E000E76
:102D16002D14316E800E2E14326E7F0E2F14336EEC
:102D26003050311032103310D8A49CEF16F09EEFBD
:102D360016F0A6EF16F0000E2C6E000E2D6E000E8D
:102D46002E6E000E2F6E2BAEABEF16F0ADEF16F01B
:102D5600B6EF16F0286C291ED8B0292A2A1ED8B03C
:102D66002A2A800E2B562FAEBBEF16F0BDEF16F0BB
:102D7600C6EF16F02C6C2D1ED8B02D2A2E1ED8B0FC
:102D86002E2A800E2F56000E281A000E291A000E23
:102D96002A1A800E2B1A000E2C1A000E2D1A000E5F
:102DA6002E1A800E2F1A2C50285C2D5029582E5082
:102DB6002A582F502B58D8B0E3EF16F0E5EF16F04F
:102DC600E8EF16F0D890E9EF16F0D8801200CEC0E2
:102DD6000BF0CFC00CF0D0C00DF0D1C00EF001C08A
:102DE6000BF002C00CF003C00DF004C00EF00BC0D7
:102DF60005F00CC006F00DC007F00EC008F0180E66
:102E06000AEF17F0D8900832073206320532E82E5C
:102E160005EF17F00550096E0A6A09500A10D8A482
:102E260017EF17F019EF17F039EF17F0D8900B34AA
:102E3600056E0C34066E0D34076E0E34086E0550A2
:102E4600061007100810D8A42BEF17F02DEF17F077
:102E560033EF17F0000E026E020E016E68EF17F0E8
:102E6600000E026E030E016E68EF17F009280A10B5
:102E7600D8A440EF17F042EF17F064EF17F00BC03D
:102E860005F00CC006F00DC007F00EC008F0090EE4
:102E9600D8900536063607360836E82E4BEF17F07B
:102EA6000550061007100810D8B45CEF17F05FEF56
:102EB60017F0010E60EF17F0000E016E026A68EF60
:102EC60017F0000E026E040E016E120027EC1CF0C5
:102ED600000E54EC1BF001C0E1F002C0E2F0C3CFDB
:102EE6008CFFC4CF8AFF330E136E330E146E530E4F
:102EF600156E400E166EE1C001F0E2C002F0036AE4
:102F0600046A000E05EC13F001C00FF002C010F0C9
:102F160003C011F004C012F01AEC0EF00FC028F036
:102F260010C029F011C02AF012C02BF0000E2C6E32
:102F3600C00E2D6E7F0E2E6E440E2F6E2FEC10F0EF
:102F460028C0DDF029C0DEF02AC0DFF02BC0E0F09B
:102F5600500E0001B16F010EB26F200EB36F060E58
:102F6600B46F010EB56F060EB66FDDC0B7F0DEC0EA
:102F7600B8F0DFC0B9F0E0C0BAF03D0EBB6F060E88
:102F8600BC6F32EC1AF0500E026E010E036E06ECA8
:102F96001AF06BEF17F000EF00F003500410D8B4EE
:102FA600D7EF17F0D9EF17F0E2EF17F00350041040
:102FB600D8A4E0EF17F0E2EF17F0E7EF17F00150B3
:102FC6004AEC1CF034EF18F020EE09F00350D92635
:102FD6000450DA22DE50DE10D8B4F4EF17F0F6EF24
:102FE60017F011EF18F020EE09F00350D92604501F
:102FF600DA2210EE03F00350E1260450E222DE50FE
:10300600E65CE650800A096EDE50800A0958D8B0A0
:103016000FEF18F011EF18F034EF18F020EE03F070
:103026000350D9260450DA22DECF05F0DDCF06F0B4
:1030360003C0D9FF04C0DAFFDECF07F0DDCF08F00A
:1030460005500724D96E06500820DA6E01C0DFFF4E
:1030560020EE03F00350D9260450DA22DE2A000EB1
:10306600DD2212000001D8A13BEF18F03DEF18F069
:1030760047EF18F013C00AF014C00BF011C00CF0A3
:1030860012C00DF0F1EC1AF016BE4CEF18F04EEF30
:1030960018F054EF18F015C01AF016C01BF058EFD0
:1030A60018F0000E1B6E000E1A6E000E196E000E42
:1030B600186E6AEF18F0000E026E200E016E11C037
:1030C60003F012C004F0D0EC17F0184A192A1A506F
:1030D600185C1950800A176E1B50800A1758D8A022
:1030E60077EF18F079EF18F05EEF18F00001D8B11D
:1030F6007FEF18F081EF18F08BEF18F013C00AF08D
:1031060014C00BF011C00CF012C00DF0F1EC1AF067
:1031160013C001F014C002F084EC1AF01A50012416
:10312600116E1B500220126E1200000E066E04BEB7
:10313600A1EF18F09FEF18F0A7EF18F0036C041E2C
:10314600D8B0042A010E066E02BEAEEF18F0ACEF40
:1031560018F0B4EF18F0016C021ED8B0022A010E66
:10316600061A000E086E000E076E03500410D8B43F
:10317600BFEF18F0C1EF18F0E9EF18F0010E056E79
:10318600C9EF18F0D89003360436052A04AECEEF00
:1031960018F0D0EF18F0C5EF18F0D89007360836BB
:1031A6000350015C04500258D8A0DCEF18F0DEEFA3
:1031B60018F0E3EF18F00350015E0450025A07803E
:1031C600D89004320332052ED0EF18F00650D8B44A
:1031D600EFEF18F0F1EF18F0F5EF18F0076C081E96
:1031E600D8B0082A07C001F008C002F01200000E8D
:1031F600066E02BE03EF19F001EF19F009EF19F0A0
:10320600016C021ED8B0022A010E066E04BE10EF33
:1032160019F00EEF19F014EF19F0036C041ED8B074
:10322600042A03500410D8B41BEF19F01DEF19F04F
:1032360041EF19F0010E056E25EF19F0D89003360F
:103246000436052A04AE2AEF19F02CEF19F021EF07
:1032560019F00350015C04500258D8A035EF19F05C
:1032660037EF19F03BEF19F00350015E0450025A94
:10327600D89004320332052E2CEF19F00650D8B43C
:1032860047EF19F049EF19F04DEF19F0016C021EE6
:10329600D8B0022A01C001F002C002F01200000EEE
:1032A6000114096E000E02140A6E800E03140B6ED2
:1032B6007F0E04140C6E09500A100B100C10D8A4C3
:1032C60067EF19F069EF19F071EF19F0000E016E52
:1032D600000E026E000E036E000E046E000E051444
:1032E600096E000E06140A6E800E07140B6E7F0E12
:1032F60008140C6E09500A100B100C10D8A486EF97
:1033060019F088EF19F090EF19F0000E056E000E17
:10331600066E000E076E000E086E055001180FE1CE
:10332600065002180CE10750031809E1085004186A
:10333600D8B4A0EF19F0A2EF19F0A5EF19F0D890C4
:10334600A6EF19F0D8801200ABC0AFF0ACC0B0F059
:10335600000E0001D36F000ED26FC5EF19F0A9C0A1
:1033660097F0AAC098F0AF0E996F000E9A6FADC095
:103376009BF0AEC09CF028EC09F000019751D227D3
:103386009851D323AFC0F6FFB0C0F7FF0800F55041
:103396000009D8A4D1EF19F0D3EF19F0B2EF19F064
:1033A600D2C0A9F0D3C0AAF0120003C007F004C02F
:1033B60008F001C009F002C00AF00750056E085077
:1033C600066E074A082A05C0F6FF06C0F7FFF86A28
:1033D60009C0D9FF0AC0DAFF094A0A2A050EF764AE
:1033E60003D00800F55005D0F6CFE1FFF7CFE2FF96
:1033F600E750DF6EDF50D8A403EF1AF005EF1AF09E
:10340600E0EF19F01200E0EC1BF00009D8B40EEF63
:103416001AF010EF1AF006EF1AF01BEF1AF002C0BE
:10342600D9FF03C0DAFFDF5007EC1CF0024A032A7B
:1034360002C0D9FF03C0DAFFDF50D8A425EF1AF087
:1034460027EF1AF012EF1AF01DEC1CF00009D8B4A1
:103456002FEF1AF031EF1AF027EF1AF01200B50E1F
:103466000001BD6F000EBE6FB1C0BFF0B2C0C0F0AC
:10347600000EC36F000EC26F000EC96F000EC86F3C
:10348600BF0EA96F000EAA6FB3C0ABF0B4C0ACF00C
:10349600BD0EAD6F000EAE6FA7EC19F00001C25164
:1034A600B125D96EC351B221DA6E000EDF6E12005D
:1034B600010E076E200E01180210D8B465EF1AF03F
:1034C60067EF1AF080EF1AF0F70E036EFF0E046E28
:1034D60001C005F002C006F003500526045006227E
:1034E600065009E1050E055CD8A07CEF1AF07EEFC8
:1034F6001AF080EF1AF0000E076E07C001F0026A9C
:10350600120001C003F002C004F08CEF1AF0014A69
:10351600022A01C0F6FF02C0F7FFF86A050EF7643B
:1035260003D00800F55005D0F6CFE1FFF7CFE2FF54
:10353600E7500009D8A4A2EF1AF0A4EF1AF08AEF18
:103546001AF00350015C016E04500258026E12001C
:10355600BF0E096EFF0E0A6E07C00BF008C00CF016
:1035660009500B260A500C220C5007E11A0E0B5C70
:10357600D8B0C0EF1AF0C2EF1AF0C9EF1AF0200E59
:103586000710076E0850086ECDEF1AF007C007F057
:1035960008C008F01200000E2C1A000E2D1A000E9C
:1035A6002E1A800E2F1A28C001F029C002F02AC058
:1035B60003F02BC004F02CC005F02DC006F02EC081
:1035C60007F02FC008F0BAEC0BF001C028F002C0DB
:1035D60029F003C02AF004C02BF01200000E106E72
:1035E600000E0F6E02EF1BF00EC001F0026A0CC057
:1035F60003F00DC004F0D0EC17F00F4A102A0F505C
:103606000A24D96E10500B20DA6EDF500E6E0E5063
:10361600D8A410EF1BF012EF1BF0F7EF1AF0120010
:10362600600EF66E380EF76E000EF86E00EEE9F0DC
:1036360010EE0BF00900F5CFEEFFE550E150FAE190
:1036460001EE00F0820EEE6AE806FDE100EECAF039
:10365600130EEE6AE806FDE1000EF86E000169EF52
:1036660017F0080EB86E900EAB6E240EAC6E080EF8
:10367600AF6E020EB06E000E016E000E026E40ECD2
:103686001CF0000E016E000E026E3BEC1CF0000EEC
:10369600016E000E026E45EC1CF0000E0001DC6FA0
:1036A6001200056E05C003F003460346C250031818
:1036B600C30B0318C26EC280C282C2B265EF1BF092
:1036C60067EF1BF060EF1BF0C450046E036AC35033
:1036D6000324016E000E0420026E1200BF0E036E5C
:1036E600FF0E046E01C005F002C006F00350052669
:1036F6000450062206500AE11A0E055CD8A086EF91
:103706001BF089EF1BF0010E8AEF1BF0000E016E15
:10371600026A12000150021003100410D8B496EF8A
:103726001BF098EF1BF0A0EF1BF0000E011A000E25
:10373600021A000E031A800E041A01C001F002C01C
:1037460002F003C003F004C004F01200D00E036EB2
:10375600FF0E046E01C005F002C006F003500526F8
:103766000450062206500AE10A0E055CD8A0BEEFF8
:103776001BF0C1EF1BF0010EC2EF1BF0000E016E35
:10378600026A1200000E8D6E000E8C6E000E896E9F
:10379600000E8A6E000E8B6E070E966ED30E926E1C
:1037A600000E936EBF0E946E000E956E7E681F0E11
:1037B6007F6E000E7C6EF18E1200000E016E9EA8CA
:1037C600E7EF1BF0E9EF1BF0F2EF1BF0ACAAEEEF10
:1037D6001BF0F0EF1BF0F2EF1BF0010E016E015033
:1037E600120001500302F3CF05F0F4CF06F00150AA
:1037F6000402F350062602500302F350062605C0C3
:1038060001F006C002F01200016E9EA80DEF1CF03A
:103816000FEF1CF008EF1CF001C0ADFF1200000E08
:10382600C16EBA0EC06E000EC36E000EC46E010EDF
:10383600C26E1200ACB222EF1CF025EF1CF0010E96
:1038460026EF1CF0000E1200C5EC1BF036EC1CF047
:1038560012EC1CF034EC1BF01200286E756C6C290F
:05386600003333534064
:10386C00600ED36E000E9B6E120001C0E5F002C01C
:10387C00E6F0120001C0E7F002C0E8F0120001C04F
:0A388C00E3F002C0E4F012001200A5
:020000040020DA
:08000000FFFFFFFFFFFFFFFF00
:020000040030CA
:0E000000FF021F1EFF8B81FF0FC00FE00F409D
:00000001FF
