:0400000092EF3FF04C
:107F0C00600ED36E000E9B6E1200A4EC3FF086EC5C
:107F1C003FF099EC3FF01200096A086A000EF86E07
:107F2C000001D9EF3FF0000EC16EBA0EC06E000E0C
:107F3C00C36E000EC46E010EC26E1200000E8D6E6A
:107F4C00000E8C6E000E896E000E8A6E000E8B6E0B
:107F5C00070E966E92689368FE0E946E95687E6816
:107F6C001F0E7F6E000E7C6EF18E1200056E05C02A
:107F7C0003F003460346C2500318C30B0318C26E2A
:107F8C00C280C282C2B2CDEF3FF0CFEF3FF0C8EF5C
:107F9C003FF0C450046E036AC3500324016E000EFC
:107FAC000420026E12008BEC3FF0000EBCEC3FF094
:107FBC0001C006F002C007F02D0E065C010E07583A
:107FCC00D8B0EBEF3FF0EDEF3FF0F0EF3FF08B80F0
:107FDC00DBEF3FF02D0E065C010E0758D8A0F9EF31
:107FEC003FF0FBEF3FF0DBEF3FF08B90DBEF3FF030
:047FFC0000EF00F0A2
:020000040020DA
:08000000FFFFFFFFFFFFFFFF00
:020000040030CA
:0E000000FF021F1EFF8B81FF0FC00FE00F409D
:00000001FF
