:040000006DEF3FF071
:107EB600600ED36E000E9B6E12003C0EBA6EBB684F
:107EC600000EBC6E1200CB68000ECC6E9E927D0E2C
:107ED600CA6E12000B6A0A6A000EF86E0001D8EF2D
:107EE6003FF0000EC16EBA0EC06E000EC36E000EDD
:107EF600C46E010EC26E1200A2EC3FF05BEC3FF0C6
:107F060060EC3FF066EC3FF074EC3FF0120001C00D
:107F160003F002C004F0D89004320332D890043241
:107F260003320350BB6E01C003F0030E0316033A7F
:107F3600F00E0316BA50CF0B0310BA6E1200000EE5
:107F46008D6E000E8C6E000E896E000E8A6E000E0F
:107F56008B6E070E966E9268FC0E936EFD0E946EF7
:107F660095687E68090E7F6E000E7C6EF18E12009B
:107F7600056E05C003F003460346C2500318C30B43
:107F86000318C26EC280C282C2B2CCEF3FF0CEEFFF
:107F96003FF0C7EF3FF0C450046E036AC35003249A
:107FA600016E000E0420026E12007FEC3FF0000E00
:107FB600BBEC3FF001C008F002C009F008C001F0B8
:107FC60009C002F08AEC3FF0020E076E450E066EFF
:107FD600AA0EE82EFED7062EFCD7072EFAD783A0C8
:107FE60002D08A8001D08A9083A202D08A8201D0F0
:0A7FF6008A92DAEF3FF000EF00F08E
:020000040020DA
:08000000FFFFFFFFFFFFFFFF00
:020000040030CA
:0E000000FF021F1EFF8981FF0FC00FE00F409F
:00000001FF
